{
  "_format": "hh-sol-artifact-1",
  "contractName": "Staking",
  "sourceName": "contracts/Staking.sol",
  "abi": [
    {
      "inputs": [
        {
          "internalType": "address",
          "name": "_token",
          "type": "address"
        },
        {
          "internalType": "uint256",
          "name": "_minimumStake",
          "type": "uint256"
        },
        {
          "internalType": "uint32",
          "name": "_lockPeriod",
          "type": "uint32"
        },
        {
          "internalType": "uint8",
          "name": "_feePercentage",
          "type": "uint8"
        }
      ],
      "stateMutability": "nonpayable",
      "type": "constructor"
    },
    {
      "inputs": [
        {
          "internalType": "address",
          "name": "target",
          "type": "address"
        }
      ],
      "name": "AddressEmptyCode",
      "type": "error"
    },
    {
      "inputs": [
        {
          "internalType": "address",
          "name": "account",
          "type": "address"
        }
      ],
      "name": "AddressInsufficientBalance",
      "type": "error"
    },
    {
      "inputs": [],
      "name": "FailedInnerCall",
      "type": "error"
    },
    {
      "inputs": [
        {
          "internalType": "address",
          "name": "owner",
          "type": "address"
        }
      ],
      "name": "OwnableInvalidOwner",
      "type": "error"
    },
    {
      "inputs": [
        {
          "internalType": "address",
          "name": "account",
          "type": "address"
        }
      ],
      "name": "OwnableUnauthorizedAccount",
      "type": "error"
    },
    {
      "inputs": [],
      "name": "ReentrancyGuardReentrantCall",
      "type": "error"
    },
    {
      "inputs": [
        {
          "internalType": "address",
          "name": "token",
          "type": "address"
        }
      ],
      "name": "SafeERC20FailedOperation",
      "type": "error"
    },
    {
      "anonymous": false,
      "inputs": [
        {
          "indexed": false,
          "internalType": "uint256",
          "name": "amount",
          "type": "uint256"
        }
      ],
      "name": "FeeWithdrawn",
      "type": "event"
    },
    {
      "anonymous": false,
      "inputs": [
        {
          "indexed": true,
          "internalType": "address",
          "name": "previousOwner",
          "type": "address"
        },
        {
          "indexed": true,
          "internalType": "address",
          "name": "newOwner",
          "type": "address"
        }
      ],
      "name": "OwnershipTransferred",
      "type": "event"
    },
    {
      "anonymous": false,
      "inputs": [
        {
          "indexed": true,
          "internalType": "address",
          "name": "staker",
          "type": "address"
        },
        {
          "indexed": false,
          "internalType": "uint256",
          "name": "tokens",
          "type": "uint256"
        }
      ],
      "name": "StakeDeposited",
      "type": "event"
    },
    {
      "anonymous": false,
      "inputs": [
        {
          "indexed": true,
          "internalType": "address",
          "name": "staker",
          "type": "address"
        },
        {
          "indexed": false,
          "internalType": "uint256",
          "name": "tokens",
          "type": "uint256"
        },
        {
          "indexed": false,
          "internalType": "uint256",
          "name": "until",
          "type": "uint256"
        }
      ],
      "name": "StakeLocked",
      "type": "event"
    },
    {
      "anonymous": false,
      "inputs": [
        {
          "indexed": true,
          "internalType": "address",
          "name": "staker",
          "type": "address"
        },
        {
          "indexed": false,
          "internalType": "uint256",
          "name": "tokens",
          "type": "uint256"
        },
        {
          "indexed": true,
          "internalType": "address",
          "name": "escrowAddress",
          "type": "address"
        },
        {
          "indexed": false,
          "internalType": "address",
          "name": "slashRequester",
          "type": "address"
        }
      ],
      "name": "StakeSlashed",
      "type": "event"
    },
    {
      "anonymous": false,
      "inputs": [
        {
          "indexed": true,
          "internalType": "address",
          "name": "staker",
          "type": "address"
        },
        {
          "indexed": false,
          "internalType": "uint256",
          "name": "tokens",
          "type": "uint256"
        }
      ],
      "name": "StakeWithdrawn",
      "type": "event"
    },
    {
      "inputs": [
        {
          "internalType": "address",
          "name": "_slasher",
          "type": "address"
        }
      ],
      "name": "addSlasher",
      "outputs": [],
      "stateMutability": "nonpayable",
      "type": "function"
    },
    {
      "inputs": [],
      "name": "feeBalance",
      "outputs": [
        {
          "internalType": "uint256",
          "name": "",
          "type": "uint256"
        }
      ],
      "stateMutability": "view",
      "type": "function"
    },
    {
      "inputs": [],
      "name": "feePercentage",
      "outputs": [
        {
          "internalType": "uint8",
          "name": "",
          "type": "uint8"
        }
      ],
      "stateMutability": "view",
      "type": "function"
    },
    {
      "inputs": [
        {
          "internalType": "address",
          "name": "_staker",
          "type": "address"
        }
      ],
      "name": "getAvailableStake",
      "outputs": [
        {
          "internalType": "uint256",
          "name": "",
          "type": "uint256"
        }
      ],
      "stateMutability": "view",
      "type": "function"
    },
    {
      "inputs": [
        {
          "internalType": "uint256",
          "name": "_startIndex",
          "type": "uint256"
        },
        {
          "internalType": "uint256",
          "name": "_limit",
          "type": "uint256"
        }
      ],
      "name": "getListOfStakers",
      "outputs": [
        {
          "internalType": "address[]",
          "name": "",
          "type": "address[]"
        },
        {
          "components": [
            {
              "internalType": "uint256",
              "name": "tokensStaked",
              "type": "uint256"
            },
            {
              "internalType": "uint256",
              "name": "tokensLocked",
              "type": "uint256"
            },
            {
              "internalType": "uint256",
              "name": "tokensLockedUntil",
              "type": "uint256"
            }
          ],
          "internalType": "struct Stakes.Staker[]",
          "name": "",
          "type": "tuple[]"
        }
      ],
      "stateMutability": "view",
      "type": "function"
    },
    {
      "inputs": [
        {
          "internalType": "address",
          "name": "_staker",
          "type": "address"
        }
      ],
      "name": "getStakedTokens",
      "outputs": [
        {
          "internalType": "uint256",
          "name": "",
          "type": "uint256"
        }
      ],
      "stateMutability": "view",
      "type": "function"
    },
    {
      "inputs": [],
      "name": "lockPeriod",
      "outputs": [
        {
          "internalType": "uint32",
          "name": "",
          "type": "uint32"
        }
      ],
      "stateMutability": "view",
      "type": "function"
    },
    {
      "inputs": [],
      "name": "minimumStake",
      "outputs": [
        {
          "internalType": "uint256",
          "name": "",
          "type": "uint256"
        }
      ],
      "stateMutability": "view",
      "type": "function"
    },
    {
      "inputs": [],
      "name": "owner",
      "outputs": [
        {
          "internalType": "address",
          "name": "",
          "type": "address"
        }
      ],
      "stateMutability": "view",
      "type": "function"
    },
    {
      "inputs": [
        {
          "internalType": "address",
          "name": "_slasher",
          "type": "address"
        }
      ],
      "name": "removeSlasher",
      "outputs": [],
      "stateMutability": "nonpayable",
      "type": "function"
    },
    {
      "inputs": [],
      "name": "renounceOwnership",
      "outputs": [],
      "stateMutability": "nonpayable",
      "type": "function"
    },
    {
      "inputs": [
        {
          "internalType": "uint8",
          "name": "_feePercentage",
          "type": "uint8"
        }
      ],
      "name": "setFeePercentage",
      "outputs": [],
      "stateMutability": "nonpayable",
      "type": "function"
    },
    {
      "inputs": [
        {
          "internalType": "uint32",
          "name": "_lockPeriod",
          "type": "uint32"
        }
      ],
      "name": "setLockPeriod",
      "outputs": [],
      "stateMutability": "nonpayable",
      "type": "function"
    },
    {
      "inputs": [
        {
          "internalType": "uint256",
          "name": "_minimumStake",
          "type": "uint256"
        }
      ],
      "name": "setMinimumStake",
      "outputs": [],
      "stateMutability": "nonpayable",
      "type": "function"
    },
    {
      "inputs": [
        {
          "internalType": "address",
          "name": "_slashRequester",
          "type": "address"
        },
        {
          "internalType": "address",
          "name": "_staker",
          "type": "address"
        },
        {
          "internalType": "address",
          "name": "_escrowAddress",
          "type": "address"
        },
        {
          "internalType": "uint256",
          "name": "_tokens",
          "type": "uint256"
        }
      ],
      "name": "slash",
      "outputs": [],
      "stateMutability": "nonpayable",
      "type": "function"
    },
    {
      "inputs": [
        {
          "internalType": "address",
          "name": "",
          "type": "address"
        }
      ],
      "name": "slashers",
      "outputs": [
        {
          "internalType": "bool",
          "name": "",
          "type": "bool"
        }
      ],
      "stateMutability": "view",
      "type": "function"
    },
    {
      "inputs": [
        {
          "internalType": "uint256",
          "name": "_tokens",
          "type": "uint256"
        }
      ],
      "name": "stake",
      "outputs": [],
      "stateMutability": "nonpayable",
      "type": "function"
    },
    {
      "inputs": [
        {
          "internalType": "uint256",
          "name": "",
          "type": "uint256"
        }
      ],
      "name": "stakers",
      "outputs": [
        {
          "internalType": "address",
          "name": "",
          "type": "address"
        }
      ],
      "stateMutability": "view",
      "type": "function"
    },
    {
      "inputs": [
        {
          "internalType": "address",
          "name": "",
          "type": "address"
        }
      ],
      "name": "stakes",
      "outputs": [
        {
          "internalType": "uint256",
          "name": "tokensStaked",
          "type": "uint256"
        },
        {
          "internalType": "uint256",
          "name": "tokensLocked",
          "type": "uint256"
        },
        {
          "internalType": "uint256",
          "name": "tokensLockedUntil",
          "type": "uint256"
        }
      ],
      "stateMutability": "view",
      "type": "function"
    },
    {
      "inputs": [],
      "name": "token",
      "outputs": [
        {
          "internalType": "address",
          "name": "",
          "type": "address"
        }
      ],
      "stateMutability": "view",
      "type": "function"
    },
    {
      "inputs": [
        {
          "internalType": "address",
          "name": "newOwner",
          "type": "address"
        }
      ],
      "name": "transferOwnership",
      "outputs": [],
      "stateMutability": "nonpayable",
      "type": "function"
    },
    {
      "inputs": [
        {
          "internalType": "uint256",
          "name": "_tokens",
          "type": "uint256"
        }
      ],
      "name": "unstake",
      "outputs": [],
      "stateMutability": "nonpayable",
      "type": "function"
    },
    {
      "inputs": [],
      "name": "withdraw",
      "outputs": [],
      "stateMutability": "nonpayable",
      "type": "function"
    },
    {
      "inputs": [],
      "name": "withdrawFees",
      "outputs": [],
      "stateMutability": "nonpayable",
      "type": "function"
    }
  ],
  "bytecode": "0x6080346200019857601f620015a938819003918201601f191683019291906001600160401b038411838510176200019d578160809284926040968752833981010312620001985780516001600160a01b0380821692909183900362000198576020810151848201519163ffffffff83168093036200019857606001519360ff851680950362000198573315620001805760008054336001600160a01b03198083168217845592969091167f8be0079c531659141344cd1fd0a4f28419497f9722a3daafe3b4186f6b6457e08780a3600180556002541617600255620000e6811515620001b3565b600355620000f6811515620001b3565b63ffffffff196004541617600455606482116200013c578260019160ff199384600754161760075533815260096020522091825416179055516113a89081620002018239f35b825162461bcd60e51b815260206004820152601660248201527f4665652063616e6e6f74206578636565642031303025000000000000000000006044820152606490fd5b8551631e4fbdf760e01b815260006004820152602490fd5b600080fd5b634e487b7160e01b600052604160045260246000fd5b15620001bb57565b60405162461bcd60e51b815260206004820152601960248201527f4d757374206265206120706f736974697665206e756d626572000000000000006044820152606490fdfe6040608081526004908136101561001557600080fd5b600091823560e01c806314f6b19014610ec357806316934fc414610e75578063233e990314610e485780632e17de7814610cca5780633aa63c6114610a825780633ccfd60b14610a595780633fd8b02f14610a35578063476343ee1461098557806360b71d4e1461096657806363c28db11461092e57806368a9f19c14610852578063715018a61461080a5780638da5cb5b146107e2578063a001ecdd146107c0578063a5766aa614610740578063a694fc3a14610598578063aac6aa9c14610503578063b87fcbff146104c5578063ec5ffac2146104a6578063f2fde38b14610432578063f489f23b146103ed578063fc0c546a146103c0578063fd5e6dd11461037d5763ff07751d1461012957600080fd5b34610379578160031936011261037957803590602435600654918284101561033a5750816101578285611046565b1115610328575091905b61016b8184611023565b9261018d61017885611053565b9461018585519687610f90565b808652611053565b9260209182860193601f198096013686376101a88183611023565b956101ca6101b588611053565b976101c28651998a610f90565b808952611053565b01885b8181106102f4575050805b82811061026c575050508051948186019082875251809152606090606087019490885b81811061024f5750505085840383870152828086519586815201950196915b8483106102275786860387f35b875180518752808501518786015281015186820152968301969481019460019092019161021a565b82516001600160a01b0316875295850195918501916001016101fb565b806102806001929a9697989a999599610f2e565b838060a01b03809254600392831b1c166102a361029d8786611023565b8961106a565b526102ad83610f2e565b9054911b1c168652600587526102e56102d88b6102de8c8a206102d08887611023565b938491610fb3565b9261106a565b528b61106a565b500197959493979692966101d8565b9480969799958599955161030781610f5f565b8781528783820152878b82015282828d0101520198969594989793976101cd565b610333915082611046565b9190610161565b606490602086519162461bcd60e51b83528201526019602482015278537461727420696e646578206f7574206f6620626f756e647360381b6044820152fd5b8280fd5b50346103795760203660031901126103795735916006548310156103bd57506103a7602092610f2e565b905491519160018060a01b039160031b1c168152f35b80fd5b5050346103e957816003193601126103e95760025490516001600160a01b039091168152602090f35b5080fd5b8382346103e95760203660031901126103e957803563ffffffff81168091036103795761041861107e565b610423811515610fdb565b815463ffffffff191617905580f35b50346103795760203660031901126103795761044c610f13565b9061045561107e565b6001600160a01b0391821692831561049057505082546001600160a01b03198116831784551660008051602061137c8339815191528380a380f35b51631e4fbdf760e01b8152908101849052602490fd5b5050346103e957816003193601126103e9576020906003549051908152f35b5050346103e95760203660031901126103e95760209160ff9082906001600160a01b036104f0610f13565b1681526009855220541690519015158152f35b50346103795760203660031901126103795761051d610f13565b61052561107e565b6001600160a01b031680845260096020528284205490919060ff161561055a5750825260096020528120805460ff1916905580f35b606490602084519162461bcd60e51b8352820152601860248201527720b2323932b9b99034b9903737ba10309039b630b9b432b960411b6044820152fd5b509190346103e957602080600319360112610379578335916105bb831515610fdb565b338452600582528084206105e6846105e16105d584610fb3565b86815191015190611023565b611046565b600354116106ea57805415610697575b60025482516323b872dd60e01b8582015233602482015230604482015260648082018790528152906001600160a01b031660a082016001600160401b038111838210176106845784527f0a7bb2e28cc4698aac06db79cf9163bfcc20719286cf59fa7d492ceda1b8edc29493929161066d91611245565b610678858254611046565b9055519283523392a280f35b634e487b7160e01b885260418952602488fd5b600654600160401b8110156106d7578060016106b69201600655610f2e565b81546001600160a01b0360039290921b91821b19163390911b1790556105f6565b634e487b7160e01b865260418752602486fd5b815162461bcd60e51b8152808701849052602a60248201527f546f74616c207374616b652069732062656c6f7720746865206d696e696d756d604482015269081d1a1c995cda1bdb1960b21b6064820152608490fd5b50346103795760203660031901126103795780359160ff83168093036107bc5761076861107e565b6064831161078057505060ff19600754161760075580f35b906020606492519162461bcd60e51b835282015260166024820152754665652063616e6e6f7420657863656564203130302560501b6044820152fd5b8380fd5b5050346103e957816003193601126103e95760209060ff600754169051908152f35b5050346103e957816003193601126103e957905490516001600160a01b039091168152602090f35b83346103bd57806003193601126103bd5761082361107e565b80546001600160a01b03198116825581906001600160a01b031660008051602061137c8339815191528280a380f35b50346103795760203660031901126103795761086c610f13565b61087461107e565b6001600160a01b03169081156108f157818452600960205260ff83852054166108af5750825260096020528120805460ff1916600117905580f35b606490602084519162461bcd60e51b8352820152601c60248201527b20b2323932b9b99034b99030b63932b0b23c90309039b630b9b432b960211b6044820152fd5b606490602084519162461bcd60e51b83528201526017602482015276496e76616c696420736c6173686572206164647265737360481b6044820152fd5b5050346103e95760203660031901126103e95760209181906001600160a01b03610956610f13565b1681526005845220549051908152f35b5050346103e957816003193601126103e9576020906008549051908152f35b50903461037957826003193601126103795761099f61107e565b6109a76110aa565b6008549182156109fd57507fb7eeacba6b133788365610e83d3f130d07b6ef6e78877961f25b3f61fcba075291602091846008556109f18260018060a01b036002541633906111f1565b51908152a16001805580f35b6020606492519162461bcd60e51b835282015260136024820152724e6f206665657320746f20776974686472617760681b6044820152fd5b5091346103bd57806003193601126103bd575063ffffffff60209254169051908152f35b83346103bd57806003193601126103bd57610a726110aa565b610a7b336110f8565b6001805580f35b503461037957608036600319011261037957610a9c610f13565b916001600160a01b03602480358281169490859003610cc65760443595838716809703610cc2576064938435338a526020946009865260ff888c20541615610c8857610ae66110aa565b828416968715610c38578a15610bf957898c5260058752888c2091831590610b0e8215610fdb565b835497888611610bae5760ff600754169283870293878504141715610b9d5750507f71a8c830f4b619fc8248691f28f33646d6d9553a9fe6f7ba80e179fd391779ba99989693610b77989693610b6e610b8d9794610b8194048093611023565b998a8097611023565b9055600854611046565b600855600254166111f1565b8351928352820152a36001805580f35b634e487b7160e01b8f52601190528dfd5b611b9d60f21b8460226084948f8e90519562461bcd60e51b87528601528401527f536c61736820616d6f756e742065786365656473207374616b656420616d6f756044840152820152fd5b885162461bcd60e51b8152808701889052601e818401527f4d75737420626520612076616c696420657363726f77206164647265737300006044820152fd5b666164647265737360c81b869160276084948a8d519562461bcd60e51b87528601528401527f4d75737420626520612076616c696420736c61736820726571756573746572206044840152820152fd5b8460178892888b519362461bcd60e51b85528401528201527621b0b63632b91034b9903737ba10309039b630b9b432b960491b6044820152fd5b8780fd5b8680fd5b509034610379576020806003193601126107bc578235610ce86110aa565b610cf3811515610fdb565b338552600582528285209060018201948554158015610e3a575b15610de85781610d1f6105d585610fb3565b10610da55791610d807fa5ae833d0bb1dcd632d98a8b70973e8516812898e19bf27b70071ebc8dc52c01959492610d7763ffffffff600296610d68610d6387610fb3565b6110cd565b610d97575b5416918954611046565b80985543611046565b928391015582519485528401523392a26001805580f35b610da0336110f8565b610d6d565b845162461bcd60e51b8152908101849052601e60248201527f496e73756666696369656e7420616d6f756e7420746f20756e7374616b6500006044820152606490fd5b845162461bcd60e51b8152908101849052602660248201527f556e7374616b6520696e2070726f67726573732c20636f6d706c65746520697460448201526508199a5c9cdd60d21b6064820152608490fd5b506002830154431015610d0d565b8382346103e95760203660031901126103e95735610e6461107e565b610e6f811515610fdb565b60035580f35b5050346103e95760203660031901126103e95760609181906001600160a01b03610e9d610f13565b168152600560205220805491600260018301549201549181519384526020840152820152f35b5050346103e95760203660031901126103e957602091610f0c90610f009083906001600160a01b03610ef3610f13565b1681526005865220610fb3565b83815191015190611023565b9051908152f35b600435906001600160a01b0382168203610f2957565b600080fd5b600654811015610f4957600660005260206000200190600090565b634e487b7160e01b600052603260045260246000fd5b606081019081106001600160401b03821117610f7a57604052565b634e487b7160e01b600052604160045260246000fd5b601f909101601f19168101906001600160401b03821190821017610f7a57604052565b90604051610fc081610f5f565b60406002829480548452600181015460208501520154910152565b15610fe257565b60405162461bcd60e51b815260206004820152601960248201527826bab9ba1031329030903837b9b4ba34bb3290373ab6b132b960391b6044820152606490fd5b9190820391821161103057565b634e487b7160e01b600052601160045260246000fd5b9190820180921161103057565b6001600160401b038111610f7a5760051b60200190565b8051821015610f495760209160051b010190565b6000546001600160a01b0316330361109257565b60405163118cdaa760e01b8152336004820152602490fd5b6002600154146110bb576002600155565b604051633ee5aeb560e01b8152600490fd5b604081015180159081156110ee575b506110e8576020015190565b50600090565b90504310386110dc565b6001600160a01b03818116600081815260056020526040902090929190611121610d6382610fb3565b9081159081156111c6575b5061116c57611163817f8108595eb6bad3acefa9da467d90cc2217686d5c5ac85460f8b7849c840645fc94602094600254166111f1565b604051908152a2565b60405162461bcd60e51b815260206004820152602c60248201527f5374616b6520686173206e6f20617661696c61626c6520746f6b656e7320666f60448201526b1c881dda5d1a191c985dd85b60a21b6064820152608490fd5b600181016111d5848254611023565b9055600060028201556111e9838254611023565b90553861112c565b60405163a9059cbb60e01b60208201526001600160a01b039283166024820152604480820194909452928352608083019291906001600160401b03841183851017610f7a576112439360405216611245565b565b60018060a01b031690600080826020829451910182865af13d1561130c573d906001600160401b0382116112f857906112a091604051916112906020601f19601f8401160184610f90565b82523d84602084013e5b84611318565b9081519182151592836112d0575b5050506112b85750565b60249060405190635274afe760e01b82526004820152fd5b8192935090602091810103126103e95760200151908115918215036103bd57503880806112ae565b634e487b7160e01b83526041600452602483fd5b6112a09060609061129a565b9061133f575080511561132d57805190602001fd5b604051630a12f52160e11b8152600490fd5b81511580611372575b611350575090565b604051639996b31560e01b81526001600160a01b039091166004820152602490fd5b50803b1561134856fe8be0079c531659141344cd1fd0a4f28419497f9722a3daafe3b4186f6b6457e0a164736f6c6343000817000a",
  "linkReferences": {},
  "deployedLinkReferences": {}
}