{
  "_format": "hh-sol-artifact-1",
  "contractName": "VHMToken",
  "sourceName": "contracts/governance/vhm-token/VHMToken.sol",
  "abi": [
    {
      "inputs": [
        {
          "internalType": "contract IERC20",
          "name": "wrappedToken",
          "type": "address"
        }
      ],
      "stateMutability": "nonpayable",
      "type": "constructor"
    },
    {
      "inputs": [
        {
          "internalType": "address",
          "name": "target",
          "type": "address"
        }
      ],
      "name": "AddressEmptyCode",
      "type": "error"
    },
    {
      "inputs": [
        {
          "internalType": "address",
          "name": "account",
          "type": "address"
        }
      ],
      "name": "AddressInsufficientBalance",
      "type": "error"
    },
    {
      "inputs": [],
      "name": "CheckpointUnorderedInsertion",
      "type": "error"
    },
    {
      "inputs": [],
      "name": "ECDSAInvalidSignature",
      "type": "error"
    },
    {
      "inputs": [
        {
          "internalType": "uint256",
          "name": "length",
          "type": "uint256"
        }
      ],
      "name": "ECDSAInvalidSignatureLength",
      "type": "error"
    },
    {
      "inputs": [
        {
          "internalType": "bytes32",
          "name": "s",
          "type": "bytes32"
        }
      ],
      "name": "ECDSAInvalidSignatureS",
      "type": "error"
    },
    {
      "inputs": [
        {
          "internalType": "uint256",
          "name": "increasedSupply",
          "type": "uint256"
        },
        {
          "internalType": "uint256",
          "name": "cap",
          "type": "uint256"
        }
      ],
      "name": "ERC20ExceededSafeSupply",
      "type": "error"
    },
    {
      "inputs": [
        {
          "internalType": "address",
          "name": "spender",
          "type": "address"
        },
        {
          "internalType": "uint256",
          "name": "allowance",
          "type": "uint256"
        },
        {
          "internalType": "uint256",
          "name": "needed",
          "type": "uint256"
        }
      ],
      "name": "ERC20InsufficientAllowance",
      "type": "error"
    },
    {
      "inputs": [
        {
          "internalType": "address",
          "name": "sender",
          "type": "address"
        },
        {
          "internalType": "uint256",
          "name": "balance",
          "type": "uint256"
        },
        {
          "internalType": "uint256",
          "name": "needed",
          "type": "uint256"
        }
      ],
      "name": "ERC20InsufficientBalance",
      "type": "error"
    },
    {
      "inputs": [
        {
          "internalType": "address",
          "name": "approver",
          "type": "address"
        }
      ],
      "name": "ERC20InvalidApprover",
      "type": "error"
    },
    {
      "inputs": [
        {
          "internalType": "address",
          "name": "receiver",
          "type": "address"
        }
      ],
      "name": "ERC20InvalidReceiver",
      "type": "error"
    },
    {
      "inputs": [
        {
          "internalType": "address",
          "name": "sender",
          "type": "address"
        }
      ],
      "name": "ERC20InvalidSender",
      "type": "error"
    },
    {
      "inputs": [
        {
          "internalType": "address",
          "name": "spender",
          "type": "address"
        }
      ],
      "name": "ERC20InvalidSpender",
      "type": "error"
    },
    {
      "inputs": [
        {
          "internalType": "address",
          "name": "token",
          "type": "address"
        }
      ],
      "name": "ERC20InvalidUnderlying",
      "type": "error"
    },
    {
      "inputs": [
        {
          "internalType": "uint256",
          "name": "deadline",
          "type": "uint256"
        }
      ],
      "name": "ERC2612ExpiredSignature",
      "type": "error"
    },
    {
      "inputs": [
        {
          "internalType": "address",
          "name": "signer",
          "type": "address"
        },
        {
          "internalType": "address",
          "name": "owner",
          "type": "address"
        }
      ],
      "name": "ERC2612InvalidSigner",
      "type": "error"
    },
    {
      "inputs": [
        {
          "internalType": "uint256",
          "name": "timepoint",
          "type": "uint256"
        },
        {
          "internalType": "uint48",
          "name": "clock",
          "type": "uint48"
        }
      ],
      "name": "ERC5805FutureLookup",
      "type": "error"
    },
    {
      "inputs": [],
      "name": "ERC6372InconsistentClock",
      "type": "error"
    },
    {
      "inputs": [],
      "name": "FailedInnerCall",
      "type": "error"
    },
    {
      "inputs": [
        {
          "internalType": "address",
          "name": "account",
          "type": "address"
        },
        {
          "internalType": "uint256",
          "name": "currentNonce",
          "type": "uint256"
        }
      ],
      "name": "InvalidAccountNonce",
      "type": "error"
    },
    {
      "inputs": [],
      "name": "InvalidShortString",
      "type": "error"
    },
    {
      "inputs": [
        {
          "internalType": "uint8",
          "name": "bits",
          "type": "uint8"
        },
        {
          "internalType": "uint256",
          "name": "value",
          "type": "uint256"
        }
      ],
      "name": "SafeCastOverflowedUintDowncast",
      "type": "error"
    },
    {
      "inputs": [
        {
          "internalType": "address",
          "name": "token",
          "type": "address"
        }
      ],
      "name": "SafeERC20FailedOperation",
      "type": "error"
    },
    {
      "inputs": [
        {
          "internalType": "string",
          "name": "str",
          "type": "string"
        }
      ],
      "name": "StringTooLong",
      "type": "error"
    },
    {
      "inputs": [
        {
          "internalType": "uint256",
          "name": "expiry",
          "type": "uint256"
        }
      ],
      "name": "VotesExpiredSignature",
      "type": "error"
    },
    {
      "anonymous": false,
      "inputs": [
        {
          "indexed": true,
          "internalType": "address",
          "name": "owner",
          "type": "address"
        },
        {
          "indexed": true,
          "internalType": "address",
          "name": "spender",
          "type": "address"
        },
        {
          "indexed": false,
          "internalType": "uint256",
          "name": "value",
          "type": "uint256"
        }
      ],
      "name": "Approval",
      "type": "event"
    },
    {
      "anonymous": false,
      "inputs": [
        {
          "indexed": true,
          "internalType": "address",
          "name": "delegator",
          "type": "address"
        },
        {
          "indexed": true,
          "internalType": "address",
          "name": "fromDelegate",
          "type": "address"
        },
        {
          "indexed": true,
          "internalType": "address",
          "name": "toDelegate",
          "type": "address"
        }
      ],
      "name": "DelegateChanged",
      "type": "event"
    },
    {
      "anonymous": false,
      "inputs": [
        {
          "indexed": true,
          "internalType": "address",
          "name": "delegate",
          "type": "address"
        },
        {
          "indexed": false,
          "internalType": "uint256",
          "name": "previousVotes",
          "type": "uint256"
        },
        {
          "indexed": false,
          "internalType": "uint256",
          "name": "newVotes",
          "type": "uint256"
        }
      ],
      "name": "DelegateVotesChanged",
      "type": "event"
    },
    {
      "anonymous": false,
      "inputs": [],
      "name": "EIP712DomainChanged",
      "type": "event"
    },
    {
      "anonymous": false,
      "inputs": [
        {
          "indexed": true,
          "internalType": "address",
          "name": "from",
          "type": "address"
        },
        {
          "indexed": true,
          "internalType": "address",
          "name": "to",
          "type": "address"
        },
        {
          "indexed": false,
          "internalType": "uint256",
          "name": "value",
          "type": "uint256"
        }
      ],
      "name": "Transfer",
      "type": "event"
    },
    {
      "inputs": [],
      "name": "CLOCK_MODE",
      "outputs": [
        {
          "internalType": "string",
          "name": "",
          "type": "string"
        }
      ],
      "stateMutability": "pure",
      "type": "function"
    },
    {
      "inputs": [],
      "name": "DOMAIN_SEPARATOR",
      "outputs": [
        {
          "internalType": "bytes32",
          "name": "",
          "type": "bytes32"
        }
      ],
      "stateMutability": "view",
      "type": "function"
    },
    {
      "inputs": [
        {
          "internalType": "address",
          "name": "owner",
          "type": "address"
        },
        {
          "internalType": "address",
          "name": "spender",
          "type": "address"
        }
      ],
      "name": "allowance",
      "outputs": [
        {
          "internalType": "uint256",
          "name": "",
          "type": "uint256"
        }
      ],
      "stateMutability": "view",
      "type": "function"
    },
    {
      "inputs": [
        {
          "internalType": "address",
          "name": "spender",
          "type": "address"
        },
        {
          "internalType": "uint256",
          "name": "value",
          "type": "uint256"
        }
      ],
      "name": "approve",
      "outputs": [
        {
          "internalType": "bool",
          "name": "",
          "type": "bool"
        }
      ],
      "stateMutability": "nonpayable",
      "type": "function"
    },
    {
      "inputs": [
        {
          "internalType": "address",
          "name": "account",
          "type": "address"
        }
      ],
      "name": "balanceOf",
      "outputs": [
        {
          "internalType": "uint256",
          "name": "",
          "type": "uint256"
        }
      ],
      "stateMutability": "view",
      "type": "function"
    },
    {
      "inputs": [
        {
          "internalType": "address",
          "name": "account",
          "type": "address"
        },
        {
          "internalType": "uint32",
          "name": "pos",
          "type": "uint32"
        }
      ],
      "name": "checkpoints",
      "outputs": [
        {
          "components": [
            {
              "internalType": "uint48",
              "name": "_key",
              "type": "uint48"
            },
            {
              "internalType": "uint208",
              "name": "_value",
              "type": "uint208"
            }
          ],
          "internalType": "struct Checkpoints.Checkpoint208",
          "name": "",
          "type": "tuple"
        }
      ],
      "stateMutability": "view",
      "type": "function"
    },
    {
      "inputs": [],
      "name": "clock",
      "outputs": [
        {
          "internalType": "uint48",
          "name": "",
          "type": "uint48"
        }
      ],
      "stateMutability": "view",
      "type": "function"
    },
    {
      "inputs": [],
      "name": "decimals",
      "outputs": [
        {
          "internalType": "uint8",
          "name": "",
          "type": "uint8"
        }
      ],
      "stateMutability": "view",
      "type": "function"
    },
    {
      "inputs": [
        {
          "internalType": "address",
          "name": "delegatee",
          "type": "address"
        }
      ],
      "name": "delegate",
      "outputs": [],
      "stateMutability": "nonpayable",
      "type": "function"
    },
    {
      "inputs": [
        {
          "internalType": "address",
          "name": "delegatee",
          "type": "address"
        },
        {
          "internalType": "uint256",
          "name": "nonce",
          "type": "uint256"
        },
        {
          "internalType": "uint256",
          "name": "expiry",
          "type": "uint256"
        },
        {
          "internalType": "uint8",
          "name": "v",
          "type": "uint8"
        },
        {
          "internalType": "bytes32",
          "name": "r",
          "type": "bytes32"
        },
        {
          "internalType": "bytes32",
          "name": "s",
          "type": "bytes32"
        }
      ],
      "name": "delegateBySig",
      "outputs": [],
      "stateMutability": "nonpayable",
      "type": "function"
    },
    {
      "inputs": [
        {
          "internalType": "address",
          "name": "account",
          "type": "address"
        }
      ],
      "name": "delegates",
      "outputs": [
        {
          "internalType": "address",
          "name": "",
          "type": "address"
        }
      ],
      "stateMutability": "view",
      "type": "function"
    },
    {
      "inputs": [
        {
          "internalType": "address",
          "name": "account",
          "type": "address"
        },
        {
          "internalType": "uint256",
          "name": "value",
          "type": "uint256"
        }
      ],
      "name": "depositFor",
      "outputs": [
        {
          "internalType": "bool",
          "name": "",
          "type": "bool"
        }
      ],
      "stateMutability": "nonpayable",
      "type": "function"
    },
    {
      "inputs": [],
      "name": "eip712Domain",
      "outputs": [
        {
          "internalType": "bytes1",
          "name": "fields",
          "type": "bytes1"
        },
        {
          "internalType": "string",
          "name": "name",
          "type": "string"
        },
        {
          "internalType": "string",
          "name": "version",
          "type": "string"
        },
        {
          "internalType": "uint256",
          "name": "chainId",
          "type": "uint256"
        },
        {
          "internalType": "address",
          "name": "verifyingContract",
          "type": "address"
        },
        {
          "internalType": "bytes32",
          "name": "salt",
          "type": "bytes32"
        },
        {
          "internalType": "uint256[]",
          "name": "extensions",
          "type": "uint256[]"
        }
      ],
      "stateMutability": "view",
      "type": "function"
    },
    {
      "inputs": [
        {
          "internalType": "uint256",
          "name": "timepoint",
          "type": "uint256"
        }
      ],
      "name": "getPastTotalSupply",
      "outputs": [
        {
          "internalType": "uint256",
          "name": "",
          "type": "uint256"
        }
      ],
      "stateMutability": "view",
      "type": "function"
    },
    {
      "inputs": [
        {
          "internalType": "address",
          "name": "account",
          "type": "address"
        },
        {
          "internalType": "uint256",
          "name": "timepoint",
          "type": "uint256"
        }
      ],
      "name": "getPastVotes",
      "outputs": [
        {
          "internalType": "uint256",
          "name": "",
          "type": "uint256"
        }
      ],
      "stateMutability": "view",
      "type": "function"
    },
    {
      "inputs": [
        {
          "internalType": "address",
          "name": "account",
          "type": "address"
        }
      ],
      "name": "getVotes",
      "outputs": [
        {
          "internalType": "uint256",
          "name": "",
          "type": "uint256"
        }
      ],
      "stateMutability": "view",
      "type": "function"
    },
    {
      "inputs": [],
      "name": "name",
      "outputs": [
        {
          "internalType": "string",
          "name": "",
          "type": "string"
        }
      ],
      "stateMutability": "view",
      "type": "function"
    },
    {
      "inputs": [
        {
          "internalType": "address",
          "name": "owner",
          "type": "address"
        }
      ],
      "name": "nonces",
      "outputs": [
        {
          "internalType": "uint256",
          "name": "",
          "type": "uint256"
        }
      ],
      "stateMutability": "view",
      "type": "function"
    },
    {
      "inputs": [
        {
          "internalType": "address",
          "name": "account",
          "type": "address"
        }
      ],
      "name": "numCheckpoints",
      "outputs": [
        {
          "internalType": "uint32",
          "name": "",
          "type": "uint32"
        }
      ],
      "stateMutability": "view",
      "type": "function"
    },
    {
      "inputs": [
        {
          "internalType": "address",
          "name": "owner",
          "type": "address"
        },
        {
          "internalType": "address",
          "name": "spender",
          "type": "address"
        },
        {
          "internalType": "uint256",
          "name": "value",
          "type": "uint256"
        },
        {
          "internalType": "uint256",
          "name": "deadline",
          "type": "uint256"
        },
        {
          "internalType": "uint8",
          "name": "v",
          "type": "uint8"
        },
        {
          "internalType": "bytes32",
          "name": "r",
          "type": "bytes32"
        },
        {
          "internalType": "bytes32",
          "name": "s",
          "type": "bytes32"
        }
      ],
      "name": "permit",
      "outputs": [],
      "stateMutability": "nonpayable",
      "type": "function"
    },
    {
      "inputs": [],
      "name": "symbol",
      "outputs": [
        {
          "internalType": "string",
          "name": "",
          "type": "string"
        }
      ],
      "stateMutability": "view",
      "type": "function"
    },
    {
      "inputs": [],
      "name": "totalSupply",
      "outputs": [
        {
          "internalType": "uint256",
          "name": "",
          "type": "uint256"
        }
      ],
      "stateMutability": "view",
      "type": "function"
    },
    {
      "inputs": [
        {
          "internalType": "address",
          "name": "to",
          "type": "address"
        },
        {
          "internalType": "uint256",
          "name": "value",
          "type": "uint256"
        }
      ],
      "name": "transfer",
      "outputs": [
        {
          "internalType": "bool",
          "name": "",
          "type": "bool"
        }
      ],
      "stateMutability": "nonpayable",
      "type": "function"
    },
    {
      "inputs": [
        {
          "internalType": "address",
          "name": "from",
          "type": "address"
        },
        {
          "internalType": "address",
          "name": "to",
          "type": "address"
        },
        {
          "internalType": "uint256",
          "name": "value",
          "type": "uint256"
        }
      ],
      "name": "transferFrom",
      "outputs": [
        {
          "internalType": "bool",
          "name": "",
          "type": "bool"
        }
      ],
      "stateMutability": "nonpayable",
      "type": "function"
    },
    {
      "inputs": [],
      "name": "underlying",
      "outputs": [
        {
          "internalType": "contract IERC20",
          "name": "",
          "type": "address"
        }
      ],
      "stateMutability": "view",
      "type": "function"
    },
    {
      "inputs": [
        {
          "internalType": "address",
          "name": "account",
          "type": "address"
        },
        {
          "internalType": "uint256",
          "name": "value",
          "type": "uint256"
        }
      ],
      "name": "withdrawTo",
      "outputs": [
        {
          "internalType": "bool",
          "name": "",
          "type": "bool"
        }
      ],
      "stateMutability": "nonpayable",
      "type": "function"
    }
  ],
  "bytecode": "0x610180346200051857601f62002bfb38819003918201601f19168301916001600160401b03831184841017620002eb578084926020946040528339810103126200051857516001600160a01b0381168103620005185760405162000063816200051d565b60088152673b2426aa37b5b2b760c11b908160208201526040519162000089836200051d565b60088352602083015260405192620000a1846200051d565b60048452631d92135560e21b602085015260405192620000c1846200051d565b60018452603160f81b60208501528051906001600160401b038211620002eb5760035490600182811c921680156200050d575b6020831014620003e05781601f84931162000498575b50602090601f83116001146200040d5760009262000401575b50508160011b916000199060031b1c1916176003555b83516001600160401b038111620002eb57600454600181811c91168015620003f6575b6020821014620003e057601f81116200037a575b50602094601f82116001146200030d5794819293949560009262000301575b50508160011b916000199060031b1c1916176004555b620001b08262000539565b91610120928352620001c284620006fd565b9061014091825260208151910120938460e0526020815191012093610100948086524660a0526040519060208201927f8b73c3c69bb8fe3d512ecc4cf759cc79239f7b179b0ffacaa9a75d522b39400f8452604083015260608201524660808201523060a082015260a0815260c081019181831060018060401b03841117620002eb576040839052815190206080523060c08190526001600160a01b03851614620002d5575050610160918252604051926123459485620008b6863960805185611315015260a051856113d0015260c051856112df015260e051856113640152518461138a015251836108e40152518261090e0152518181816103e201528181610542015281816107d501526112610152f35b6024925063438d6fe360e01b825260c430910152fd5b634e487b7160e01b600052604160045260246000fd5b0151905038806200018f565b601f19821695600460005260206000209160005b888110620003615750836001959697981062000347575b505050811b01600455620001a5565b015160001960f88460031b161c1916905538808062000338565b9192602060018192868501518155019401920162000321565b60046000527f8a35acfbc15ff81a39ae7d344fd709f28e8600b4aa8c65c6b64bfe7fe36bd19b601f830160051c810160208410620003d8575b601f830160051c82018110620003cb57505062000170565b60008155600101620003b3565b5080620003b3565b634e487b7160e01b600052602260045260246000fd5b90607f16906200015c565b01519050388062000123565b600360009081527fc2575a0e9e593c00f959f8c92f12db2869c3395a3b0502d05e2516446f71f85b9350601f198516905b8181106200047f575090846001959493921062000465575b505050811b0160035562000139565b015160001960f88460031b161c1916905538808062000456565b929360206001819287860151815501950193016200043e565b60036000529091507fc2575a0e9e593c00f959f8c92f12db2869c3395a3b0502d05e2516446f71f85b601f840160051c8101916020851062000502575b90601f859493920160051c01905b818110620004f257506200010a565b60008155849350600101620004e3565b9091508190620004d5565b91607f1691620000f4565b600080fd5b604081019081106001600160401b03821117620002eb57604052565b80516020919082811015620005d8575090601f8251116200057757808251920151908083106200056857501790565b82600019910360031b1b161790565b90604051809263305a27a960e01b82528060048301528251908160248401526000935b828510620005be575050604492506000838284010152601f80199101168101030190fd5b84810182015186860160440152938101938593506200059a565b6001600160401b038111620002eb576005928354926001938481811c91168015620006f2575b83821014620003e057601f8111620006bb575b5081601f841160011462000651575092829391839260009462000645575b50501b916000199060031b1c191617905560ff90565b0151925038806200062f565b919083601f1981168760005284600020946000905b88838310620006a0575050501062000686575b505050811b01905560ff90565b015160001960f88460031b161c1916905538808062000679565b85870151885590960195948501948793509081019062000666565b8560005284601f846000209201871c820191601f8601881c015b828110620006e557505062000611565b60008155018590620006d5565b90607f1690620005fe565b8051602090818110156200078b5750601f8251116200072a57808251920151908083106200056857501790565b90604051809263305a27a960e01b82528060048301528251908160248401526000935b82851062000771575050604492506000838284010152601f80199101168101030190fd5b84810182015186860160440152938101938593506200074d565b906001600160401b038211620002eb57600654926001938481811c91168015620008aa575b83821014620003e057601f811162000870575b5081601f8411600114620008045750928293918392600094620007f8575b50501b916000199060031b1c19161760065560ff90565b015192503880620007e1565b919083601f198116600660005284600020946000905b888383106200085557505050106200083b575b505050811b0160065560ff90565b015160001960f88460031b161c191690553880806200082d565b8587015188559096019594850194879350908101906200081a565b600660005284601f84600020920160051c820191601f860160051c015b8281106200089d575050620007c3565b600081550185906200088d565b90607f1690620007b056fe6080604052600436101561001257600080fd5b60003560e01c806306fdde03146101b7578063095ea7b3146101b257806318160ddd146101ad578063205c2878146101a857806323b872dd146101a35780632f4f21e21461019e578063313ce567146101995780633644e515146101945780633a46b1a81461018f5780634bf5d7e91461018a578063587cde1e146101855780635c19a95c146101805780636f307dc31461017b5780636fcfff451461017657806370a08231146101715780637ecebe001461016c57806384b0196e146101675780638e539e8c1461016257806391ddadf41461015d57806395d89b41146101585780639ab24eb014610153578063a9059cbb1461014e578063c3cda52014610149578063d505accf14610144578063dd62ed3e1461013f5763f1127ed81461013a57600080fd5b610e1a565b610dce565b610c97565b610bca565b610b99565b610b50565b610ac4565b610aa1565b6109c4565b6108c9565b61088f565b61086c565b610804565b6107bf565b61079b565b610760565b610711565b6105e5565b6105c2565b61059c565b610500565b610462565b610352565b610334565b610303565b610210565b919082519283825260005b8481106101e8575050826000602080949584010152601f8019910116010190565b6020818301810151848301820152016101c7565b90602061020d9281815201906101bc565b90565b346102d2576000806003193601126102cf576040518160035461023281610eaf565b908184526020926001916001811690816000146102ad5750600114610272575b61026e8561026281890382610f70565b604051918291826101fc565b0390f35b929450600383528483205b82841061029a575050508161026e93610262928201019338610252565b805485850187015292850192810161027d565b60ff191686860152505050151560051b82010191506102628161026e38610252565b80fd5b600080fd5b600435906001600160a01b03821682036102d257565b602435906001600160a01b03821682036102d257565b346102d25760403660031901126102d25761032961031f6102d7565b60243590336115bd565b602060405160018152f35b346102d25760003660031901126102d2576020600254604051908152f35b346102d2576040806003193601126102d25761036c6102d7565b906024356001600160a01b03831630811461044b575033156104335761039133610f93565b549281841061041057816104069394036103aa33610f93565b556103b88260025403600255565b835182815260009033906000805160206122f983398151915290602090a36103e08233611e5e565b7f0000000000000000000000000000000000000000000000000000000000000000611071565b5160018152602090f35b50815163391434e360e21b815290819061042f9085336004850161109d565b0390fd5b8151634b637e8f60e11b815260006004820152602490fd5b60249083519063ec442f0560e01b82526004820152fd5b346102d25760603660031901126102d25761047b6102d7565b6104836102ed565b6044359060018060a01b03831660005260016020526104a6336040600020610fe1565b5492600184016104c7575b6104bb93506110bb565b60405160018152602090f35b8284106104e3576104de836104bb9503338361164c565b6104b1565b604051637dc7a0d960e11b81528061042f8587336004850161109d565b346102d25760403660031901126102d2576105196102d7565b602435303314610584576001600160a01b0382169130831461056b576104bb92506105668230337f0000000000000000000000000000000000000000000000000000000000000000611179565b6111bb565b60405163ec442f0560e01b815260048101849052602490fd5b604051634b637e8f60e11b8152306004820152602490fd5b346102d25760003660031901126102d25760206105b761124c565b60ff60405191168152f35b346102d25760003660031901126102d25760206105dd6112dc565b604051908152f35b346102d25760403660031901126102d2576105fe6102d7565b65ffffffffffff90602435428316808210156106ea575060009160018060a01b03168252600960205261063460408320916113f6565b9281549383918560058111610692575b5050936106559161026e9584611900565b806106775750505b6040516001600160d01b0390911681529081906020820190565b916106846020929361143e565b92815220015460301c61065d565b61069e81949294611758565b81039081116106e55761026e9661065594868852808360208a20015416908516106000146106d35750915b9195819350610644565b9291506106df9061144d565b906106c9565b611428565b604051637669fc0f60e11b8152600481019290925265ffffffffffff166024820152604490fd5b346102d25760003660031901126102d25761026e60405161073181610eff565b600e81526d06d6f64653d74696d657374616d760941b60208201526040519182916020835260208301906101bc565b346102d25760203660031901126102d25760206001600160a01b03806107846102d7565b166000526008825260406000205416604051908152f35b346102d25760203660031901126102d2576107bd6107b76102d7565b3361145b565b005b346102d25760003660031901126102d2576040517f00000000000000000000000000000000000000000000000000000000000000006001600160a01b03168152602090f35b346102d25760203660031901126102d2576001600160a01b036108256102d7565b16600052600960205260406000205463ffffffff9081811161084d5760209160405191168152f35b604490604051906306dfcc6560e41b8252602060048301526024820152fd5b346102d25760203660031901126102d25760206105dd61088a6102d7565b611022565b346102d25760203660031901126102d2576001600160a01b036108b06102d7565b1660005260076020526020604060002054604051908152f35b346102d2576000806003193601126102cf57610967906109087f0000000000000000000000000000000000000000000000000000000000000000611a70565b906109327f0000000000000000000000000000000000000000000000000000000000000000611b4d565b906040519161094083610f1f565b818352610975602091604051968796600f60f81b885260e0602089015260e08801906101bc565b9086820360408801526101bc565b904660608601523060808601528260a086015284820360c0860152602080855193848152019401925b8281106109ad57505050500390f35b83518552869550938101939281019260010161099e565b346102d25760203660031901126102d25765ffffffffffff600435428216808210156106ea57506109f4906113f6565b600a54906000908260058111610a4b575b50610a109350611898565b80610a2d5750602060005b6040516001600160d01b039091168152f35b610a3860209161143e565b600a60005281600020015460301c610a1b565b9092610a5682611758565b82039182116106e557600a6000526000805160206122b9833981519152820154610a10959081169085161015610a8f5750915b38610a05565b929150610a9b9061144d565b90610a89565b346102d25760003660031901126102d257602060405165ffffffffffff42168152f35b346102d2576000806003193601126102cf5760405181600454610ae681610eaf565b908184526020926001916001811690816000146102ad5750600114610b155761026e8561026281890382610f70565b929450600483528483205b828410610b3d575050508161026e93610262928201019338610252565b8054858501870152928501928101610b20565b346102d25760203660031901126102d2576001600160a01b03610b716102d7565b166000526009602052602060018060d01b03610b906040600020611500565b16604051908152f35b346102d25760403660031901126102d257610329610bb56102d7565b60243590336110bb565b60ff8116036102d257565b346102d25760c03660031901126102d257610be36102d7565b60443590602435606435610bf681610bbf565b834211610c7e57610c726107bd94610c79926040519060208201927fe48329057bfd03d55e49b547132e39cffd9c1820ad7b9d4c5307691425d15adf845260018060a01b0388166040840152866060840152608083015260808252610c5a82610f3a565b610c6d60a435936084359351902061152c565b611552565b918261156a565b61145b565b604051632341d78760e11b815260048101859052602490fd5b346102d25760e03660031901126102d257610cb06102d7565b610cb86102ed565b60443590606435608435610ccb81610bbf565b814211610db55790610d4d610d6e92610d5b610ce68861159a565b604080517f6e71edae12b1b97f4d1f60370fef10105fa2faae0126114a169c64845d6126c9602082019081526001600160a01b03808d16938301939093529189166060820152608081018a905260a081019290925260c082019590955292839060e0820190565b03601f198101845283610f70565b610c6d60c4359360a4359351902061152c565b6001600160a01b0384811690821603610d8b57506107bd926115bd565b6040516325c0072360e11b81526001600160a01b0391821660048201529084166024820152604490fd5b60405163313c898160e11b815260048101839052602490fd5b346102d25760403660031901126102d2576020610e11610dec6102d7565b610df46102ed565b6001600160a01b0390911660009081526001845260409020610fe1565b54604051908152f35b346102d25760403660031901126102d257610e336102d7565b60243563ffffffff811681036102d257610e83610e8991604093610e5561103d565b50610e5e61103d565b506001600160a01b031660009081526009602052849020610e7d61103d565b50611d20565b50611d5d565b8151815165ffffffffffff1681526020918201516001600160d01b031691810191909152f35b90600182811c92168015610edf575b6020831014610ec957565b634e487b7160e01b600052602260045260246000fd5b91607f1691610ebe565b634e487b7160e01b600052604160045260246000fd5b604081019081106001600160401b03821117610f1a57604052565b610ee9565b602081019081106001600160401b03821117610f1a57604052565b60a081019081106001600160401b03821117610f1a57604052565b60c081019081106001600160401b03821117610f1a57604052565b601f909101601f19168101906001600160401b03821190821017610f1a57604052565b6001600160a01b0316600090815260208190526040902090565b6001600160a01b0316600090815260016020526040902090565b6001600160a01b0316600090815260096020526040902090565b9060018060a01b0316600052602052604060002090565b6040519061100582610eff565b565b6001600160401b038111610f1a57601f01601f191660200190565b6001600160a01b031660009081526020819052604090205490565b6040519061104a82610eff565b60006020838281520152565b6001600160a01b039091168152602081019190915260400190565b6110986110059392610d4d60405194859263a9059cbb60e01b602085015260248401611056565b61168b565b604091949392606082019560018060a01b0316825260208201520152565b6001600160a01b03808216949392919085156111605782168015611147576110e282610f93565b549584871061112a57846110059697036110fb84610f93565b5561110584610f93565b8054860190556040518581526000805160206122f983398151915290602090a3611f2d565b60405163391434e360e21b81528061042f878a876004850161109d565b60405163ec442f0560e01b815260006004820152602490fd5b604051634b637e8f60e11b815260006004820152602490fd5b6040516323b872dd60e01b60208201526001600160a01b0392831660248201529290911660448301526064808301939093529181526110059161109882610f3a565b91906001600160a01b0383168015611147576002548281018091116106e5576002556111e684610f93565b8054830190556040518281526000906000805160206122f983398151915290602090a3600254926001600160d01b03841161122657611005929350611ecb565b604051630e58ae9360e11b8152600481018590526001600160d01b036024820152604490fd5b60405163313ce56760e01b81526020816004817f00000000000000000000000000000000000000000000000000000000000000006001600160a01b03165afa6000918161129f575b5061020d5750601290565b9091506020813d6020116112d4575b816112bb60209383610f70565b810103126102d257516112cd81610bbf565b9038611294565b3d91506112ae565b307f00000000000000000000000000000000000000000000000000000000000000006001600160a01b031614806113cd575b15611337577f000000000000000000000000000000000000000000000000000000000000000090565b60405160208101907f8b73c3c69bb8fe3d512ecc4cf759cc79239f7b179b0ffacaa9a75d522b39400f82527f000000000000000000000000000000000000000000000000000000000000000060408201527f000000000000000000000000000000000000000000000000000000000000000060608201524660808201523060a082015260a081526113c781610f55565b51902090565b507f0000000000000000000000000000000000000000000000000000000000000000461461130e565b65ffffffffffff90818111611409571690565b604490604051906306dfcc6560e41b8252603060048301526024820152fd5b634e487b7160e01b600052601160045260246000fd5b6000198101919082116106e557565b90600182018092116106e557565b6001600160a01b03818116600081815260086020526040812080548685166001600160a01b031982168117909255611005969416946114c29390928691907f3134e8a2e6d97e929a7e54011ea5485d7d196dd5f0ba4d4ef95803e8e3fc257f9080a4611022565b91611961565b600a54806114d65750600090565b6000199080828101116106e557600a600052016000805160206122b9833981519152015460301c90565b80548061150e575050600090565b6000199181838101116106e557600052602060002001015460301c90565b6042906115376112dc565b906040519161190160f01b8352600283015260228201522090565b9161020d939161156193611bed565b90929192611c93565b6115738161159a565b80920361157e575050565b61042f6040519283926301d4b62360e61b845260048401611056565b6001600160a01b0316600090815260076020526040902080546001810190915590565b6001600160a01b03808216929190831561163357821693841561161a57806116107f8c5be1e5ebec7d5bd14f71427d1e84f3dd0314c0f7b2291e5b200ac8c7c3b9259461160b602095610fad565b610fe1565b55604051908152a3565b604051634a1406b160e11b815260006004820152602490fd5b60405163e602df0560e01b815260006004820152602490fd5b906001600160a01b03808316156116335781161561161a5761160b61167092610fad565b55565b908160209103126102d2575180151581036102d25790565b6000806116d59260018060a01b03169360208151910182865af13d15611730573d906116b682611007565b916116c46040519384610f70565b82523d6000602084013e5b83611f98565b805190811515918261170e575b50506116eb5750565b604051635274afe760e01b81526001600160a01b03919091166004820152602490fd5b611729925090602080611725938301019101611673565b1590565b38806116e2565b6060906116cf565b8115611742570490565b634e487b7160e01b600052601260045260246000fd5b8015611892578061182b61182461181a6118106118066117fc6117f26117e8600161020d9a6000908b60801c80611886575b508060401c80611879575b508060201c8061186c575b508060101c8061185f575b508060081c80611852575b508060041c80611845575b508060021c80611838575b50821c611831575b811c1b6117e1818b611738565b0160011c90565b6117e1818a611738565b6117e18189611738565b6117e18188611738565b6117e18187611738565b6117e18186611738565b6117e18185611738565b8092611738565b90611d81565b81016117d4565b60029150910190386117cc565b60049150910190386117c1565b60089150910190386117b6565b60109150910190386117ab565b60209150910190386117a0565b6040915091019038611795565b9150506080903861178a565b50600090565b905b8281106118a657505090565b90918082169080831860011c82018092116106e557600a6000526000805160206122b983398151915282015465ffffffffffff90811690851610156118ee5750915b9061189a565b9291506118fa9061144d565b906118e8565b91905b8382106119105750505090565b9091928083169080841860011c82018092116106e55760008581526020902082015465ffffffffffff908116908416101561194f5750925b9190611903565b93925061195b9061144d565b91611948565b6001600160a01b03808316939291908116908185141580611a67575b611989575b5050505050565b816119ec575b50508261199e575b8080611982565b600080516020612319833981519152916119c36119bd6119c993610fc7565b91611d93565b90611dc6565b604080516001600160d01b039384168152919092166020820152a2388080611997565b6119f590610fc7565b6119fe84611d93565b6001600160d01b03908180611a1285611500565b16911690038181116106e557611a44611a5d916000805160206123198339815191529465ffffffffffff4216906121df565b6040805192851683529316602082015291829190820190565b0390a2388061198f565b5083151561197d565b60ff8114611aae5760ff811690601f8211611a9c5760405191611a9283610eff565b8252602082015290565b604051632cd44ac360e21b8152600490fd5b50604051600554816000611ac183610eaf565b808352602093600190818116908115611b2d5750600114611aeb575b505061020d92500382610f70565b90939150600560005281600020936000915b818310611b1557505061020d93508201013880611add565b85548784018501529485019486945091830191611afd565b91505061020d94925060ff191682840152151560051b8201013880611add565b60ff8114611b6f5760ff811690601f8211611a9c5760405191611a9283610eff565b50604051600654816000611b8283610eaf565b808352602093600190818116908115611b2d5750600114611bab57505061020d92500382610f70565b90939150600660005281600020936000915b818310611bd557505061020d93508201013880611add565b85548784018501529485019486945091830191611bbd565b91906fa2a8918ca85bafe22016d0b997e4df60600160ff1b038411611c6757926020929160ff608095604051948552168484015260408301526060820152600092839182805260015afa15611c5b5780516001600160a01b03811615611c5257918190565b50809160019190565b604051903d90823e3d90fd5b50505060009160039190565b60041115611c7d57565b634e487b7160e01b600052602160045260246000fd5b611c9c81611c73565b80611ca5575050565b611cae81611c73565b60018103611cc85760405163f645eedf60e01b8152600490fd5b611cd181611c73565b60028103611cf25760405163fce698f760e01b815260048101839052602490fd5b80611cfe600392611c73565b14611d065750565b6040516335e2f38360e21b81526004810191909152602490fd5b8054821015611d385760005260206000200190600090565b634e487b7160e01b600052603260045260246000fd5b6001600160d01b039091169052565b90604051611d6a81610eff565b915465ffffffffffff8116835260301c6020830152565b9080821015611d8e575090565b905090565b6001600160d01b0390818111611da7571690565b604490604051906306dfcc6560e41b825260d060048301526024820152fd5b906001600160d01b03908180611ddb85611500565b169116019081116106e557611df99165ffffffffffff4216906121df565b9091565b6001600160d01b03908180611e106114c8565b169116019081116106e557611df99065ffffffffffff42166120d4565b6001600160d01b03908180611e406114c8565b16911690039081116106e557611df99065ffffffffffff42166120d4565b61100591906001600160a01b039081168015611eb3575b611e86611e8184611d93565b611e2d565b50506000908152600860205260408120549080526000805160206122d98339815191525482169116611961565b611ec4611ebf84611d93565b611dfd565b5050611e75565b9061100591611edc611ebf83611d93565b50506001600160a01b03908116908115611f1a575b60086020526000805160206122d983398151915254600092835260409092205481169116611961565b611f26611e8184611d93565b5050611ef1565b61100592916001600160a01b03918216919081908315611f85575b16918215611f72575b60005260086020528060406000205416916000526040600020541690611961565b611f7e611e8185611d93565b5050611f51565b611f91611ebf86611d93565b5050611f48565b90611fbf5750805115611fad57805190602001fd5b604051630a12f52160e11b8152600490fd5b81511580611ff2575b611fd0575090565b604051639996b31560e01b81526001600160a01b039091166004820152602490fd5b50803b15611fc8565b9065ffffffffffff82549181199060301b169116179055565b600a5490600160401b821015610f1a576001820180600a55821015611d385761100591600a6000526020600020019065ffffffffffff81511665ffffffffffff19835416178255602060018060d01b039101511690611ffb565b8054600160401b811015610f1a5761208b91600182018155611d20565b6120be578165ffffffffffff61100593511665ffffffffffff19835416178255602060018060d01b039101511690611ffb565b634e487b7160e01b600052600060045260246000fd5b600a549192919081156121bc5761210d6121086120f08461143e565b600a6000526000805160206122b98339815191520190565b611d5d565b805165ffffffffffff83811694911684106121aa57856020936121709561214861213d865165ffffffffffff1690565b65ffffffffffff1690565b03612174575061215d6120f06121629361143e565b611ffb565b01516001600160d01b031690565b9190565b90506121a59150612194612186610ff8565b65ffffffffffff9092168252565b6121a087858301611d4e565b612014565b612162565b604051632520601d60e01b8152600490fd5b6121d991506121cc612186610ff8565b6121a08460208301611d4e565b60009190565b80549293929190821561229b576122086121086121fb8561143e565b8360005260206000200190565b90612219825165ffffffffffff1690565b65ffffffffffff848116911681106121aa5761217094602094889261224761213d875165ffffffffffff1690565b0361226a57506121629261225d61215d9261143e565b9060005260206000200190565b9150506121a59161228a61227c610ff8565b65ffffffffffff9093168352565b61229688868401611d4e565b61206e565b6121d992506122ab61227c610ff8565b6122968560208401611d4e56fec65a7bb8d6351c1cf70c95a316cc6a92839c986682d98bc35f958f4883f9d2a85eff886ea0ce6ca488a3d6e336d6c0f75f46d19b42c06ce5ee98e42c96d256c7ddf252ad1be2c89b69c2b068fc378daa952ba7f163c4a11628f55a4df523b3efdec2bacdd2f05b59de34da9b523dff8be42e5e38e818c82fdb0bae774387a724a164736f6c6343000817000a",
  "linkReferences": {},
  "deployedLinkReferences": {}
}