{
  "_format": "hh-sol-artifact-1",
  "contractName": "DAOSpokeContract",
  "sourceName": "contracts/governance/DAOSpokeContract.sol",
  "abi": [
    {
      "inputs": [
        {
          "internalType": "bytes32",
          "name": "_hubContractAddress",
          "type": "bytes32"
        },
        {
          "internalType": "uint16",
          "name": "_hubContractChainId",
          "type": "uint16"
        },
        {
          "internalType": "contract IVotes",
          "name": "_token",
          "type": "address"
        },
        {
          "internalType": "uint256",
          "name": "_targetSecondsPerBlock",
          "type": "uint256"
        },
        {
          "internalType": "uint16",
          "name": "_chainId",
          "type": "uint16"
        },
        {
          "internalType": "address",
          "name": "_wormholeRelayerAddress",
          "type": "address"
        },
        {
          "internalType": "address",
          "name": "_magistrateAddress",
          "type": "address"
        }
      ],
      "stateMutability": "nonpayable",
      "type": "constructor"
    },
    {
      "inputs": [
        {
          "internalType": "address",
          "name": "account",
          "type": "address"
        }
      ],
      "name": "AddressInsufficientBalance",
      "type": "error"
    },
    {
      "inputs": [],
      "name": "FailedInnerCall",
      "type": "error"
    },
    {
      "inputs": [],
      "name": "InvalidIntendedRecipient",
      "type": "error"
    },
    {
      "inputs": [
        {
          "internalType": "uint8",
          "name": "support",
          "type": "uint8"
        }
      ],
      "name": "InvalidVoteType",
      "type": "error"
    },
    {
      "inputs": [],
      "name": "MessageAlreadyProcessed",
      "type": "error"
    },
    {
      "inputs": [],
      "name": "NotStartedVote",
      "type": "error"
    },
    {
      "inputs": [],
      "name": "OnlyMessagesFromHub",
      "type": "error"
    },
    {
      "inputs": [],
      "name": "OnlyRelayerAllowed",
      "type": "error"
    },
    {
      "inputs": [],
      "name": "ProposalIdMustBeUnique",
      "type": "error"
    },
    {
      "inputs": [],
      "name": "RelaySendFailed",
      "type": "error"
    },
    {
      "inputs": [],
      "name": "VoteAlreadyCast",
      "type": "error"
    },
    {
      "inputs": [],
      "name": "VoteFinished",
      "type": "error"
    },
    {
      "inputs": [],
      "name": "VoteNotActive",
      "type": "error"
    },
    {
      "inputs": [],
      "name": "VoteNotFinished",
      "type": "error"
    },
    {
      "inputs": [],
      "name": "ZeroBalance",
      "type": "error"
    },
    {
      "anonymous": false,
      "inputs": [
        {
          "indexed": false,
          "internalType": "uint8",
          "name": "version",
          "type": "uint8"
        }
      ],
      "name": "Initialized",
      "type": "event"
    },
    {
      "anonymous": false,
      "inputs": [
        {
          "indexed": true,
          "internalType": "address",
          "name": "previousMagistrate",
          "type": "address"
        },
        {
          "indexed": true,
          "internalType": "address",
          "name": "newMagistrate",
          "type": "address"
        }
      ],
      "name": "MagistrateChanged",
      "type": "event"
    },
    {
      "anonymous": false,
      "inputs": [
        {
          "indexed": true,
          "internalType": "address",
          "name": "voter",
          "type": "address"
        },
        {
          "indexed": false,
          "internalType": "uint256",
          "name": "proposalId",
          "type": "uint256"
        },
        {
          "indexed": false,
          "internalType": "uint8",
          "name": "support",
          "type": "uint8"
        },
        {
          "indexed": false,
          "internalType": "uint256",
          "name": "weight",
          "type": "uint256"
        },
        {
          "indexed": false,
          "internalType": "string",
          "name": "reason",
          "type": "string"
        }
      ],
      "name": "VoteCast",
      "type": "event"
    },
    {
      "inputs": [
        {
          "internalType": "uint256",
          "name": "proposalId",
          "type": "uint256"
        },
        {
          "internalType": "uint8",
          "name": "support",
          "type": "uint8"
        }
      ],
      "name": "castVote",
      "outputs": [
        {
          "internalType": "uint256",
          "name": "",
          "type": "uint256"
        }
      ],
      "stateMutability": "nonpayable",
      "type": "function"
    },
    {
      "inputs": [],
      "name": "chainId",
      "outputs": [
        {
          "internalType": "uint16",
          "name": "",
          "type": "uint16"
        }
      ],
      "stateMutability": "view",
      "type": "function"
    },
    {
      "inputs": [
        {
          "internalType": "uint256",
          "name": "proposalId",
          "type": "uint256"
        },
        {
          "internalType": "address",
          "name": "account",
          "type": "address"
        }
      ],
      "name": "hasVoted",
      "outputs": [
        {
          "internalType": "bool",
          "name": "",
          "type": "bool"
        }
      ],
      "stateMutability": "view",
      "type": "function"
    },
    {
      "inputs": [],
      "name": "hubContractAddress",
      "outputs": [
        {
          "internalType": "bytes32",
          "name": "",
          "type": "bytes32"
        }
      ],
      "stateMutability": "view",
      "type": "function"
    },
    {
      "inputs": [],
      "name": "hubContractChainId",
      "outputs": [
        {
          "internalType": "uint16",
          "name": "",
          "type": "uint16"
        }
      ],
      "stateMutability": "view",
      "type": "function"
    },
    {
      "inputs": [
        {
          "internalType": "uint256",
          "name": "proposalId",
          "type": "uint256"
        }
      ],
      "name": "isProposal",
      "outputs": [
        {
          "internalType": "bool",
          "name": "",
          "type": "bool"
        }
      ],
      "stateMutability": "view",
      "type": "function"
    },
    {
      "inputs": [],
      "name": "magistrate",
      "outputs": [
        {
          "internalType": "address",
          "name": "",
          "type": "address"
        }
      ],
      "stateMutability": "view",
      "type": "function"
    },
    {
      "inputs": [
        {
          "internalType": "bytes32",
          "name": "",
          "type": "bytes32"
        }
      ],
      "name": "processedMessages",
      "outputs": [
        {
          "internalType": "bool",
          "name": "",
          "type": "bool"
        }
      ],
      "stateMutability": "view",
      "type": "function"
    },
    {
      "inputs": [
        {
          "internalType": "uint256",
          "name": "",
          "type": "uint256"
        }
      ],
      "name": "proposalVotes",
      "outputs": [
        {
          "internalType": "uint256",
          "name": "againstVotes",
          "type": "uint256"
        },
        {
          "internalType": "uint256",
          "name": "forVotes",
          "type": "uint256"
        },
        {
          "internalType": "uint256",
          "name": "abstainVotes",
          "type": "uint256"
        }
      ],
      "stateMutability": "view",
      "type": "function"
    },
    {
      "inputs": [
        {
          "internalType": "uint256",
          "name": "",
          "type": "uint256"
        }
      ],
      "name": "proposals",
      "outputs": [
        {
          "internalType": "uint256",
          "name": "proposalCreation",
          "type": "uint256"
        },
        {
          "internalType": "uint256",
          "name": "localVoteStart",
          "type": "uint256"
        },
        {
          "internalType": "uint256",
          "name": "localVoteEnd",
          "type": "uint256"
        },
        {
          "internalType": "uint256",
          "name": "localVoteStartBlock",
          "type": "uint256"
        },
        {
          "internalType": "bool",
          "name": "voteFinished",
          "type": "bool"
        }
      ],
      "stateMutability": "view",
      "type": "function"
    },
    {
      "inputs": [
        {
          "internalType": "bytes",
          "name": "payload",
          "type": "bytes"
        },
        {
          "internalType": "bytes[]",
          "name": "",
          "type": "bytes[]"
        },
        {
          "internalType": "bytes32",
          "name": "sourceAddress",
          "type": "bytes32"
        },
        {
          "internalType": "uint16",
          "name": "sourceChain",
          "type": "uint16"
        },
        {
          "internalType": "bytes32",
          "name": "deliveryHash",
          "type": "bytes32"
        }
      ],
      "name": "receiveWormholeMessages",
      "outputs": [],
      "stateMutability": "payable",
      "type": "function"
    },
    {
      "inputs": [
        {
          "internalType": "uint256",
          "name": "proposalId",
          "type": "uint256"
        }
      ],
      "name": "sendVoteResultToHub",
      "outputs": [],
      "stateMutability": "payable",
      "type": "function"
    },
    {
      "inputs": [],
      "name": "targetSecondsPerBlock",
      "outputs": [
        {
          "internalType": "uint256",
          "name": "",
          "type": "uint256"
        }
      ],
      "stateMutability": "view",
      "type": "function"
    },
    {
      "inputs": [],
      "name": "token",
      "outputs": [
        {
          "internalType": "contract IVotes",
          "name": "",
          "type": "address"
        }
      ],
      "stateMutability": "view",
      "type": "function"
    },
    {
      "inputs": [
        {
          "internalType": "address",
          "name": "newMagistrate",
          "type": "address"
        }
      ],
      "name": "transferMagistrate",
      "outputs": [],
      "stateMutability": "nonpayable",
      "type": "function"
    },
    {
      "inputs": [],
      "name": "withdraw",
      "outputs": [],
      "stateMutability": "nonpayable",
      "type": "function"
    },
    {
      "inputs": [],
      "name": "wormholeRelayer",
      "outputs": [
        {
          "internalType": "contract IWormholeRelayer",
          "name": "",
          "type": "address"
        }
      ],
      "stateMutability": "view",
      "type": "function"
    },
    {
      "stateMutability": "payable",
      "type": "receive"
    }
  ],
  "bytecode": "0x610140346200017f57601f6200139338819003918201601f19168301916001600160401b03831184841017620001845780849260e0946040528339810103126200017f57805162000053602083016200019a565b6040830151916001600160a01b03919082841684036200017f5760608501519262000081608087016200019a565b936200009e60c06200009660a08a01620001aa565b9801620001aa565b603380549184166001600160a01b031983168117909155604051979184167fb4aa40c4569b1278aa7da5bab0f345910781d388f8257b0bec17a317e2efb6b5600080a360c05260e0526101209384526101009516855260805260a0526111d39283620001c0843960805183818161088401528181610aa70152610e7f015260a05183818161084801528181610c7a0152610ea1015260c0518381816106a5015261092a015260e0518381816101ba01528181610fe601526110260152518281816108bd01528181610a7e01528181610f1f015261113b015251816108090152f35b600080fd5b634e487b7160e01b600052604160045260246000fd5b519061ffff821682036200017f57565b51906001600160a01b03821682036200017f5756fe6080604052600436101561001b575b361561001957600080fd5b005b60003560e01c8063013cf08b1461012b57806332d0c46d1461012657806334feb318146101215780633ba245941461011c5780633ccfd60b14610117578063438596321461011257806345e6efa11461010d578063529dca3214610108578063544ffc9c1461010357806356781388146100fe57806388ba16ab146100f95780639a8a0592146100f4578063b0f6b697146100ef578063d8c71a92146100ea578063da25b725146100e5578063e1171999146100e05763fc0c546a0361000e57610914565b6108ec565b6108a7565b61086c565b61082d565b6107ee565b6107bd565b610619565b6105d6565b610510565b61040d565b6103c6565b610322565b6102bd565b6101ee565b6101a2565b610140565b6000526034602052604060002090565b3461019d57602036600319011261019d57600435600052603460205260a06040600020805490600181015490600281015460ff60046003840154930154169260405194855260208501526040840152606083015215156080820152f35b600080fd5b3461019d57600036600319011261019d5760206040517f00000000000000000000000000000000000000000000000000000000000000008152f35b6001600160a01b0381160361019d57565b3461019d57602036600319011261019d5760043561020b816101dd565b610213610ce4565b6001600160a01b0390811690811561026157603380546001600160a01b031981168417909155167fb4aa40c4569b1278aa7da5bab0f345910781d388f8257b0bec17a317e2efb6b5600080a3005b60405162461bcd60e51b815260206004820152602e60248201527f4d6167697374726174653a206e6577206d61676973747261746520697320746860448201526d65207a65726f206164647265737360901b6064820152608490fd5b602036600319011261019d576004356102d4610ce4565b80600052603460205260ff6004604060002001541615610310576102f790610e10565b156102fe57005b604051633be9978960e21b8152600490fd5b604051637880efb160e11b8152600490fd5b3461019d576000806003193601126103c35761033c610ce4565b4780156103b157804710610399578180808093335af13d15610394573d61036281610493565b90610370604051928361044c565b81528260203d92013e5b156103825780f35b604051630a12f52160e11b8152600490fd5b61037a565b60405163cd78605960e01b8152306004820152602490fd5b60405163334ab3f560e11b8152600490fd5b80fd5b3461019d57604036600319011261019d57602060ff6104016024356103ea816101dd565b600435600052603584526003604060002001610959565b54166040519015158152f35b3461019d57600036600319011261019d576033546040516001600160a01b039091168152602090f35b634e487b7160e01b600052604160045260246000fd5b601f909101601f19168101906001600160401b0382119082101761046f57604052565b610436565b6040519060a082016001600160401b0381118382101761046f57604052565b6001600160401b03811161046f57601f01601f191660200190565b81601f8201121561019d578035906104c582610493565b926104d3604051948561044c565b8284526020838301011161019d57816000926020809301838601378301015290565b61ffff81160361019d57565b6064359061050e826104f5565b565b60a036600319011261019d576001600160401b0360043581811161019d5761053c9036906004016104ae565b602480359083821161019d573660238301121561019d5781600401359380851161046f578460051b906024602080976040519061057b8387018361044c565b815201928501019336851161019d5760248101925b8584106105b057610019876105a3610501565b6084359160443590610a70565b833583811161019d5788916105cb83928836918701016104ae565b815201930192610590565b3461019d57602036600319011261019d57600435600052603560205260606040600020805490600260018201549101549060405192835260208301526040820152f35b3461019d5760408060031936011261019d5760049060243590823560ff8316830361019d5761064781610130565b61065761065383610cce565b1590565b6107ad578085015460ff1661079d5760018101549081421015908161078f575b501561077f578251630748d63560e31b815233958101958652602086810192909252948590819060400103817f00000000000000000000000000000000000000000000000000000000000000006001600160a01b03165afa92831561077a5761073594600094610739575b508381610700826000805160206111a7833981519152943387611057565b845193845260ff1660208401526040830152608060608301819052600090830152339160a090a2519081529081906020820190565b0390f35b6000805160206111a783398151915291945061076c9060203d602011610773575b610764818361044c565b810190610cb3565b93906106e2565b503d61075a565b610cc2565b825163c878ebc560e01b81528590fd5b600291500154421038610677565b82516313d9bb8f60e31b81528590fd5b8251637970553160e01b81528590fd5b3461019d57602036600319011261019d576004356000526036602052602060ff604060002054166040519015158152f35b3461019d57600036600319011261019d57602060405161ffff7f0000000000000000000000000000000000000000000000000000000000000000168152f35b3461019d57600036600319011261019d57602060405161ffff7f0000000000000000000000000000000000000000000000000000000000000000168152f35b3461019d57600036600319011261019d5760206040517f00000000000000000000000000000000000000000000000000000000000000008152f35b3461019d57600036600319011261019d576040517f00000000000000000000000000000000000000000000000000000000000000006001600160a01b03168152602090f35b3461019d57602036600319011261019d57602061090a600435610cce565b6040519015158152f35b3461019d57600036600319011261019d576040517f00000000000000000000000000000000000000000000000000000000000000006001600160a01b03168152602090f35b9060018060a01b0316600052602052604060002090565b60005b8381106109835750506000910152565b8181015183820152602001610973565b60808183031261019d5780516109a8816101dd565b9260208201516109b7816104f5565b9260408301516109c6816101dd565b606084015190936001600160401b03821161019d570181601f8201121561019d5780516109f281610493565b92610a00604051948561044c565b8184526020828401011161019d57610a1e9160208085019101610970565b90565b919082604091031261019d5760208251610a3a816104f5565b92015190565b908160a091031261019d578051610a56816104f5565b916020820151916040810151916080606083015192015190565b926001600160a01b039290917f000000000000000000000000000000000000000000000000000000000000000084163303610ca1577f0000000000000000000000000000000000000000000000000000000000000000149081610c6f575b5015610c5d57610af2610aeb826000526036602052604060002090565b5460ff1690565b610c4b57610b0b83519360208080968301019101610993565b9491505030911603610c3957610b2e610b3b916000526036602052604060002090565b805460ff19166001179055565b8181018261ffff8251168015600014610bf3575082610b5d9351010190610a40565b949092919350610b6c82610cce565b610be15761050e9483610b81610ba695610fce565b92610b8a610474565b9687528601526040850152606084015260006080840152610130565b60046080918351815560208401516001820155604084015160028201556060840151600382015501910151151560ff80198354169116179055565b60405163041c702160e41b8152600490fd5b6001915014610c0157505050565b610c369282610c139351010190610a21565b9050610c316004610c2383610130565b01805460ff19166001179055565b610e10565b50565b60405163763d29ab60e01b8152600490fd5b604051637b04260960e01b8152600490fd5b604051633974badb60e01b8152600490fd5b905061ffff809116907f0000000000000000000000000000000000000000000000000000000000000000161438610ace565b6040516381316de160e01b8152600490fd5b9081602091031261019d575190565b6040513d6000823e3d90fd5b6000526034602052600160406000200154151590565b6033546001600160a01b03163303610cf857565b60405162461bcd60e51b815260206004820152602860248201527f4d6167697374726174653a2063616c6c6572206973206e6f7420746865206d61604482015267676973747261746560c01b6064820152608490fd5b90602091610d6781518092818552858086019101610970565b601f01601f1916010190565b909261ffff608093610a1e9695845216602083015260018060a01b031660408201528160608201520190610d4e565b9081602091031261019d57516001600160401b038116810361019d5790565b93959490610df360c09461ffff809316875260018060a01b03809516602088015260e0604088015260e0870190610d4e565b96600060608701526207a12060808701521660a085015216910152565b6020610ed2610e29836000526035602052604060002090565b92610e6760018501549460028154910154906040519687948786019094939260809260a0830196600084526020840152604083015260608201520152565b03610e7a601f199182810186528561044c565b610ede7f0000000000000000000000000000000000000000000000000000000000000000917f0000000000000000000000000000000000000000000000000000000000000000956040519485913389878a8601610d73565b0390810184528361044c565b610ee78461110b565b6033546001600160a01b0392839291610f1b9084166040516312d729bd60e21b815298899788968795168260048701610dc1565b03927f0000000000000000000000000000000000000000000000000000000000000000165af19081610f57575b50610f5257600090565b600190565b610f789060203d602011610f7f575b610f70818361044c565b810190610da2565b5038610f48565b503d610f66565b634e487b7160e01b600052601160045260246000fd5b8115610fa6570490565b634e487b7160e01b600052601260045260246000fd5b91908201809211610fc957565b610f86565b4281111561101757428103908111610fc95761100b907f000000000000000000000000000000000000000000000000000000000000000090610f9c565b4301804311610fc95790565b4203428111610fc95761104b907f000000000000000000000000000000000000000000000000000000000000000090610f9c565b4303438111610fc95790565b61106e909291926000526035602052604060002090565b9160038301611080610aeb8383610959565b6110f95761109191610b2e91610959565b60ff8116806110ac575050906110a8908254610fbc565b9055565b600181036110c557505060016110a89101918254610fbc565b6002036110dc575060026110a89101918254610fbc565b604051632081b22360e01b815260ff919091166004820152602490fd5b60405163b3808bab60e01b8152600490fd5b6040805163c23ee3c360e01b815261ffff929092166004830152600060248301526207a1206044830152816064817f00000000000000000000000000000000000000000000000000000000000000006001600160a01b03165afa90811561077a57600091611177575090565b90506040813d60401161119e575b816111926040938361044c565b8101031261019d575190565b3d915061118556feb8e138887d0aa13bab447e82de9d5c1777041ecd21ca36ba824ff1e6c07ddda4a164736f6c6343000817000a",
  "linkReferences": {},
  "deployedLinkReferences": {}
}