{
  "_format": "hh-sol-artifact-1",
  "contractName": "MetaHumanGovernor",
  "sourceName": "contracts/governance/MetaHumanGovernor.sol",
  "abi": [
    {
      "inputs": [],
      "name": "CollectionPhaseAlreadyStarted",
      "type": "error"
    },
    {
      "inputs": [],
      "name": "CollectionPhaseUnfinished",
      "type": "error"
    },
    {
      "inputs": [],
      "name": "Empty",
      "type": "error"
    },
    {
      "inputs": [],
      "name": "InvalidIntendedRecipient",
      "type": "error"
    },
    {
      "inputs": [],
      "name": "MessageAlreadyProcessed",
      "type": "error"
    },
    {
      "inputs": [],
      "name": "OnlyMessagesFromSpokeReceived",
      "type": "error"
    },
    {
      "inputs": [],
      "name": "OnlyRelayerAllowed",
      "type": "error"
    },
    {
      "inputs": [],
      "name": "ProposalAlreadyInitialized",
      "type": "error"
    },
    {
      "inputs": [],
      "name": "ProposalNotSuccessful",
      "type": "error"
    },
    {
      "inputs": [],
      "name": "RequestAfterVotePeriodOver",
      "type": "error"
    },
    {
      "inputs": [],
      "name": "UseCrossChainCancel",
      "type": "error"
    },
    {
      "inputs": [],
      "name": "UseCrossChainPropose",
      "type": "error"
    },
    {
      "inputs": [],
      "name": "ZeroBalance",
      "type": "error"
    },
    {
      "anonymous": false,
      "inputs": [],
      "name": "EIP712DomainChanged",
      "type": "event"
    },
    {
      "anonymous": false,
      "inputs": [
        {
          "indexed": false,
          "internalType": "uint8",
          "name": "version",
          "type": "uint8"
        }
      ],
      "name": "Initialized",
      "type": "event"
    },
    {
      "anonymous": false,
      "inputs": [
        {
          "indexed": true,
          "internalType": "address",
          "name": "previousMagistrate",
          "type": "address"
        },
        {
          "indexed": true,
          "internalType": "address",
          "name": "newMagistrate",
          "type": "address"
        }
      ],
      "name": "MagistrateChanged",
      "type": "event"
    },
    {
      "anonymous": false,
      "inputs": [
        {
          "indexed": true,
          "internalType": "address",
          "name": "previousOwner",
          "type": "address"
        },
        {
          "indexed": true,
          "internalType": "address",
          "name": "newOwner",
          "type": "address"
        }
      ],
      "name": "OwnershipTransferred",
      "type": "event"
    },
    {
      "anonymous": false,
      "inputs": [
        {
          "indexed": false,
          "internalType": "uint256",
          "name": "proposalId",
          "type": "uint256"
        }
      ],
      "name": "ProposalCanceled",
      "type": "event"
    },
    {
      "anonymous": false,
      "inputs": [
        {
          "indexed": false,
          "internalType": "uint256",
          "name": "proposalId",
          "type": "uint256"
        },
        {
          "indexed": false,
          "internalType": "address",
          "name": "proposer",
          "type": "address"
        },
        {
          "indexed": false,
          "internalType": "address[]",
          "name": "targets",
          "type": "address[]"
        },
        {
          "indexed": false,
          "internalType": "uint256[]",
          "name": "values",
          "type": "uint256[]"
        },
        {
          "indexed": false,
          "internalType": "string[]",
          "name": "signatures",
          "type": "string[]"
        },
        {
          "indexed": false,
          "internalType": "bytes[]",
          "name": "calldatas",
          "type": "bytes[]"
        },
        {
          "indexed": false,
          "internalType": "uint256",
          "name": "voteStart",
          "type": "uint256"
        },
        {
          "indexed": false,
          "internalType": "uint256",
          "name": "voteEnd",
          "type": "uint256"
        },
        {
          "indexed": false,
          "internalType": "string",
          "name": "description",
          "type": "string"
        }
      ],
      "name": "ProposalCreated",
      "type": "event"
    },
    {
      "anonymous": false,
      "inputs": [
        {
          "indexed": false,
          "internalType": "uint256",
          "name": "proposalId",
          "type": "uint256"
        }
      ],
      "name": "ProposalExecuted",
      "type": "event"
    },
    {
      "anonymous": false,
      "inputs": [
        {
          "indexed": false,
          "internalType": "uint256",
          "name": "proposalId",
          "type": "uint256"
        },
        {
          "indexed": false,
          "internalType": "uint256",
          "name": "eta",
          "type": "uint256"
        }
      ],
      "name": "ProposalQueued",
      "type": "event"
    },
    {
      "anonymous": false,
      "inputs": [
        {
          "indexed": false,
          "internalType": "uint256",
          "name": "oldProposalThreshold",
          "type": "uint256"
        },
        {
          "indexed": false,
          "internalType": "uint256",
          "name": "newProposalThreshold",
          "type": "uint256"
        }
      ],
      "name": "ProposalThresholdSet",
      "type": "event"
    },
    {
      "anonymous": false,
      "inputs": [
        {
          "indexed": false,
          "internalType": "uint256",
          "name": "oldQuorumNumerator",
          "type": "uint256"
        },
        {
          "indexed": false,
          "internalType": "uint256",
          "name": "newQuorumNumerator",
          "type": "uint256"
        }
      ],
      "name": "QuorumNumeratorUpdated",
      "type": "event"
    },
    {
      "anonymous": false,
      "inputs": [
        {
          "components": [
            {
              "internalType": "bytes32",
              "name": "contractAddress",
              "type": "bytes32"
            },
            {
              "internalType": "uint16",
              "name": "chainId",
              "type": "uint16"
            }
          ],
          "indexed": true,
          "internalType": "struct CrossChainGovernorCountingSimple.CrossChainAddress[]",
          "name": "spokes",
          "type": "tuple[]"
        }
      ],
      "name": "SpokesUpdated",
      "type": "event"
    },
    {
      "anonymous": false,
      "inputs": [
        {
          "indexed": false,
          "internalType": "address",
          "name": "oldTimelock",
          "type": "address"
        },
        {
          "indexed": false,
          "internalType": "address",
          "name": "newTimelock",
          "type": "address"
        }
      ],
      "name": "TimelockChange",
      "type": "event"
    },
    {
      "anonymous": false,
      "inputs": [
        {
          "indexed": true,
          "internalType": "address",
          "name": "voter",
          "type": "address"
        },
        {
          "indexed": false,
          "internalType": "uint256",
          "name": "proposalId",
          "type": "uint256"
        },
        {
          "indexed": false,
          "internalType": "uint8",
          "name": "support",
          "type": "uint8"
        },
        {
          "indexed": false,
          "internalType": "uint256",
          "name": "weight",
          "type": "uint256"
        },
        {
          "indexed": false,
          "internalType": "string",
          "name": "reason",
          "type": "string"
        }
      ],
      "name": "VoteCast",
      "type": "event"
    },
    {
      "anonymous": false,
      "inputs": [
        {
          "indexed": true,
          "internalType": "address",
          "name": "voter",
          "type": "address"
        },
        {
          "indexed": false,
          "internalType": "uint256",
          "name": "proposalId",
          "type": "uint256"
        },
        {
          "indexed": false,
          "internalType": "uint8",
          "name": "support",
          "type": "uint8"
        },
        {
          "indexed": false,
          "internalType": "uint256",
          "name": "weight",
          "type": "uint256"
        },
        {
          "indexed": false,
          "internalType": "string",
          "name": "reason",
          "type": "string"
        },
        {
          "indexed": false,
          "internalType": "bytes",
          "name": "params",
          "type": "bytes"
        }
      ],
      "name": "VoteCastWithParams",
      "type": "event"
    },
    {
      "anonymous": false,
      "inputs": [
        {
          "indexed": false,
          "internalType": "uint256",
          "name": "oldVotingDelay",
          "type": "uint256"
        },
        {
          "indexed": false,
          "internalType": "uint256",
          "name": "newVotingDelay",
          "type": "uint256"
        }
      ],
      "name": "VotingDelaySet",
      "type": "event"
    },
    {
      "anonymous": false,
      "inputs": [
        {
          "indexed": false,
          "internalType": "uint256",
          "name": "oldVotingPeriod",
          "type": "uint256"
        },
        {
          "indexed": false,
          "internalType": "uint256",
          "name": "newVotingPeriod",
          "type": "uint256"
        }
      ],
      "name": "VotingPeriodSet",
      "type": "event"
    },
    {
      "inputs": [],
      "name": "BALLOT_TYPEHASH",
      "outputs": [
        {
          "internalType": "bytes32",
          "name": "",
          "type": "bytes32"
        }
      ],
      "stateMutability": "view",
      "type": "function"
    },
    {
      "inputs": [],
      "name": "CLOCK_MODE",
      "outputs": [
        {
          "internalType": "string",
          "name": "",
          "type": "string"
        }
      ],
      "stateMutability": "view",
      "type": "function"
    },
    {
      "inputs": [],
      "name": "COUNTING_MODE",
      "outputs": [
        {
          "internalType": "string",
          "name": "",
          "type": "string"
        }
      ],
      "stateMutability": "pure",
      "type": "function"
    },
    {
      "inputs": [],
      "name": "EXTENDED_BALLOT_TYPEHASH",
      "outputs": [
        {
          "internalType": "bytes32",
          "name": "",
          "type": "bytes32"
        }
      ],
      "stateMutability": "view",
      "type": "function"
    },
    {
      "inputs": [
        {
          "internalType": "address[]",
          "name": "targets",
          "type": "address[]"
        },
        {
          "internalType": "uint256[]",
          "name": "values",
          "type": "uint256[]"
        },
        {
          "internalType": "bytes[]",
          "name": "calldatas",
          "type": "bytes[]"
        },
        {
          "internalType": "bytes32",
          "name": "descriptionHash",
          "type": "bytes32"
        }
      ],
      "name": "cancel",
      "outputs": [
        {
          "internalType": "uint256",
          "name": "",
          "type": "uint256"
        }
      ],
      "stateMutability": "nonpayable",
      "type": "function"
    },
    {
      "inputs": [
        {
          "internalType": "uint256",
          "name": "proposalId",
          "type": "uint256"
        },
        {
          "internalType": "uint8",
          "name": "support",
          "type": "uint8"
        }
      ],
      "name": "castVote",
      "outputs": [
        {
          "internalType": "uint256",
          "name": "",
          "type": "uint256"
        }
      ],
      "stateMutability": "nonpayable",
      "type": "function"
    },
    {
      "inputs": [
        {
          "internalType": "uint256",
          "name": "proposalId",
          "type": "uint256"
        },
        {
          "internalType": "uint8",
          "name": "support",
          "type": "uint8"
        },
        {
          "internalType": "uint8",
          "name": "v",
          "type": "uint8"
        },
        {
          "internalType": "bytes32",
          "name": "r",
          "type": "bytes32"
        },
        {
          "internalType": "bytes32",
          "name": "s",
          "type": "bytes32"
        }
      ],
      "name": "castVoteBySig",
      "outputs": [
        {
          "internalType": "uint256",
          "name": "",
          "type": "uint256"
        }
      ],
      "stateMutability": "nonpayable",
      "type": "function"
    },
    {
      "inputs": [
        {
          "internalType": "uint256",
          "name": "proposalId",
          "type": "uint256"
        },
        {
          "internalType": "uint8",
          "name": "support",
          "type": "uint8"
        },
        {
          "internalType": "string",
          "name": "reason",
          "type": "string"
        }
      ],
      "name": "castVoteWithReason",
      "outputs": [
        {
          "internalType": "uint256",
          "name": "",
          "type": "uint256"
        }
      ],
      "stateMutability": "nonpayable",
      "type": "function"
    },
    {
      "inputs": [
        {
          "internalType": "uint256",
          "name": "proposalId",
          "type": "uint256"
        },
        {
          "internalType": "uint8",
          "name": "support",
          "type": "uint8"
        },
        {
          "internalType": "string",
          "name": "reason",
          "type": "string"
        },
        {
          "internalType": "bytes",
          "name": "params",
          "type": "bytes"
        }
      ],
      "name": "castVoteWithReasonAndParams",
      "outputs": [
        {
          "internalType": "uint256",
          "name": "",
          "type": "uint256"
        }
      ],
      "stateMutability": "nonpayable",
      "type": "function"
    },
    {
      "inputs": [
        {
          "internalType": "uint256",
          "name": "proposalId",
          "type": "uint256"
        },
        {
          "internalType": "uint8",
          "name": "support",
          "type": "uint8"
        },
        {
          "internalType": "string",
          "name": "reason",
          "type": "string"
        },
        {
          "internalType": "bytes",
          "name": "params",
          "type": "bytes"
        },
        {
          "internalType": "uint8",
          "name": "v",
          "type": "uint8"
        },
        {
          "internalType": "bytes32",
          "name": "r",
          "type": "bytes32"
        },
        {
          "internalType": "bytes32",
          "name": "s",
          "type": "bytes32"
        }
      ],
      "name": "castVoteWithReasonAndParamsBySig",
      "outputs": [
        {
          "internalType": "uint256",
          "name": "",
          "type": "uint256"
        }
      ],
      "stateMutability": "nonpayable",
      "type": "function"
    },
    {
      "inputs": [],
      "name": "chainId",
      "outputs": [
        {
          "internalType": "uint16",
          "name": "",
          "type": "uint16"
        }
      ],
      "stateMutability": "view",
      "type": "function"
    },
    {
      "inputs": [],
      "name": "clock",
      "outputs": [
        {
          "internalType": "uint48",
          "name": "",
          "type": "uint48"
        }
      ],
      "stateMutability": "view",
      "type": "function"
    },
    {
      "inputs": [
        {
          "internalType": "uint256",
          "name": "",
          "type": "uint256"
        }
      ],
      "name": "collectionFinished",
      "outputs": [
        {
          "internalType": "bool",
          "name": "",
          "type": "bool"
        }
      ],
      "stateMutability": "view",
      "type": "function"
    },
    {
      "inputs": [
        {
          "internalType": "uint256",
          "name": "",
          "type": "uint256"
        }
      ],
      "name": "collectionStarted",
      "outputs": [
        {
          "internalType": "bool",
          "name": "",
          "type": "bool"
        }
      ],
      "stateMutability": "view",
      "type": "function"
    },
    {
      "inputs": [
        {
          "internalType": "address[]",
          "name": "targets",
          "type": "address[]"
        },
        {
          "internalType": "uint256[]",
          "name": "values",
          "type": "uint256[]"
        },
        {
          "internalType": "bytes[]",
          "name": "calldatas",
          "type": "bytes[]"
        },
        {
          "internalType": "bytes32",
          "name": "descriptionHash",
          "type": "bytes32"
        }
      ],
      "name": "crossChainCancel",
      "outputs": [
        {
          "internalType": "uint256",
          "name": "",
          "type": "uint256"
        }
      ],
      "stateMutability": "payable",
      "type": "function"
    },
    {
      "inputs": [
        {
          "internalType": "address[]",
          "name": "targets",
          "type": "address[]"
        },
        {
          "internalType": "uint256[]",
          "name": "values",
          "type": "uint256[]"
        },
        {
          "internalType": "bytes[]",
          "name": "calldatas",
          "type": "bytes[]"
        },
        {
          "internalType": "string",
          "name": "description",
          "type": "string"
        }
      ],
      "name": "crossChainPropose",
      "outputs": [
        {
          "internalType": "uint256",
          "name": "",
          "type": "uint256"
        }
      ],
      "stateMutability": "payable",
      "type": "function"
    },
    {
      "inputs": [],
      "name": "eip712Domain",
      "outputs": [
        {
          "internalType": "bytes1",
          "name": "fields",
          "type": "bytes1"
        },
        {
          "internalType": "string",
          "name": "name",
          "type": "string"
        },
        {
          "internalType": "string",
          "name": "version",
          "type": "string"
        },
        {
          "internalType": "uint256",
          "name": "chainId",
          "type": "uint256"
        },
        {
          "internalType": "address",
          "name": "verifyingContract",
          "type": "address"
        },
        {
          "internalType": "bytes32",
          "name": "salt",
          "type": "bytes32"
        },
        {
          "internalType": "uint256[]",
          "name": "extensions",
          "type": "uint256[]"
        }
      ],
      "stateMutability": "view",
      "type": "function"
    },
    {
      "inputs": [
        {
          "internalType": "address[]",
          "name": "targets",
          "type": "address[]"
        },
        {
          "internalType": "uint256[]",
          "name": "values",
          "type": "uint256[]"
        },
        {
          "internalType": "bytes[]",
          "name": "calldatas",
          "type": "bytes[]"
        },
        {
          "internalType": "bytes32",
          "name": "descriptionHash",
          "type": "bytes32"
        }
      ],
      "name": "execute",
      "outputs": [
        {
          "internalType": "uint256",
          "name": "",
          "type": "uint256"
        }
      ],
      "stateMutability": "payable",
      "type": "function"
    },
    {
      "inputs": [
        {
          "internalType": "address",
          "name": "account",
          "type": "address"
        },
        {
          "internalType": "uint256",
          "name": "timepoint",
          "type": "uint256"
        }
      ],
      "name": "getVotes",
      "outputs": [
        {
          "internalType": "uint256",
          "name": "",
          "type": "uint256"
        }
      ],
      "stateMutability": "view",
      "type": "function"
    },
    {
      "inputs": [
        {
          "internalType": "address",
          "name": "account",
          "type": "address"
        },
        {
          "internalType": "uint256",
          "name": "timepoint",
          "type": "uint256"
        },
        {
          "internalType": "bytes",
          "name": "params",
          "type": "bytes"
        }
      ],
      "name": "getVotesWithParams",
      "outputs": [
        {
          "internalType": "uint256",
          "name": "",
          "type": "uint256"
        }
      ],
      "stateMutability": "view",
      "type": "function"
    },
    {
      "inputs": [
        {
          "internalType": "uint256",
          "name": "proposalId",
          "type": "uint256"
        },
        {
          "internalType": "address",
          "name": "account",
          "type": "address"
        }
      ],
      "name": "hasVoted",
      "outputs": [
        {
          "internalType": "bool",
          "name": "",
          "type": "bool"
        }
      ],
      "stateMutability": "view",
      "type": "function"
    },
    {
      "inputs": [
        {
          "internalType": "address[]",
          "name": "targets",
          "type": "address[]"
        },
        {
          "internalType": "uint256[]",
          "name": "values",
          "type": "uint256[]"
        },
        {
          "internalType": "bytes[]",
          "name": "calldatas",
          "type": "bytes[]"
        },
        {
          "internalType": "bytes32",
          "name": "descriptionHash",
          "type": "bytes32"
        }
      ],
      "name": "hashProposal",
      "outputs": [
        {
          "internalType": "uint256",
          "name": "",
          "type": "uint256"
        }
      ],
      "stateMutability": "pure",
      "type": "function"
    },
    {
      "inputs": [
        {
          "internalType": "contract IVotesUpgradeable",
          "name": "_token",
          "type": "address"
        },
        {
          "internalType": "contract TimelockControllerUpgradeable",
          "name": "_timelock",
          "type": "address"
        },
        {
          "components": [
            {
              "internalType": "bytes32",
              "name": "contractAddress",
              "type": "bytes32"
            },
            {
              "internalType": "uint16",
              "name": "chainId",
              "type": "uint16"
            }
          ],
          "internalType": "struct CrossChainGovernorCountingSimple.CrossChainAddress[]",
          "name": "_spokeContracts",
          "type": "tuple[]"
        },
        {
          "internalType": "uint16",
          "name": "_chainId",
          "type": "uint16"
        },
        {
          "internalType": "address",
          "name": "_wormholeRelayerAddress",
          "type": "address"
        },
        {
          "internalType": "address",
          "name": "_magistrateAddress",
          "type": "address"
        },
        {
          "internalType": "uint256",
          "name": "_secondsPerBlock",
          "type": "uint256"
        },
        {
          "internalType": "uint48",
          "name": "_votingDelayInSeconds",
          "type": "uint48"
        },
        {
          "internalType": "uint32",
          "name": "_votingPeriodInSeconds",
          "type": "uint32"
        },
        {
          "internalType": "uint256",
          "name": "_proposalThreshold",
          "type": "uint256"
        },
        {
          "internalType": "uint256",
          "name": "_quorumFraction",
          "type": "uint256"
        }
      ],
      "name": "initialize",
      "outputs": [],
      "stateMutability": "nonpayable",
      "type": "function"
    },
    {
      "inputs": [],
      "name": "magistrate",
      "outputs": [
        {
          "internalType": "address",
          "name": "",
          "type": "address"
        }
      ],
      "stateMutability": "view",
      "type": "function"
    },
    {
      "inputs": [],
      "name": "name",
      "outputs": [
        {
          "internalType": "string",
          "name": "",
          "type": "string"
        }
      ],
      "stateMutability": "view",
      "type": "function"
    },
    {
      "inputs": [
        {
          "internalType": "address",
          "name": "",
          "type": "address"
        },
        {
          "internalType": "address",
          "name": "",
          "type": "address"
        },
        {
          "internalType": "uint256[]",
          "name": "",
          "type": "uint256[]"
        },
        {
          "internalType": "uint256[]",
          "name": "",
          "type": "uint256[]"
        },
        {
          "internalType": "bytes",
          "name": "",
          "type": "bytes"
        }
      ],
      "name": "onERC1155BatchReceived",
      "outputs": [
        {
          "internalType": "bytes4",
          "name": "",
          "type": "bytes4"
        }
      ],
      "stateMutability": "nonpayable",
      "type": "function"
    },
    {
      "inputs": [
        {
          "internalType": "address",
          "name": "",
          "type": "address"
        },
        {
          "internalType": "address",
          "name": "",
          "type": "address"
        },
        {
          "internalType": "uint256",
          "name": "",
          "type": "uint256"
        },
        {
          "internalType": "uint256",
          "name": "",
          "type": "uint256"
        },
        {
          "internalType": "bytes",
          "name": "",
          "type": "bytes"
        }
      ],
      "name": "onERC1155Received",
      "outputs": [
        {
          "internalType": "bytes4",
          "name": "",
          "type": "bytes4"
        }
      ],
      "stateMutability": "nonpayable",
      "type": "function"
    },
    {
      "inputs": [
        {
          "internalType": "address",
          "name": "",
          "type": "address"
        },
        {
          "internalType": "address",
          "name": "",
          "type": "address"
        },
        {
          "internalType": "uint256",
          "name": "",
          "type": "uint256"
        },
        {
          "internalType": "bytes",
          "name": "",
          "type": "bytes"
        }
      ],
      "name": "onERC721Received",
      "outputs": [
        {
          "internalType": "bytes4",
          "name": "",
          "type": "bytes4"
        }
      ],
      "stateMutability": "nonpayable",
      "type": "function"
    },
    {
      "inputs": [],
      "name": "owner",
      "outputs": [
        {
          "internalType": "address",
          "name": "",
          "type": "address"
        }
      ],
      "stateMutability": "view",
      "type": "function"
    },
    {
      "inputs": [
        {
          "internalType": "bytes32",
          "name": "",
          "type": "bytes32"
        }
      ],
      "name": "processedMessages",
      "outputs": [
        {
          "internalType": "bool",
          "name": "",
          "type": "bool"
        }
      ],
      "stateMutability": "view",
      "type": "function"
    },
    {
      "inputs": [
        {
          "internalType": "uint256",
          "name": "proposalId",
          "type": "uint256"
        }
      ],
      "name": "proposalDeadline",
      "outputs": [
        {
          "internalType": "uint256",
          "name": "",
          "type": "uint256"
        }
      ],
      "stateMutability": "view",
      "type": "function"
    },
    {
      "inputs": [
        {
          "internalType": "uint256",
          "name": "proposalId",
          "type": "uint256"
        }
      ],
      "name": "proposalEta",
      "outputs": [
        {
          "internalType": "uint256",
          "name": "",
          "type": "uint256"
        }
      ],
      "stateMutability": "view",
      "type": "function"
    },
    {
      "inputs": [
        {
          "internalType": "uint256",
          "name": "proposalId",
          "type": "uint256"
        }
      ],
      "name": "proposalProposer",
      "outputs": [
        {
          "internalType": "address",
          "name": "",
          "type": "address"
        }
      ],
      "stateMutability": "view",
      "type": "function"
    },
    {
      "inputs": [
        {
          "internalType": "uint256",
          "name": "proposalId",
          "type": "uint256"
        }
      ],
      "name": "proposalSnapshot",
      "outputs": [
        {
          "internalType": "uint256",
          "name": "",
          "type": "uint256"
        }
      ],
      "stateMutability": "view",
      "type": "function"
    },
    {
      "inputs": [],
      "name": "proposalThreshold",
      "outputs": [
        {
          "internalType": "uint256",
          "name": "",
          "type": "uint256"
        }
      ],
      "stateMutability": "view",
      "type": "function"
    },
    {
      "inputs": [
        {
          "internalType": "uint256",
          "name": "proposalId",
          "type": "uint256"
        }
      ],
      "name": "proposalVotes",
      "outputs": [
        {
          "internalType": "uint256",
          "name": "againstVotes",
          "type": "uint256"
        },
        {
          "internalType": "uint256",
          "name": "forVotes",
          "type": "uint256"
        },
        {
          "internalType": "uint256",
          "name": "abstainVotes",
          "type": "uint256"
        }
      ],
      "stateMutability": "view",
      "type": "function"
    },
    {
      "inputs": [
        {
          "internalType": "address[]",
          "name": "",
          "type": "address[]"
        },
        {
          "internalType": "uint256[]",
          "name": "",
          "type": "uint256[]"
        },
        {
          "internalType": "bytes[]",
          "name": "",
          "type": "bytes[]"
        },
        {
          "internalType": "string",
          "name": "",
          "type": "string"
        }
      ],
      "name": "propose",
      "outputs": [
        {
          "internalType": "uint256",
          "name": "",
          "type": "uint256"
        }
      ],
      "stateMutability": "pure",
      "type": "function"
    },
    {
      "inputs": [
        {
          "internalType": "address[]",
          "name": "targets",
          "type": "address[]"
        },
        {
          "internalType": "uint256[]",
          "name": "values",
          "type": "uint256[]"
        },
        {
          "internalType": "bytes[]",
          "name": "calldatas",
          "type": "bytes[]"
        },
        {
          "internalType": "bytes32",
          "name": "descriptionHash",
          "type": "bytes32"
        }
      ],
      "name": "queue",
      "outputs": [
        {
          "internalType": "uint256",
          "name": "",
          "type": "uint256"
        }
      ],
      "stateMutability": "nonpayable",
      "type": "function"
    },
    {
      "inputs": [
        {
          "internalType": "uint256",
          "name": "snapshotTime",
          "type": "uint256"
        }
      ],
      "name": "quorum",
      "outputs": [
        {
          "internalType": "uint256",
          "name": "",
          "type": "uint256"
        }
      ],
      "stateMutability": "view",
      "type": "function"
    },
    {
      "inputs": [],
      "name": "quorumDenominator",
      "outputs": [
        {
          "internalType": "uint256",
          "name": "",
          "type": "uint256"
        }
      ],
      "stateMutability": "view",
      "type": "function"
    },
    {
      "inputs": [
        {
          "internalType": "uint256",
          "name": "timepoint",
          "type": "uint256"
        }
      ],
      "name": "quorumNumerator",
      "outputs": [
        {
          "internalType": "uint256",
          "name": "",
          "type": "uint256"
        }
      ],
      "stateMutability": "view",
      "type": "function"
    },
    {
      "inputs": [],
      "name": "quorumNumerator",
      "outputs": [
        {
          "internalType": "uint256",
          "name": "",
          "type": "uint256"
        }
      ],
      "stateMutability": "view",
      "type": "function"
    },
    {
      "inputs": [
        {
          "internalType": "bytes",
          "name": "payload",
          "type": "bytes"
        },
        {
          "internalType": "bytes[]",
          "name": "",
          "type": "bytes[]"
        },
        {
          "internalType": "bytes32",
          "name": "sourceAddress",
          "type": "bytes32"
        },
        {
          "internalType": "uint16",
          "name": "sourceChain",
          "type": "uint16"
        },
        {
          "internalType": "bytes32",
          "name": "deliveryHash",
          "type": "bytes32"
        }
      ],
      "name": "receiveWormholeMessages",
      "outputs": [],
      "stateMutability": "payable",
      "type": "function"
    },
    {
      "inputs": [
        {
          "internalType": "address",
          "name": "target",
          "type": "address"
        },
        {
          "internalType": "uint256",
          "name": "value",
          "type": "uint256"
        },
        {
          "internalType": "bytes",
          "name": "data",
          "type": "bytes"
        }
      ],
      "name": "relay",
      "outputs": [],
      "stateMutability": "payable",
      "type": "function"
    },
    {
      "inputs": [],
      "name": "renounceOwnership",
      "outputs": [],
      "stateMutability": "nonpayable",
      "type": "function"
    },
    {
      "inputs": [
        {
          "internalType": "uint256",
          "name": "proposalId",
          "type": "uint256"
        }
      ],
      "name": "requestCollections",
      "outputs": [],
      "stateMutability": "payable",
      "type": "function"
    },
    {
      "inputs": [],
      "name": "secondsPerBlock",
      "outputs": [
        {
          "internalType": "uint256",
          "name": "",
          "type": "uint256"
        }
      ],
      "stateMutability": "view",
      "type": "function"
    },
    {
      "inputs": [
        {
          "internalType": "uint256",
          "name": "newProposalThreshold",
          "type": "uint256"
        }
      ],
      "name": "setProposalThreshold",
      "outputs": [],
      "stateMutability": "nonpayable",
      "type": "function"
    },
    {
      "inputs": [
        {
          "internalType": "uint256",
          "name": "newVotingDelay",
          "type": "uint256"
        }
      ],
      "name": "setVotingDelay",
      "outputs": [],
      "stateMutability": "nonpayable",
      "type": "function"
    },
    {
      "inputs": [
        {
          "internalType": "uint256",
          "name": "newVotingPeriod",
          "type": "uint256"
        }
      ],
      "name": "setVotingPeriod",
      "outputs": [],
      "stateMutability": "nonpayable",
      "type": "function"
    },
    {
      "inputs": [
        {
          "internalType": "uint256",
          "name": "",
          "type": "uint256"
        }
      ],
      "name": "spokeContracts",
      "outputs": [
        {
          "internalType": "bytes32",
          "name": "contractAddress",
          "type": "bytes32"
        },
        {
          "internalType": "uint16",
          "name": "chainId",
          "type": "uint16"
        }
      ],
      "stateMutability": "view",
      "type": "function"
    },
    {
      "inputs": [
        {
          "internalType": "bytes32",
          "name": "",
          "type": "bytes32"
        },
        {
          "internalType": "uint16",
          "name": "",
          "type": "uint16"
        }
      ],
      "name": "spokeContractsMapping",
      "outputs": [
        {
          "internalType": "bool",
          "name": "",
          "type": "bool"
        }
      ],
      "stateMutability": "view",
      "type": "function"
    },
    {
      "inputs": [
        {
          "internalType": "uint256",
          "name": "",
          "type": "uint256"
        },
        {
          "internalType": "bytes32",
          "name": "",
          "type": "bytes32"
        },
        {
          "internalType": "uint16",
          "name": "",
          "type": "uint16"
        }
      ],
      "name": "spokeContractsMappingSnapshots",
      "outputs": [
        {
          "internalType": "bool",
          "name": "",
          "type": "bool"
        }
      ],
      "stateMutability": "view",
      "type": "function"
    },
    {
      "inputs": [
        {
          "internalType": "uint256",
          "name": "",
          "type": "uint256"
        },
        {
          "internalType": "uint256",
          "name": "",
          "type": "uint256"
        }
      ],
      "name": "spokeContractsSnapshots",
      "outputs": [
        {
          "internalType": "bytes32",
          "name": "contractAddress",
          "type": "bytes32"
        },
        {
          "internalType": "uint16",
          "name": "chainId",
          "type": "uint16"
        }
      ],
      "stateMutability": "view",
      "type": "function"
    },
    {
      "inputs": [
        {
          "internalType": "uint256",
          "name": "",
          "type": "uint256"
        },
        {
          "internalType": "bytes32",
          "name": "",
          "type": "bytes32"
        },
        {
          "internalType": "uint16",
          "name": "",
          "type": "uint16"
        }
      ],
      "name": "spokeVotes",
      "outputs": [
        {
          "internalType": "uint256",
          "name": "forVotes",
          "type": "uint256"
        },
        {
          "internalType": "uint256",
          "name": "againstVotes",
          "type": "uint256"
        },
        {
          "internalType": "uint256",
          "name": "abstainVotes",
          "type": "uint256"
        },
        {
          "internalType": "bool",
          "name": "initialized",
          "type": "bool"
        }
      ],
      "stateMutability": "view",
      "type": "function"
    },
    {
      "inputs": [
        {
          "internalType": "uint256",
          "name": "proposalId",
          "type": "uint256"
        }
      ],
      "name": "state",
      "outputs": [
        {
          "internalType": "enum IGovernorUpgradeable.ProposalState",
          "name": "",
          "type": "uint8"
        }
      ],
      "stateMutability": "view",
      "type": "function"
    },
    {
      "inputs": [
        {
          "internalType": "bytes4",
          "name": "interfaceId",
          "type": "bytes4"
        }
      ],
      "name": "supportsInterface",
      "outputs": [
        {
          "internalType": "bool",
          "name": "",
          "type": "bool"
        }
      ],
      "stateMutability": "view",
      "type": "function"
    },
    {
      "inputs": [],
      "name": "timelock",
      "outputs": [
        {
          "internalType": "address",
          "name": "",
          "type": "address"
        }
      ],
      "stateMutability": "view",
      "type": "function"
    },
    {
      "inputs": [],
      "name": "token",
      "outputs": [
        {
          "internalType": "contract IERC5805Upgradeable",
          "name": "",
          "type": "address"
        }
      ],
      "stateMutability": "view",
      "type": "function"
    },
    {
      "inputs": [
        {
          "internalType": "address",
          "name": "newMagistrate",
          "type": "address"
        }
      ],
      "name": "transferMagistrate",
      "outputs": [],
      "stateMutability": "nonpayable",
      "type": "function"
    },
    {
      "inputs": [
        {
          "internalType": "address",
          "name": "newOwner",
          "type": "address"
        }
      ],
      "name": "transferOwnership",
      "outputs": [],
      "stateMutability": "nonpayable",
      "type": "function"
    },
    {
      "inputs": [
        {
          "internalType": "uint256",
          "name": "newQuorumNumerator",
          "type": "uint256"
        }
      ],
      "name": "updateQuorumNumerator",
      "outputs": [],
      "stateMutability": "nonpayable",
      "type": "function"
    },
    {
      "inputs": [
        {
          "components": [
            {
              "internalType": "bytes32",
              "name": "contractAddress",
              "type": "bytes32"
            },
            {
              "internalType": "uint16",
              "name": "chainId",
              "type": "uint16"
            }
          ],
          "internalType": "struct CrossChainGovernorCountingSimple.CrossChainAddress[]",
          "name": "_spokeContracts",
          "type": "tuple[]"
        }
      ],
      "name": "updateSpokeContracts",
      "outputs": [],
      "stateMutability": "nonpayable",
      "type": "function"
    },
    {
      "inputs": [
        {
          "internalType": "contract TimelockControllerUpgradeable",
          "name": "newTimelock",
          "type": "address"
        }
      ],
      "name": "updateTimelock",
      "outputs": [],
      "stateMutability": "nonpayable",
      "type": "function"
    },
    {
      "inputs": [],
      "name": "version",
      "outputs": [
        {
          "internalType": "string",
          "name": "",
          "type": "string"
        }
      ],
      "stateMutability": "view",
      "type": "function"
    },
    {
      "inputs": [],
      "name": "votingDelay",
      "outputs": [
        {
          "internalType": "uint256",
          "name": "",
          "type": "uint256"
        }
      ],
      "stateMutability": "view",
      "type": "function"
    },
    {
      "inputs": [],
      "name": "votingPeriod",
      "outputs": [
        {
          "internalType": "uint256",
          "name": "",
          "type": "uint256"
        }
      ],
      "stateMutability": "view",
      "type": "function"
    },
    {
      "inputs": [],
      "name": "withdraw",
      "outputs": [],
      "stateMutability": "nonpayable",
      "type": "function"
    },
    {
      "inputs": [],
      "name": "wormholeRelayer",
      "outputs": [
        {
          "internalType": "contract IWormholeRelayer",
          "name": "",
          "type": "address"
        }
      ],
      "stateMutability": "view",
      "type": "function"
    },
    {
      "stateMutability": "payable",
      "type": "receive"
    }
  ],
  "bytecode": "0x6080806040523461001757615f9990816200001d8239f35b600080fdfe6080604052600436101561001b575b361561001957600080fd5b005b60003560e01c806301ffc9a71461046b57806302a251a314610466578063034201811461046157806306f3f9e61461045c57806306fdde0314610457578063143489d014610452578063150b7a021461044d578063160cbed7146104485780632656227d146104435780632d63f6931461043e5780632fe3e26114610439578063327bcb421461043457806334feb3181461042f5780633932abb11461042a5780633bccf4fd146104255780633ccfd60b146104205780633e4f49e61461041b5780634385963214610416578063452115d61461041157806345e6efa11461040c5780634bf5d7e9146104075780634c24a56414610402578063529dca32146103fd578063544ffc9c146103f857806354fd4d50146103f357806355f0f9c7146103ee57806356781388146103e95780635f398a14146103e457806360c4247f146103df578063613ab410146103da578063660f54c2146103d55780636ff499c3146103d057806370b0f660146103cb578063715018a6146103c65780637a7d4937146103c15780637b3c71d3146103bc5780637d5e81e2146103b7578063835f6ac4146103b257806384b0196e146103ad57806388ba16ab146103a85780638da5cb5b146103a357806391ddadf41461039e57806397c3d334146103995780639a802a6d146103945780639a8a05921461038f578063a7713a701461038a578063a890c91014610385578063ab58fb8e14610380578063b58131b01461037b578063b626afa214610376578063bc197c8114610371578063be43a6f51461036c578063c01f9e3714610367578063c28bc2fa14610362578063c59057e41461035d578063d2a78a9114610358578063d33219b414610353578063da25b7251461034e578063dd4e2ba514610349578063deaaa7cc14610344578063ea0217cf1461033f578063eb9019d41461033a578063ece40cc114610335578063f16ca84114610330578063f23a6e611461032b578063f2fde38b14610326578063f8ce560a14610321578063fbcd1c601461031c5763fc0c546a0361000e576129a7565b61285f565b6127c1565b612730565b6126d7565b612674565b612613565b61258e565b61252d565b612504565b6124a6565b61247c565b612452565b612393565b612377565b612255565b61221e565b6121ec565b612160565b6120d6565b6120b7565b612014565b611f79565b611f5e565b611f3b565b611e85565b611e69565b611e3e565b611e14565b611de2565b611d47565b611c81565b611bee565b611b99565b611b7a565b611b2d565b611acc565b611aa4565b611a4e565b61195e565b611883565b611814565b6117cc565b6116e3565b6116c7565b6115cd565b6114aa565b611441565b611411565b6113e7565b611391565b611355565b611326565b6112c3565b611228565b611209565b611170565b611131565b611075565b611041565b610edd565b610d0e565b610ad6565b610a8e565b6109c4565b6107ec565b610764565b610540565b346105305760203660031901126105305760043563ffffffff60e01b8116809103610530576104b990636e665ced60e01b81149081156104bd575b5060405190151581529081906020820190565b0390f35b63bf26d89760e01b81149150811561051f575b811561050e575b81156104fd575b81156104ec575b50386104a6565b6301ffc9a760e01b149050386104e5565b630271189760e51b811491506104de565b63288ace0360e11b811491506104d7565b6379dd796f60e01b811491506104d0565b600080fd5b600091031261053057565b3461053057600036600319011261053057602061013054604051908152f35b6024359060ff8216820361053057565b6044359060ff8216820361053057565b9181601f84011215610530578235916001600160401b038311610530576020838186019501011161053057565b634e487b7160e01b600052604160045260246000fd5b6001600160401b0381116105d557604052565b6105ac565b604081019081106001600160401b038211176105d557604052565b608081019081106001600160401b038211176105d557604052565b602081019081106001600160401b038211176105d557604052565b606081019081106001600160401b038211176105d557604052565b60c081019081106001600160401b038211176105d557604052565b601f909101601f19168101906001600160401b038211908210176105d557604052565b60405190610691826105da565b565b6040519060e082016001600160401b038111838210176105d557604052565b60405190610691826105f5565b6001600160401b0381116105d557601f01601f191660200190565b9190916106e6816106bf565b6106f36040519182610661565b8093828252821161053057818160009384602080950137010152565b92919261071b826106bf565b916107296040519384610661565b829481845281830111610530578281602093846000960137010152565b9080601f83011215610530578160206107619335910161070f565b90565b346105305760e03660031901126105305761077d61055f565b6001600160401b036044358181116105305761079d90369060040161057f565b91606435908111610530576107b6903690600401610746565b9260843560ff81168103610530576104b9946107dc9460c4359460a435946004356129d1565b6040519081529081906020820190565b34610530576020366003190112610530576101fe54600435906001600160a01b0316610819338214612a5a565b3003610945575b606481116108ce57600080516020615f6d833981519152906108406135f7565b801515806108c3575b610894575b61087e61086f61086a61085f61351d565b65ffffffffffff1690565b6144c4565b61087884615288565b906159ee565b505061088f60405192839283612dcf565b0390a1005b6108be6108a082615288565b6108b96108ab610684565b916000835260208301612fec565b613d10565b61084e565b506101cd5415610849565b60405162461bcd60e51b815260206004820152604360248201527f476f7665726e6f72566f74657351756f72756d4672616374696f6e3a2071756f60448201527f72756d4e756d657261746f72206f7665722071756f72756d44656e6f6d696e616064820152623a37b960e91b608482015260a490fd5b61094f36366106da565b602081519101205b80610960613c9e565b036109575750610820565b60005b83811061097e5750506000910152565b818101518382015260200161096e565b906020916109a78151809281855285808601910161096b565b601f01601f1916010190565b90602061076192818152019061098e565b3461053057600080600319360112610a7f576040518160fd546109e681612aa1565b90818452602092600191600181169081600014610a5d5750600114610a22575b6104b985610a1681890382610661565b604051918291826109b3565b92945060fd83528483205b828410610a4a57505050816104b993610a16928201019338610a06565b8054858501870152928501928101610a2d565b60ff191686860152505050151560051b8201019150610a16816104b938610a06565b80fd5b6001600160a01b031690565b346105305760203660031901126105305760043560005260fe602052602060018060a01b0360406000205460401c16604051908152f35b6001600160a01b0381160361053057565b3461053057608036600319011261053057610af2600435610ac5565b610afd602435610ac5565b6064356001600160401b03811161053057610b1c903690600401610746565b50604051630a85bd0160e11b8152602090f35b6001600160401b0381116105d55760051b60200190565b9291610b5182610b2f565b91610b5f6040519384610661565b829481845260208094019160051b810192831161053057905b828210610b855750505050565b8380918335610b9381610ac5565b815201910190610b78565b9080601f830112156105305781602061076193359101610b46565b9291610bc482610b2f565b91610bd26040519384610661565b829481845260208094019160051b810192831161053057905b828210610bf85750505050565b81358152908301908301610beb565b9080601f830112156105305781602061076193359101610bb9565b92919092610c2f84610b2f565b91610c3d6040519384610661565b829480845260208094019060051b8301928284116105305780915b848310610c6757505050505050565b82356001600160401b038111610530578691610c868684938601610746565b815201920191610c58565b9080601f830112156105305781602061076193359101610c22565b6080600319820112610530576001600160401b03916004358381116105305782610cd891600401610b9e565b926024358181116105305783610cf091600401610c07565b9260443591821161053057610d0791600401610c91565b9060643590565b3461053057610d1c36610cac565b92610d2c8483858496959661382c565b92610d4a6004610d3b86613f09565b610d448161131c565b14612bfa565b6101fe92610d60610d5b8554610a82565b610a82565b60405163793d064960e11b8152909460209081836004818a5afa968715610e88578993600098610eba575b5060405163b1c5f42760e01b8152938391859182908190610db2908b8b8e60048601612d05565b03915afa8015610e8857610dde93610d5b93600092610e8d575b5050610dd7896110ca565b5554610a82565b90813b156105305760008094610e0b876040519a8b97889687956308f2a0bb60e41b875260048701612d4b565b03925af1928315610e8857610e4f7f9a2e42fd6722813d69113e7d0079d3d940171428df7373df9c7f7617cfda289292610e5c926104b996610e6f575b5042612dc2565b6040519182918583612dcf565b0390a16040519081529081906020820190565b80610e7c610e82926105c2565b80610535565b38610e48565b612c5f565b610eac9250803d10610eb3575b610ea48183610661565b810190612c50565b3880610dcc565b503d610e9a565b83919850610ed58791833d8511610eb357610ea48183610661565b989150610d8b565b610ee636610cac565b909291610ef58285838661382c565b92610eff84613f09565b600881101561103c57806004610f1e9214908115611028575b50612bfa565b610f326002610f2c866110db565b01612de0565b604080518581527f712ae1383f79ac853f8d882153778e0260ef8f03b504e2866e0593e04d2b291f60208092a16101fe546001600160a01b039081163003610f8e575b6104b987610f86888b898985613d65565b6107dc613def565b9092969194939560009460005b895181101561100d576001903085610fb3838e61397a565b511614610fc1575b01610f9b565b610fcb818761397a565b5187815191012060ff90815490608091821d9081600f0b8c526101008b528c8c205582549185808060801b03199201901b1690848060801b0316179055610fbb565b5094509591925050610f8693506104b9959195819394610f75565b600591506110358161131c565b1438610f18565b611306565b346105305760203660031901126105305760043560005260fe602052602060018060401b0360406000205416604051908152f35b34610530576000366003190112610530576020604051600080516020615eed8339815191528152f35b61ffff81160361053057565b60609060031901126105305760043590602435906044356107618161109e565b6000526101ff602052604060002090565b60005260fe602052604060002090565b600052610197602052604060002090565b600052610196602052604060002090565b600052610193602052604060002090565b9061ffff16600052602052604060002090565b3461053057602060ff611164611146366110aa565b9160005261019585526040600020906000528452604060002061111e565b54166040519015158152f35b346105305760203660031901126105305760043561118d81610ac5565b611195613e20565b6001600160a01b038116156111ad5761001990613e8b565b60405162461bcd60e51b815260206004820152602e60248201527f4d6167697374726174653a206e6577206d61676973747261746520697320746860448201526d65207a65726f206164647265737360901b6064820152608490fd5b3461053057600036600319011261053057602061012f54604051908152f35b346105305760a0366003190112610530576104b96107dc60043561124a61055f565b6112ad6112a561125861056f565b6040516020810191600080516020615ecd833981519152835286604083015260ff861660608301526060825261128d826105f5565b6112a06084359360643593519020613a95565b614fa6565b919091615028565b604051926112ba84610610565b60008452613ed5565b3461053057600080600319360112610a7f576112dd613e20565b4780156112f45781808080933382f115610e885780f35b60405163334ab3f560e11b8152600490fd5b634e487b7160e01b600052602160045260246000fd5b6008111561103c57565b3461053057602036600319011261053057611342600435613f09565b604051600882101561103c576020918152f35b3461053057604036600319011261053057602060ff61116460243561137981610ac5565b60043560005261019884526003604060002001612dfe565b346105305761139f36610cac565b906113ae82828587969761382c565b6000526101966020526040600020546113d5576020936113cd93614014565b604051908152f35b604051636309349760e01b8152600490fd5b3461053057600036600319011261053057610230546040516001600160a01b039091168152602090f35b34610530576000366003190112610530576104b961142d612e4e565b60405191829160208352602083019061098e565b3461053057604036600319011261053057602060ff6111646024356114658161109e565b6004356000526101938452604060002061111e565b9181601f84011215610530578235916001600160401b038311610530576020808501948460051b01011161053057565b60a0366003190112610530576001600160401b0360048035828111610530576114d6903690830161057f565b9092602435908111610530576114ef903690840161147a565b5050606435926114fe8461109e565b60843591611514610d5b610d5b61023154610a82565b33036115bc5761153961153284600052610234602052604060002090565b5460ff1690565b6115ab579061154a91810190612f16565b9492306001600160a01b0390911603915061159c9050575061157a61157f91600052610234602052604060002090565b612de0565b61ffff6020820151161561158f57005b610019916044359061414e565b60405163763d29ab60e01b8152fd5b604051637b04260960e01b81528490fd5b6040516381316de160e01b81528490fd5b3461053057602080600319360112610530576004358060005261019860205260406000208054906001936001820154936002809301549261019454916001935b8361ffff861611156116325760408051888152602081018a9052908101879052606090f35b909193956116b3899496866116aa6116a16116b995611697896116918f61168761167761167161166b8f9461166690612f7b565b611a0e565b50612f8f565b946110eb565b8451600052602052604060002090565b92015161ffff1690565b9061111e565b9e8f015490612dc2565b9b8d5490612dc2565b9b015490612dc2565b96612f68565b93919097969594929761160d565b34610530576000366003190112610530576104b961142d612fb1565b60203660031901126105305760043561171d6117116001611703846110db565b01546001600160401b031690565b6001600160401b031690565b42106117ba5761173b61153282600052610235602052604060002090565b6117a8578061175b61157a61001993600052610235602052604060002090565b611764816110fc565b541561179a575b604080516001602082015290810182905261179381606081015b03601f198101835282610661565b33916143ba565b6117a38161422c565b61176b565b604051630e48ab7960e21b8152600490fd5b60405163e9d8ca6f60e01b8152600490fd5b346105305760403660031901126105305760206113cd6117ea61055f565b6040516117f681610610565b600081526040519161180783610610565b6000835233600435613b75565b346105305760803660031901126105305761182d61055f565b6001600160401b03906044358281116105305761184e90369060040161057f565b9091606435938411610530576118796113cd936118716020963690600401610746565b93369161070f565b9033600435613b75565b346105305760203660031901126105305760206113cd60043561301d565b9080601f830112156105305781359160206118bb84610b2f565b936040936118cc6040519687610661565b818652828087019260061b85010193818511610530578301915b8483106118f65750505050505090565b858383031261053057838691825161190d816105da565b853581528286013561191e8161109e565b838201528152019201916118e6565b65ffffffffffff81160361053057565b60e435906106918261192d565b610104359063ffffffff8216820361053057565b34610530576101603660031901126105305760043561197c81610ac5565b6024359061198982610ac5565b604435916001600160401b038311610530576119ac6100199336906004016118a1565b91606435906119ba8261109e565b608435906119c782610ac5565b60a4356119d381610ac5565b6119db61193d565b926119e461194a565b946101443597610124359760c435956131a2565b634e487b7160e01b600052603260045260246000fd5b6101948054821015611a2d5760005260206000209060011b0190600090565b6119f8565b8054821015611a2d5760005260206000209060011b0190600090565b3461053057604036600319011261053057602435600435600052610196602052604060002090815481101561053057611a8691611a32565b5080546001909101546040805192835261ffff909116602083015290f35b34610530576020366003190112610530576004356101945481101561053057611a8690611a0e565b34610530576020366003190112610530576101fe546001600160a01b0316611af5338214612a5a565b3003611b07575b610019600435614812565b611b1136366106da565b602081519101205b80611b22613c9e565b03611b195750611afc565b3461053057600080600319360112610a7f57611b4761484e565b61016180546001600160a01b0319811690915581906001600160a01b0316600080516020615f4d8339815191528280a380f35b3461053057600036600319011261053057602061023254604051908152f35b3461053057606036600319011261053057611bb261055f565b6044356001600160401b03811161053057602091611be1611bda6113cd93369060040161057f565b369161070f565b6040519161180783610610565b34610530576080366003190112610530576001600160401b0360043581811161053057611c1f903690600401610b9e565b5060243581811161053057611c38903690600401610c07565b5060443581811161053057611c51903690600401610c91565b50606435908111610530573660238201121561053057611c7b90369060248160040135910161070f565b5061350b565b3461053057602036600319011261053057600435600052610235602052602060ff604060002054166040519015158152f35b90815180825260208080930193019160005b828110611cd3575050505090565b835185529381019392810192600101611cc5565b91611d1c90611d0e61076197959693600f60f81b865260e0602087015260e086019061098e565b90848203604086015261098e565b60608301949094526001600160a01b03166080820152600060a082015280830360c090910152611cb3565b34610530576000366003190112610530576065541580611dd8575b15611d9b57611d6f612adb565b611d77612b7b565b906104b9604051611d8781610610565b600081526040519384933091469186611ce7565b60405162461bcd60e51b81526020600482015260156024820152741152540dcc4c8e88155b9a5b9a5d1a585b1a5e9959605a1b6044820152606490fd5b5060665415611d62565b3461053057602036600319011261053057600435600052610234602052602060ff604060002054166040519015158152f35b3461053057600036600319011261053057610161546040516001600160a01b039091168152602090f35b34610530576000366003190112610530576020611e5961351d565b65ffffffffffff60405191168152f35b3461053057600036600319011261053057602060405160648152f35b3461053057606036600319011261053057600435611ea281610ac5565b6044356001600160401b03811161053057611ec1903690600401610746565b5061019954604051630748d63560e31b81526001600160a01b03928316600482015260248035908201529160209183916044918391165afa8015610e88576104b991600091611f1c575b506040519081529081906020820190565b611f35915060203d602011610eb357610ea48183610661565b38611f0b565b3461053057600036600319011261053057602061ffff6102335416604051908152f35b346105305760003660031901126105305760206113cd6135f7565b3461053057602036600319011261053057600435611f9681610ac5565b6101fe805490916001600160a01b03918216611fb3338214612a5a565b3003611fee575b600080516020615f0d833981519152604083855493169381519084168152846020820152a16001600160a01b031916179055005b611ff836366106da565b602081519101205b80612009613c9e565b036120005750611fba565b34610530576020366003190112610530576101fe54612066906020906001600160a01b03166120446004356110ca565b5490604051808095819463d45c443560e01b8352600483019190602083019252565b03915afa908115610e8857600091612098575b506001810361208f575060405160008152602090f35b6104b9906107dc565b6120b1915060203d602011610eb357610ea48183610661565b38612079565b3461053057600036600319011261053057602061013154604051908152f35b6080366003190112610530576001600160401b036004358181116105305761210290369060040161147a565b6024929192358281116105305761211d90369060040161147a565b6044949194358481116105305761213890369060040161147a565b91606435958611610530576104b9966121586107dc97369060040161057f565b969095613628565b346105305760a03660031901126105305761217c600435610ac5565b612187602435610ac5565b6001600160401b03604435818111610530576121a7903690600401610c07565b50606435818111610530576121c0903690600401610c07565b50608435908111610530576121d9903690600401610746565b5060405163bc197c8160e01b8152602090f35b3461053057602036600319011261053057600435600052610236602052602060ff604060002054166040519015158152f35b346105305760203660031901126105305760043560005260fe602052602060018060401b0360016040600020015416604051908152f35b60603660031901126105305760043561226d81610ac5565b6044356001600160401b0381116105305761228c90369060040161057f565b6101fe54909291906001600160a01b03166122a8338214612a5a565b3003612351575b61234691836040519485938437820190600094859383858095520391602435905af13d1561234a573d6122e1816106bf565b906122ef6040519283610661565b81523d84602083013e5b604051916123068361062b565b602883527f476f7665726e6f723a2072656c617920726576657274656420776974686f7574602084015267206d65737361676560c01b6040840152614e2f565b5080f35b60606122f9565b61235b36366106da565b602081519101205b8061236c613c9e565b0361236357506122af565b346105305760206113cd61238a36610cac565b9291909161382c565b6080366003190112610530576001600160401b03600435818111610530576123bf90369060040161147a565b9190602435828111610530576123d990369060040161147a565b9093604435938411610530576124216124156104b99661240d61240361242798369060040161147a565b9790953691610b46565b943691610bb9565b91606435943691610c22565b91614014565b6107dc60405161244a816117858560208301919060206040840193600281520152565b3090836143ba565b34610530576000366003190112610530576101fe546040516001600160a01b039091168152602090f35b3461053057600036600319011261053057610231546040516001600160a01b039091168152602090f35b34610530576000366003190112610530576104b96040516124c6816105da565b602081527f737570706f72743d627261766f2671756f72756d3d666f722c6162737461696e602082015260405191829160208352602083019061098e565b34610530576000366003190112610530576020604051600080516020615ecd8339815191528152f35b34610530576020366003190112610530576101fe546001600160a01b0316612556338214612a5a565b3003612568575b610019600435614e6f565b61257236366106da565b602081519101205b80612583613c9e565b0361257a575061255d565b34610530576040366003190112610530576004356125ab81610ac5565b60006040516125b981610610565b5261019954604051630748d63560e31b81526001600160a01b03928316600482015260248035908201529160209183916044918391165afa8015610e88576104b991600091611f1c57506040519081529081906020820190565b34610530576020366003190112610530576101fe546001600160a01b031661263c338214612a5a565b300361264e575b610019600435614f00565b61265836366106da565b602081519101205b80612669613c9e565b036126605750612643565b346105305760806126a7612687366110aa565b91600052610197602052604060002090600052602052604060002061111e565b80549060018101549060ff6003600283015492015416916040519384526020840152604083015215156060820152f35b346105305760a0366003190112610530576126f3600435610ac5565b6126fe602435610ac5565b6084356001600160401b0381116105305761271d903690600401610746565b5060405163f23a6e6160e01b8152602090f35b346105305760203660031901126105305760043561274d81610ac5565b61275561484e565b6001600160a01b0381161561276d57610019906148a7565b60405162461bcd60e51b815260206004820152602660248201527f4f776e61626c653a206e6577206f776e657220697320746865207a65726f206160448201526564647265737360d01b6064820152608490fd5b34610530576020366003190112610530576024600435602060018060a01b03610199541660405193848092632394e7a360e21b82528560048301525afa918215610e88576104b9926064926128289260009261283a575b506128229061301d565b9061390f565b04604051918291829190602083019252565b6128229192506128589060203d602011610eb357610ea48183610661565b9190612818565b34610530576020806003193601126105305760049081356001600160401b038111610530576128929036906004016118a1565b9061289b61484e565b6101945460015b818111156129715750506128b4613922565b81519160015b838111156128df576128ca613a22565b600080516020615f2d833981519152600080a2005b6128f16128eb82612fce565b8361397a565b516128fc815161110d565b600161291c61291761153288860194611691865161ffff1690565b151590565b14612955578161294661157a61294b9361169161293d61295098975161110d565b915161ffff1690565b6139c3565b613900565b6128ba565b60405162461bcd60e51b81528061296d818a0161398e565b0390fd5b8061294b61299861298a61166b6116666129a296612fce565b61169187611687835161110d565b805460ff19169055565b6128a2565b3461053057600036600319011261053057610199546040516001600160a01b039091168152602090f35b9492612a4c61076198612a5494939698611bda966112a08a8a8d6129f6368a8c61070f565b6020815191012090602081519101209060ff604051936020850195600080516020615eed83398151915287526040860152166060840152608083015260a082015260a08152612a4481610646565b519020613a95565b949094615028565b92613b75565b15612a6157565b60405162461bcd60e51b8152602060048201526018602482015277476f7665726e6f723a206f6e6c79476f7665726e616e636560401b6044820152606490fd5b90600182811c92168015612ad1575b6020831014612abb57565b634e487b7160e01b600052602260045260246000fd5b91607f1691612ab0565b6040519060008260675491612aef83612aa1565b808352602093600190818116908115612b5b5750600114612b19575b505061069192500383610661565b90939150606760005281600020936000915b818310612b4357505061069193508201013880612b0b565b85548884018501529485019487945091830191612b2b565b91505061069194925060ff191682840152151560051b8201013880612b0b565b6040519060008260685491612b8f83612aa1565b808352602093600190818116908115612b5b5750600114612bb857505061069192500383610661565b90939150606860005281600020936000915b818310612be257505061069193508201013880612b0b565b85548884018501529485019487945091830191612bca565b15612c0157565b60405162461bcd60e51b815260206004820152602160248201527f476f7665726e6f723a2070726f706f73616c206e6f74207375636365737366756044820152601b60fa1b6064820152608490fd5b90816020910312610530575190565b6040513d6000823e3d90fd5b90815180825260208080930193019160005b828110612c8b575050505090565b83516001600160a01b031685529381019392810192600101612c7d565b90808251908181526020809101926020808460051b8301019501936000915b848310612cd75750505050505090565b9091929394958480612cf5600193601f198682030187528a5161098e565b9801930193019194939290612cc7565b949392612d31608093612d23612d3f9460a08a5260a08a0190612c6b565b9088820360208a0152611cb3565b908682036040880152612ca8565b93600060608201520152565b9192612d7a60a094612d6c612d88949998979960c0875260c0870190612c6b565b908582036020870152611cb3565b908382036040850152612ca8565b946000606083015260808201520152565b634e487b7160e01b600052601160045260246000fd5b9060018201809211612dbd57565b612d99565b91908201809211612dbd57565b908152602081019190915260400190565b805460ff19166001179055565b9060ff801983541691151516179055565b9060018060a01b0316600052602052604060002090565b60405190612e22826105da565b601d82527f6d6f64653d626c6f636b6e756d6265722666726f6d3d64656661756c740000006020830152565b61019954604051634bf5d7e960e01b8152906000908190839060049082906001600160a01b03165afa90918282612e8f575b50506107615750610761612e15565b909192503d8082843e612ea28184610661565b820191602081840312612f0e578051906001600160401b038211612f12570182601f82011215612f0e57805191612ed8836106bf565b93612ee66040519586610661565b83855260208484010111610a7f575090612f06916020808501910161096b565b903880612e80565b5080fd5b8280fd5b90608082820312610530578135612f2c81610ac5565b926020830135612f3b8161109e565b926040810135612f4a81610ac5565b9260608201356001600160401b038111610530576107619201610746565b61ffff809116908114612dbd5760010190565b61ffff9081166000190191908211612dbd57565b90604051612f9c816105da565b602061ffff6001839580548552015416910152565b60405190612fbe826105da565b60018252603160f81b6020830152565b600019810191908211612dbd57565b602719810191908211612dbd57565b6001600160e01b039091169052565b90604051613008816105da565b602081935463ffffffff81168352811c910152565b6101cd805490811561319857600019828101838111612dbd57831115611a2d5760009382855261305560209285602088200101612ffb565b9063ffffffff91818382511611156131815750613071906144c4565b92818695806005811161313c575b509593941691905b8584106130f257505050505080156000146130aa57505b6001600160e01b031690565b6130ed91506130bb6130e691612fce565b6101cd6000527f41bf21270d8c221a457e2f64e0b5e3c274a814409eea17edf41bb9eb4ee64eb00190565b5460201c90565b61309e565b90919293948085169080861860011c8201809211612dbd57828852848483898b200154161160001461312a5750945b93929190613087565b95945061313690612daf565b93613121565b91506131478261545a565b8203918211612dbd57828852602088208201548416868516101561316f575082905b3861307f565b955061317b8391612daf565b95613169565b602001516001600160e01b03169695505050505050565b5050506101cc5490565b989694929099979593916000549a60ff8c60081c1615809c819d6132cd575b81156132ad575b5015613251576131ee9a8c6131e5600160ff196000541617600055565b613238576132db565b6131f457565b61320461ff001960005416600055565b604051600181527f7f26b83ff96e1f2b6a682f133852f6798a09c465da95921460cefb38474024989080602081015b0390a1565b61324c61010061ff00196000541617600055565b6132db565b60405162461bcd60e51b815260206004820152602e60248201527f496e697469616c697a61626c653a20636f6e747261637420697320616c72656160448201526d191e481a5b9a5d1a585b1a5e995960921b6064820152608490fd5b303b159150816132bf575b50386131c8565b6001915060ff1614386132b8565b600160ff82161091506131c1565b93989192979994969095996040516132f2816105da565b6011815260207026b2ba30a43ab6b0b723b7bb32b93737b960791b602083015260ff60005460081c169061332582614529565b613336613330612fb1565b92614529565b8251906001600160401b0382116105d55761335b82613356606754612aa1565b61559a565b602090601f831160011461344557506106919e9d9b976133e46133f8986134349f9c969865ffffffffffff6134119f9a6133f39a6133fd9f9863ffffffff926133c36133ee9c6133bb846133dc956133e99e60009161343a575b5061569c565b6067556156af565b6133cd6000606555565b6133d76000606655565b61578f565b169116614589565b6145be565b6146e4565b61471b565b61479c565b6147f4565b61ffff610233911661ffff19825416179055565b61023180546001600160a01b0319166001600160a01b0392909216919091179055565b61023255565b9050850151386133b5565b6067600052907f9787eeb91fe3101235e4a76063c7023ecb40f923f97916639c598592fa30d6ae916000905b601f19851682106134f3575050976106919f9e9c986133f8986134349f9c969865ffffffffffff6134119f9a6133f39a6133fd9f9863ffffffff926133c36133ee9c6001846133e99d6133e49c6133dc97601f198116106134da575b5050811b016067556156af565b86015160001960f88460031b161c1916905538806134cd565b80600184958294958a01518155019401920190613471565b60405163209bb48960e01b8152600490fd5b610199546040516324776b7d60e21b815290602090829060049082906001600160a01b03165afa600091816135ba575b50610761575065ffffffffffff80431161356657431690565b60405162461bcd60e51b815260206004820152602660248201527f53616665436173743a2076616c756520646f65736e27742066697420696e203460448201526538206269747360d01b6064820152608490fd5b9091506020813d6020116135ef575b816135d660209383610661565b8101031261053057516135e88161192d565b903861354d565b3d91506135c9565b6101cd80548061360a5750506101cc5490565b600019918183810111612dbd57600052602060002001015460201c90565b6137cc93946136756136859461366d61367d947f7d84a6263ae0d98d3329bd7b46bb4e8d6f98cd35a7adb45c274c8b7fd5ebd5e09b96613666613e20565b3691610b46565b973691610bb9565b963691610c22565b96369161070f565b6136976136928233615883565b614927565b6136a261085f61351d565b956136c36136b86136b289612fce565b33613890565b610131541115614973565b6137346136d88351602085012083888861382c565b976136e686518851146149d9565b6136f386518451146149d9565b6136ff86511515614a2f565b61372a6001600160401b036137236137168c6110db565b546001600160401b031690565b1615614a76565b61012f5490612dc2565b6137416101305482612dc2565b916137b461374e8361593c565b61379161375a8661593c565b613774613765610693565b6001600160401b039094168452565b336020840152600060408401526001600160401b03166060830152565b60006080820152600060a0820152600060c08201526137af8b6110db565b614aeb565b6137be8651614bb2565b604051978897338c8a614bfc565b0390a16137d881614db1565b6107616137ea611711613716846110db565b61244a6137fe6117116001611703876110db565b6040805160006020820152908101869052426060820152608081019390935260a08301528160c08101611785565b92906138789261388a92604051948592613868613855602086019960808b5260a0870190612c6b565b601f199687878303016040880152611cb3565b9085858303016060860152612ca8565b90608083015203908101835282610661565b51902090565b60209060006040516138a181610610565b5261019954604051630748d63560e31b81526001600160a01b039283166004820152602481019490945283916044918391165afa908115610e88576000916138e7575090565b610761915060203d602011610eb357610ea48183610661565b6000198114612dbd5760010190565b81810292918115918404141715612dbd57565b610194805490600090600081558261393957505050565b6001906001600160ff1b0384168403612dbd5760005260206000209260011b8301925b8381106139695750505050565b80836002925583838201550161395c565b8051821015611a2d5760209160051b010190565b60609060208152601a602082015279111d5c1b1a58d85d195cc8185c99481b9bdd08185b1b1bddd95960321b60408201520190565b6101948054600160401b8110156105d5576139e391600182019055611a0e565b613a0c57600161ffff6020846106919551855501511691019061ffff1661ffff19825416179055565b634e487b7160e01b600052600060045260246000fd5b60408051610194805460009182529192839283927fa6f1ac7ad7b125ba5a5e1c96b00ad6914f90a503b1ac3d85a9dadbb4c639df929260205b838310613a6d57505050505003902090565b8454865260018086015461ffff16878301528897509582019560029095019490920191613a5b565b604290613aa0615e0f565b613aa8615e5a565b6040519060208201927f8b73c3c69bb8fe3d512ecc4cf759cc79239f7b179b0ffacaa9a75d522b39400f8452604083015260608201524660808201523060a082015260a08152613af781610646565b519020906040519161190160f01b8352600283015260228201522090565b93909260ff613b419361076197958752166020860152604085015260a0606085015260a084019061098e565b91608081840391015261098e565b909260ff608093610761969584521660208301526040820152816060820152019061098e565b9291908360005260fe60205260406000206001613b9186613f09565b613b9a8161131c565b03613c4d57613bb6611711613bbc92546001600160401b031690565b826148df565b94613bc98684848861519f565b8051613c115750613c0b7fb8e138887d0aa13bab447e82de9d5c1777041ecd21ca36ba824ff1e6c07ddda4938660405194859460018060a01b03169785613b4f565b0390a290565b613c0b907fe2babfbac5889a709b63bb7f598b324e08bc5a4fb9ec647fb3cbc9ec07eb8712948760405195869560018060a01b03169886613b15565b60405162461bcd60e51b815260206004820152602360248201527f476f7665726e6f723a20766f7465206e6f742063757272656e746c792061637460448201526269766560e81b6064820152608490fd5b60ff549081600f0b809260801d600f0b1315613ce757816000526101006020526040600020916000835493556001808060801b031960ff5416910160018060801b03161760ff55565b604051631ed9509560e11b8152600490fd5b9063ffffffff82549181199060201b169116179055565b6101cd908154600160401b8110156105d55760018101808455811015611a2d57610691926000526020600020019063ffffffff81511663ffffffff19835416178255602060018060e01b039101511690613cf9565b92919092613d728161422c565b60005261023660205260ff6040600020541615613ddd576101fe546001600160a01b031690813b1561053057600093613dc16040519687958694859463e38335e560e01b865260048601612d05565b039134905af18015610e8857613dd45750565b610691906105c2565b604051631f518a7d60e01b8152600490fd5b6101fe546001600160a01b03163003613e0457565b60ff5480600f0b9060801d600f0b13613e1957565b600060ff55565b610230546001600160a01b03163303613e3557565b60405162461bcd60e51b815260206004820152602860248201527f4d6167697374726174653a2063616c6c6572206973206e6f7420746865206d61604482015267676973747261746560c01b6064820152608490fd5b61023080546001600160a01b039283166001600160a01b0319821681179092559091167fb4aa40c4569b1278aa7da5bab0f345910781d388f8257b0bec17a317e2efb6b5600080a3565b91610761939160405193613ee885610610565b60008552613b75565b90816020910312610530575180151581036105305790565b613f12816152f1565b90613f1c8261131c565b6004820361401057613f2d906110ca565b5480613f37575090565b9050613f48610d5b6101fe54610a82565b604051632ab0f52960e01b81526004810183905260209291908381602481855afa908115610e8857600091613ff3575b5015613f8657505050600790565b604051632c258a9f60e11b815260048101929092528290829060249082905afa918215610e8857600092613fc6575b505015613fc157600590565b600290565b613fe59250803d10613fec575b613fdd8183610661565b810190613ef1565b3880613fb5565b503d613fd3565b61400a9150843d8611613fec57613fdd8183610661565b38613f78565b5090565b9291906140238383838761382c565b61402c81613f09565b600881101561103c576140af576001600160a01b039061404b906110db565b5460401c16330361405f5761076193615c4d565b60405162461bcd60e51b815260206004820152602260248201527f476f7665726e6f723a206f6e6c792070726f706f7365722063616e2063616e63604482015261195b60f21b6064820152608490fd5b60405162461bcd60e51b815260206004820152601c60248201527b11dbdd995c9b9bdc8e881d1bdbc81b185d19481d1bc818d85b98d95b60221b6044820152606490fd5b908160a09103126105305780516141098161109e565b916020820151916040810151916080606083015192015190565b6003606061069193805184556020810151600185015560408101516002850155015115159101612ded565b9161416290602080825183010191016140f3565b9192949350946141a361419f6115328361419a8861418b8b600052610195602052604060002090565b90600052602052604060002090565b61111e565b1590565b61421a576141c560036141bd8361419a8861418b8b6110eb565b015460ff1690565b156141dc57604051639f69a0f560e01b8152600490fd5b61419a6142159461421093610691986141f36106b2565b968752602087015260408601526001606086015261418b876110eb565b614123565b61422c565b604051630aa3566560e11b8152600490fd5b9060019160019060009381855280602061019660205260409660408120549181945b614278575b505050505061069192935061427390600052610236602052604060002090565b612ded565b909192939561ffff848189161080614314575b1561430d5781876142ae92888b8e82999897956142b6575b505050505097612f68565b94939261424e565b60ff9550916142f661430094926142e387956003988d526101978c52808d208d6142e8856142e38b6110fc565b611a32565b505490528c528c20956110fc565b500154169061111e565b0154168738868b8e6142a3565b5095614253565b508161428b565b90610761949361ffff60809460018060a01b038094168552166020840152166040820152816060820152019061098e565b9081602091031261053057516001600160401b03811681036105305790565b9395949061439d60c09461ffff809316875260018060a01b03809516602088015260e0604088015260e087019061098e565b96600060608701526207a12060808701521660a085015216910152565b91906143c5836110fc565b549160005b8361ffff8216106143dc575050505050565b6143f860016143ee836142e3896110fc565b50015461ffff1690565b90614413610d5b61440c836142e38a6110fc565b5054610a82565b60409283519060209282614431816117858b8b87878b809b0161431b565b61443a836153d8565b614449610d5b61023154610a82565b9261447661445961023054610a82565b99516312d729bd60e21b8152998a9687958694826004870161436b565b03925af1928315610e885761449193614496575b5050612f68565b6143ca565b816144b592903d106144bd575b6144ad8183610661565b81019061434c565b50388061448a565b503d6144a3565b63ffffffff908181116144d5571690565b60405162461bcd60e51b815260206004820152602660248201527f53616665436173743a2076616c756520646f65736e27742066697420696e203360448201526532206269747360d01b6064820152608490fd5b1561453057565b60405162461bcd60e51b815260206004820152602b60248201527f496e697469616c697a61626c653a20636f6e7472616374206973206e6f74206960448201526a6e697469616c697a696e6760a81b6064820152608490fd5b61069192916145b46145b9926145af60ff60005460081c166145aa81614529565b614529565b614812565b614e6f565b614f00565b6145dc60ff60005460081c166145d381614529565b6145aa81614529565b6145e5336148a7565b6145f660ff60005460081c16614529565b6145fe61484e565b6101945460015b818111156146b7575050614617613922565b80519060015b8281111561464557505050614630613a22565b600080516020615f2d833981519152600080a2565b6146516128eb82612fce565b519061465d825161110d565b60016146796129176115326020870194611691865161ffff1690565b1461469e578261294661157a61294b9361169161293d614699985161110d565b61461d565b60405162461bcd60e51b81528061296d6004820161398e565b8061294b6129986146d061166b6116666146df96612fce565b6116916020611687835161110d565b614605565b6146f960ff60005460081c166145aa81614529565b61019980546001600160a01b0319166001600160a01b03909216919091179055565b61473060ff60005460081c166145aa81614529565b606481116108ce57600080516020615f6d833981519152906147506135f7565b80151580614791575b614780575b61476f61086f61086a61085f61351d565b505061323360405192839283612dcf565b61478c6108a082615288565b61475e565b506101cd5415614759565b6147b160ff60005460081c166145aa81614529565b6101fe8054604080516001600160a01b038084168252909416602085018190529293600080516020615f0d8339815191529190a16001600160a01b031916179055565b6106919061480d60ff60005460081c166145d381614529565b613e8b565b61012f7fc565b045403dc03c2eea82b81a0465edad9e2e7fc4d97e11421c209da93d7a9382825461484860405192839283612dcf565b0390a155565b610161546001600160a01b0316330361486357565b606460405162461bcd60e51b815260206004820152602060248201527f4f776e61626c653a2063616c6c6572206973206e6f7420746865206f776e65726044820152fd5b61016180546001600160a01b039283166001600160a01b031982168117909255909116600080516020615f4d833981519152600080a3565b61019954604051630748d63560e31b81526001600160a01b039283166004820152602481019390935260209183916044918391165afa908115610e88576000916138e7575090565b1561492e57565b60405162461bcd60e51b815260206004820152601d60248201527f476f7665726e6f723a2070726f706f73657220726573747269637465640000006044820152606490fd5b1561497a57565b60405162461bcd60e51b815260206004820152603160248201527f476f7665726e6f723a2070726f706f73657220766f7465732062656c6f7720706044820152701c9bdc1bdcd85b081d1a1c995cda1bdb19607a1b6064820152608490fd5b156149e057565b60405162461bcd60e51b815260206004820152602160248201527f476f7665726e6f723a20696e76616c69642070726f706f73616c206c656e67746044820152600d60fb1b6064820152608490fd5b15614a3657565b60405162461bcd60e51b815260206004820152601860248201527711dbdd995c9b9bdc8e88195b5c1d1e481c1c9bdc1bdcd85b60421b6044820152606490fd5b15614a7d57565b60405162461bcd60e51b815260206004820152602160248201527f476f7665726e6f723a2070726f706f73616c20616c72656164792065786973746044820152607360f81b6064820152608490fd5b80546001600160401b0319166001600160401b03909216919091179055565b90614b9c60c060026106919460018060401b03614b0b8187511683614acc565b602086015182546040808901519390911691901b600160401b600160e01b0316176001600160e01b03199091161781556060850151614b7d906001830190614b5c906001600160401b031682614acc565b608087015181546001600160401b03166001600160401b0319909116179055565b0192614b95614b8f60a0830151151590565b85612ded565b0151151590565b815461ff00191690151560081b61ff0016179055565b90614bbc82610b2f565b614bc96040519182610661565b8281528092614bda601f1991610b2f565b019060005b828110614beb57505050565b806060602080938501015201614bdf565b9592614c3090614c3e939b9a989996959261012090895260209c60018060a01b03168d8a01528060408a0152880190612c6b565b908682036060880152611cb3565b9784890360808601528251808a52818a019180808360051b8d01019501926000905b838210614c9d57505050505061076196975090614c849184820360a0860152612ca8565b9360c083015260e082015261010081840391015261098e565b90919293958380614cbc8f93600194601f199082030186528a5161098e565b98019201920190939291614c60565b61019490818114614dad57815491600160401b83116105d5578154838355808410614d59575b506000526020600020906000526020600020906000905b838210614d155750505050565b806001918403614d30575b6002809101930191019091614d08565b80548455614d548261ffff81840154169086019061ffff1661ffff19825416179055565b614d20565b60016001600160ff1b038281168303612dbd5785168503612dbd576000908460005260206000209260011b8301928660011b015b838110614d9c57505050614cf1565b808360029255838382015501614d8d565b5050565b610194546001805b82811115614dd557505050614dd0610691916110fc565b614ccb565b600019810190808211612dbd57614e1b614df461166b614e2a94611a0e565b61ffff6000888152602090610195825260409081812085518252835220920151169061111e565b805460ff191684179055613900565b614db9565b90919015614e3b575090565b815115614e4b5750805190602001fd5b60405162461bcd60e51b81526020600482015290819061296d90602483019061098e565b8015614eab576101307f7e3f7f0708a84de9203036abaa450dccc85ad5ff52f78c170f3edb55cf5e882882825461484860405192839283612dcf565b60405162461bcd60e51b815260206004820152602760248201527f476f7665726e6f7253657474696e67733a20766f74696e6720706572696f6420604482015266746f6f206c6f7760c81b6064820152608490fd5b6101317fccb45da8d5717e6c4544694297c4ba5cf151d455c9bb0ed4fc7a38411bc0546182825461484860405192839283612dcf565b8115614f40570490565b634e487b7160e01b600052601260045260246000fd5b61019954604051632394e7a360e21b81526004810183905290602090829060249082906001600160a01b03165afa8015610e8857606492614fa29260009261283a57506128229061301d565b0490565b9291906fa2a8918ca85bafe22016d0b997e4df60600160ff1b0383116150125791608094939160ff602094604051948552168484015260408301526060820152600093849182805260015afa15610e885781516001600160a01b0381161561500c579190565b50600190565b50505050600090600390565b6005111561103c57565b6150318161501e565b806150395750565b6150428161501e565b6001810361508a5760405162461bcd60e51b815260206004820152601860248201527745434453413a20696e76616c6964207369676e617475726560401b6044820152606490fd5b6150938161501e565b600281036150e05760405162461bcd60e51b815260206004820152601f60248201527f45434453413a20696e76616c6964207369676e6174757265206c656e677468006044820152606490fd5b806150ec60039261501e565b146150f357565b60405162461bcd60e51b815260206004820152602260248201527f45434453413a20696e76616c6964207369676e6174757265202773272076616c604482015261756560f01b6064820152608490fd5b1561514a57565b60405162461bcd60e51b815260206004820152602760248201527f476f7665726e6f72566f74696e6753696d706c653a20766f746520616c726561604482015266191e4818d85cdd60ca1b6064820152608490fd5b916151e061157a6151be60ff9495600052610198602052604060002090565b94600386016151db6151d661419f6115328585612dfe565b615143565b612dfe565b16806151f75750906151f3908254612dc2565b9055565b6001810361520f575060016151f39101918254612dc2565b6002036152255760026151f39101918254612dc2565b60405162461bcd60e51b815260206004820152603560248201527f476f7665726e6f72566f74696e6753696d706c653a20696e76616c69642076616044820152746c756520666f7220656e756d20566f74655479706560581b6064820152608490fd5b6001600160e01b039081811161529c571690565b60405162461bcd60e51b815260206004820152602760248201527f53616665436173743a2076616c756520646f65736e27742066697420696e20326044820152663234206269747360c81b6064820152608490fd5b60026152fc826110db565b015460ff81166153d15760081c60ff166153cb5761531f611711613716836110db565b80156153865761533061085f61351d565b8091101561537f576153496117116001611703856110db565b101561500c5761535881615ad5565b908161536f575b501561536a57600490565b600390565b6153799150615b99565b3861535f565b5050600090565b60405162461bcd60e51b815260206004820152601d60248201527f476f7665726e6f723a20756e6b6e6f776e2070726f706f73616c2069640000006044820152606490fd5b50600290565b5050600790565b610231546040805163c23ee3c360e01b815261ffff939093166004840152600060248401526207a120604484015290829060649082906001600160a01b03165afa908115610e885760009161542b575090565b90506040813d604011615452575b8161544660409383610661565b81010312610530575190565b3d9150615439565b8015615594578061552d61552661551c6155126155086154fe6154f46154ea60016107619a6000908b60801c80615588575b508060401c8061557b575b508060201c8061556e575b508060101c80615561575b508060081c80615554575b508060041c80615547575b508060021c8061553a575b50821c615533575b811c1b6154e3818b614f36565b0160011c90565b6154e3818a614f36565b6154e38189614f36565b6154e38188614f36565b6154e38187614f36565b6154e38186614f36565b6154e38185614f36565b8092614f36565b90615d7f565b81016154d6565b60029150910190386154ce565b60049150910190386154c3565b60089150910190386154b8565b60109150910190386154ad565b60209150910190386154a2565b6040915091019038615497565b9150506080903861548c565b50600090565b601f81116155a6575050565b60009060676000526020600020906020601f850160051c830194106155e6575b601f0160051c01915b8281106155db57505050565b8181556001016155cf565b90925082906155c6565b601f81116155fc575050565b60009060fd6000526020600020906020601f850160051c8301941061563c575b601f0160051c01915b82811061563157505050565b818155600101615625565b909250829061561c565b601f8111615652575050565b60009060686000526020600020906020601f850160051c83019410615692575b601f0160051c01915b82811061568757505050565b81815560010161567b565b9092508290615672565b8160011b916000199060031b1c19161790565b80519091906001600160401b0381116105d5576156d6816156d1606854612aa1565b615646565b602080601f831160011461570b575081906156fb9394600092615700575b505061569c565b606855565b0151905038806156f4565b6068600052601f198316949091907fa2153420d844928b4421650203c77babc8b33d7f2e7b450e2966db0c22097753926000905b87821061577757505083600195961061575e575b505050811b01606855565b015160001960f88460031b161c19169055388080615753565b8060018596829496860151815501950193019061573f565b906157a160ff60005460081c16614529565b81516001600160401b0381116105d5576157c5816157c060fd54612aa1565b6155f0565b602080601f83116001146157ee575081906157e9939460009261570057505061569c565b60fd55565b60fd600052601f198316949091907f9346ac6dd7de6b96975fec380d4d994c4c12e6a8897544f22915316cc6cca280926000905b87821061585a575050836001959610615841575b505050811b0160fd55565b015160001960f88460031b161c19169055388080615836565b80600185968294968601518155019501930190615822565b908151811015611a2d570160200190565b8151603481106159345760131981840101516001600160a01b0319166b1b91f1b211f2119351b859f160a31b0161593457916000926158c181612fdd565b915b8183106158de575050506001600160a01b0391821691161490565b9091936159046158ff6158f18785615872565b516001600160f81b03191690565b615d91565b9190156159295760041b6010600160a01b031660ff91909116179360010191906158c3565b505050505050600190565b505050600190565b6001600160401b0390818111615950571690565b60405162461bcd60e51b815260206004820152602660248201527f53616665436173743a2076616c756520646f65736e27742066697420696e203660448201526534206269747360d01b6064820152608490fd5b156159ab57565b60405162461bcd60e51b815260206004820152601b60248201527a436865636b706f696e743a2064656372656173696e67206b65797360281b6044820152606490fd5b6101cd549192918015615ab257615a7f918185615a17615a126130bb602096612fce565b612ffb565b92615a26845163ffffffff1690565b615a3d63ffffffff918284169283911611156159a4565b615a57615a4e865163ffffffff1690565b63ffffffff1690565b03615a835750615a6c6130bb615a7193612fce565b613cf9565b01516001600160e01b031690565b9190565b9050615aad9150615aa1615a95610684565b63ffffffff9092168252565b6108b987858301612fec565b615a71565b50615acf90615ac2615a95610684565b6108b98460208301612fec565b60009190565b615aea81600052610198602052604060002090565b6002916001600283015492015492610194546001915b8161ffff84161115615b355750505090615b2a615b25611711613716615b30956110db565b614f56565b92612dc2565b101590565b909194615b8c615b9291615b84615b79615b5461166b6116668c612f7b565b611691615b608a6110eb565b60408351600090815260209283522092015161ffff1690565b978589015490612dc2565b965490612dc2565b95612f68565b9190615b00565b6000908082526001602092610198602052604092604082209182549584859401549561019454926001965b615bd4575b505050505050501190565b61ffff989596979884818a1611615c4357615c1890615bf861166b6116668c612f7b565b90878452610197865284842082518552865285858520920151169061111e565b98878a01548701809711612dbd57615c37615c3d9189989b5490612dc2565b98612f68565b96615bc4565b5085989750615bc9565b90615c5993929161382c565b615c6281613f09565b600881101561103c57806002615c879214159081615d69575b81615d54575b50615e80565b615ca56002615c95836110db565b01805461ff001916610100179055565b6040518181527f789cf55be980739dad1d0699b93b58e806b51c9d96619bfa8fe0a28abaa7b30c90602090a1615cda816110ca565b54615ce25790565b615cf1610d5b6101fe54610a82565b615cfa826110ca565b5490803b156105305760405163c4d252f560e01b815260048101929092526000908290602490829084905af18015610e8857615d41575b506000615d3d826110ca565b5590565b80610e7c615d4e926105c2565b38615d31565b60079150615d618161131c565b141538615c81565b9050615d748161131c565b600681141590615c7b565b9080821015615d8c575090565b905090565b60f81c9081602f1080615e05575b15615db157600191602f190160ff1690565b8160401080615dfb575b15615dcd576001916036190160ff1690565b8160601080615df1575b15615de9576001916056190160ff1690565b600091508190565b5060678210615dd7565b5060478210615dbb565b50603a8210615d9f565b615e17612adb565b8051908115615e27576020012090565b50506065548015615e355790565b507fc5d2460186f7233c927e7db2dcc703c0e500b653ca82273b7bfad8045d85a47090565b615e62612b7b565b8051908115615e72576020012090565b50506066548015615e355790565b15615e8757565b60405162461bcd60e51b815260206004820152601d60248201527f476f7665726e6f723a2070726f706f73616c206e6f74206163746976650000006044820152606490fdfe150214d74d59b7d1e90c73fc22ef3d991dd0a76b046543d4d80ab92d2a50328fb3b3f3b703cd84ce352197dcff232b1b5d3cfb2025ce47cf04742d0651f1af8808f74ea46ef7894f65eabfb5e6e695de773a000b47c529ab559178069b226401abfe8157b42cfc40503d794ecb43abbe99d180868288128344cb1c3340635f0a8be0079c531659141344cd1fd0a4f28419497f9722a3daafe3b4186f6b6457e00553476bf02ef2726e8ce5ced78d63e26e602e4a2257b1f559418e24b4633997a164736f6c6343000817000a",
  "linkReferences": {},
  "deployedLinkReferences": {}
}