{
  "_format": "hh-sol-artifact-1",
  "contractName": "Escrow",
  "sourceName": "contracts/Escrow.sol",
  "abi": [
    {
      "inputs": [
        {
          "internalType": "address",
          "name": "_token",
          "type": "address"
        },
        {
          "internalType": "address",
          "name": "_launcher",
          "type": "address"
        },
        {
          "internalType": "address",
          "name": "_admin",
          "type": "address"
        },
        {
          "internalType": "uint256",
          "name": "_duration",
          "type": "uint256"
        }
      ],
      "stateMutability": "nonpayable",
      "type": "constructor"
    },
    {
      "inputs": [
        {
          "internalType": "address",
          "name": "target",
          "type": "address"
        }
      ],
      "name": "AddressEmptyCode",
      "type": "error"
    },
    {
      "inputs": [
        {
          "internalType": "address",
          "name": "account",
          "type": "address"
        }
      ],
      "name": "AddressInsufficientBalance",
      "type": "error"
    },
    {
      "inputs": [],
      "name": "FailedInnerCall",
      "type": "error"
    },
    {
      "inputs": [],
      "name": "ReentrancyGuardReentrantCall",
      "type": "error"
    },
    {
      "inputs": [
        {
          "internalType": "address",
          "name": "token",
          "type": "address"
        }
      ],
      "name": "SafeERC20FailedOperation",
      "type": "error"
    },
    {
      "anonymous": false,
      "inputs": [
        {
          "indexed": true,
          "internalType": "uint256",
          "name": "txId",
          "type": "uint256"
        },
        {
          "indexed": false,
          "internalType": "address[]",
          "name": "recipients",
          "type": "address[]"
        },
        {
          "indexed": false,
          "internalType": "uint256[]",
          "name": "amounts",
          "type": "uint256[]"
        },
        {
          "indexed": false,
          "internalType": "bool",
          "name": "isPartial",
          "type": "bool"
        }
      ],
      "name": "BulkTransfer",
      "type": "event"
    },
    {
      "anonymous": false,
      "inputs": [
        {
          "indexed": true,
          "internalType": "uint256",
          "name": "txId",
          "type": "uint256"
        },
        {
          "indexed": false,
          "internalType": "address[]",
          "name": "recipients",
          "type": "address[]"
        },
        {
          "indexed": false,
          "internalType": "uint256[]",
          "name": "amounts",
          "type": "uint256[]"
        },
        {
          "indexed": false,
          "internalType": "bool",
          "name": "isPartial",
          "type": "bool"
        },
        {
          "indexed": false,
          "internalType": "string",
          "name": "finalResultsUrl",
          "type": "string"
        }
      ],
      "name": "BulkTransferV2",
      "type": "event"
    },
    {
      "anonymous": false,
      "inputs": [
        {
          "indexed": true,
          "internalType": "bytes32",
          "name": "payoutId",
          "type": "bytes32"
        },
        {
          "indexed": false,
          "internalType": "address[]",
          "name": "recipients",
          "type": "address[]"
        },
        {
          "indexed": false,
          "internalType": "uint256[]",
          "name": "amounts",
          "type": "uint256[]"
        },
        {
          "indexed": false,
          "internalType": "bool",
          "name": "isPartial",
          "type": "bool"
        },
        {
          "indexed": false,
          "internalType": "string",
          "name": "finalResultsUrl",
          "type": "string"
        },
        {
          "indexed": false,
          "internalType": "string",
          "name": "finalResultsHash",
          "type": "string"
        }
      ],
      "name": "BulkTransferV3",
      "type": "event"
    },
    {
      "anonymous": false,
      "inputs": [
        {
          "indexed": false,
          "internalType": "uint256",
          "name": "amount",
          "type": "uint256"
        }
      ],
      "name": "CancellationRefund",
      "type": "event"
    },
    {
      "anonymous": false,
      "inputs": [],
      "name": "CancellationRequested",
      "type": "event"
    },
    {
      "anonymous": false,
      "inputs": [],
      "name": "Cancelled",
      "type": "event"
    },
    {
      "anonymous": false,
      "inputs": [],
      "name": "Completed",
      "type": "event"
    },
    {
      "anonymous": false,
      "inputs": [
        {
          "indexed": false,
          "internalType": "uint256",
          "name": "amount",
          "type": "uint256"
        }
      ],
      "name": "Fund",
      "type": "event"
    },
    {
      "anonymous": false,
      "inputs": [
        {
          "indexed": false,
          "internalType": "string",
          "name": "url",
          "type": "string"
        },
        {
          "indexed": false,
          "internalType": "string",
          "name": "hash",
          "type": "string"
        }
      ],
      "name": "IntermediateStorage",
      "type": "event"
    },
    {
      "anonymous": false,
      "inputs": [
        {
          "indexed": false,
          "internalType": "string",
          "name": "manifest",
          "type": "string"
        },
        {
          "indexed": false,
          "internalType": "string",
          "name": "hash",
          "type": "string"
        }
      ],
      "name": "Pending",
      "type": "event"
    },
    {
      "anonymous": false,
      "inputs": [
        {
          "indexed": false,
          "internalType": "string",
          "name": "manifest",
          "type": "string"
        },
        {
          "indexed": false,
          "internalType": "string",
          "name": "hash",
          "type": "string"
        },
        {
          "indexed": false,
          "internalType": "address",
          "name": "reputationOracle",
          "type": "address"
        },
        {
          "indexed": false,
          "internalType": "address",
          "name": "recordingOracle",
          "type": "address"
        },
        {
          "indexed": false,
          "internalType": "address",
          "name": "exchangeOracle",
          "type": "address"
        }
      ],
      "name": "PendingV2",
      "type": "event"
    },
    {
      "anonymous": false,
      "inputs": [
        {
          "indexed": false,
          "internalType": "address",
          "name": "token",
          "type": "address"
        },
        {
          "indexed": false,
          "internalType": "uint256",
          "name": "amount",
          "type": "uint256"
        }
      ],
      "name": "Withdraw",
      "type": "event"
    },
    {
      "inputs": [],
      "name": "admin",
      "outputs": [
        {
          "internalType": "address",
          "name": "",
          "type": "address"
        }
      ],
      "stateMutability": "view",
      "type": "function"
    },
    {
      "inputs": [
        {
          "internalType": "address[]",
          "name": "_recipients",
          "type": "address[]"
        },
        {
          "internalType": "uint256[]",
          "name": "_amounts",
          "type": "uint256[]"
        },
        {
          "internalType": "string",
          "name": "_url",
          "type": "string"
        },
        {
          "internalType": "string",
          "name": "_hash",
          "type": "string"
        },
        {
          "internalType": "string",
          "name": "_payoutId",
          "type": "string"
        },
        {
          "internalType": "bool",
          "name": "forceComplete",
          "type": "bool"
        }
      ],
      "name": "bulkPayOut",
      "outputs": [],
      "stateMutability": "nonpayable",
      "type": "function"
    },
    {
      "inputs": [
        {
          "internalType": "address[]",
          "name": "_recipients",
          "type": "address[]"
        },
        {
          "internalType": "uint256[]",
          "name": "_amounts",
          "type": "uint256[]"
        },
        {
          "internalType": "string",
          "name": "_url",
          "type": "string"
        },
        {
          "internalType": "string",
          "name": "_hash",
          "type": "string"
        },
        {
          "internalType": "uint256",
          "name": "_txId",
          "type": "uint256"
        },
        {
          "internalType": "bool",
          "name": "forceComplete",
          "type": "bool"
        }
      ],
      "name": "bulkPayOut",
      "outputs": [],
      "stateMutability": "nonpayable",
      "type": "function"
    },
    {
      "inputs": [],
      "name": "cancel",
      "outputs": [],
      "stateMutability": "nonpayable",
      "type": "function"
    },
    {
      "inputs": [],
      "name": "complete",
      "outputs": [],
      "stateMutability": "nonpayable",
      "type": "function"
    },
    {
      "inputs": [],
      "name": "duration",
      "outputs": [
        {
          "internalType": "uint256",
          "name": "",
          "type": "uint256"
        }
      ],
      "stateMutability": "view",
      "type": "function"
    },
    {
      "inputs": [],
      "name": "escrowFactory",
      "outputs": [
        {
          "internalType": "address",
          "name": "",
          "type": "address"
        }
      ],
      "stateMutability": "view",
      "type": "function"
    },
    {
      "inputs": [],
      "name": "exchangeOracle",
      "outputs": [
        {
          "internalType": "address",
          "name": "",
          "type": "address"
        }
      ],
      "stateMutability": "view",
      "type": "function"
    },
    {
      "inputs": [],
      "name": "exchangeOracleFeePercentage",
      "outputs": [
        {
          "internalType": "uint8",
          "name": "",
          "type": "uint8"
        }
      ],
      "stateMutability": "view",
      "type": "function"
    },
    {
      "inputs": [],
      "name": "finalResultsHash",
      "outputs": [
        {
          "internalType": "string",
          "name": "",
          "type": "string"
        }
      ],
      "stateMutability": "view",
      "type": "function"
    },
    {
      "inputs": [],
      "name": "finalResultsUrl",
      "outputs": [
        {
          "internalType": "string",
          "name": "",
          "type": "string"
        }
      ],
      "stateMutability": "view",
      "type": "function"
    },
    {
      "inputs": [],
      "name": "getBalance",
      "outputs": [
        {
          "internalType": "uint256",
          "name": "",
          "type": "uint256"
        }
      ],
      "stateMutability": "view",
      "type": "function"
    },
    {
      "inputs": [
        {
          "internalType": "address",
          "name": "_token",
          "type": "address"
        }
      ],
      "name": "getTokenBalance",
      "outputs": [
        {
          "internalType": "uint256",
          "name": "",
          "type": "uint256"
        }
      ],
      "stateMutability": "view",
      "type": "function"
    },
    {
      "inputs": [],
      "name": "intermediateResultsHash",
      "outputs": [
        {
          "internalType": "string",
          "name": "",
          "type": "string"
        }
      ],
      "stateMutability": "view",
      "type": "function"
    },
    {
      "inputs": [],
      "name": "intermediateResultsUrl",
      "outputs": [
        {
          "internalType": "string",
          "name": "",
          "type": "string"
        }
      ],
      "stateMutability": "view",
      "type": "function"
    },
    {
      "inputs": [],
      "name": "launcher",
      "outputs": [
        {
          "internalType": "address",
          "name": "",
          "type": "address"
        }
      ],
      "stateMutability": "view",
      "type": "function"
    },
    {
      "inputs": [],
      "name": "manifestHash",
      "outputs": [
        {
          "internalType": "string",
          "name": "",
          "type": "string"
        }
      ],
      "stateMutability": "view",
      "type": "function"
    },
    {
      "inputs": [],
      "name": "manifestUrl",
      "outputs": [
        {
          "internalType": "string",
          "name": "",
          "type": "string"
        }
      ],
      "stateMutability": "view",
      "type": "function"
    },
    {
      "inputs": [],
      "name": "recordingOracle",
      "outputs": [
        {
          "internalType": "address",
          "name": "",
          "type": "address"
        }
      ],
      "stateMutability": "view",
      "type": "function"
    },
    {
      "inputs": [],
      "name": "recordingOracleFeePercentage",
      "outputs": [
        {
          "internalType": "uint8",
          "name": "",
          "type": "uint8"
        }
      ],
      "stateMutability": "view",
      "type": "function"
    },
    {
      "inputs": [],
      "name": "remainingFunds",
      "outputs": [
        {
          "internalType": "uint256",
          "name": "",
          "type": "uint256"
        }
      ],
      "stateMutability": "view",
      "type": "function"
    },
    {
      "inputs": [],
      "name": "reputationOracle",
      "outputs": [
        {
          "internalType": "address",
          "name": "",
          "type": "address"
        }
      ],
      "stateMutability": "view",
      "type": "function"
    },
    {
      "inputs": [],
      "name": "reputationOracleFeePercentage",
      "outputs": [
        {
          "internalType": "uint8",
          "name": "",
          "type": "uint8"
        }
      ],
      "stateMutability": "view",
      "type": "function"
    },
    {
      "inputs": [],
      "name": "requestCancellation",
      "outputs": [],
      "stateMutability": "nonpayable",
      "type": "function"
    },
    {
      "inputs": [],
      "name": "reservedFunds",
      "outputs": [
        {
          "internalType": "uint256",
          "name": "",
          "type": "uint256"
        }
      ],
      "stateMutability": "view",
      "type": "function"
    },
    {
      "inputs": [
        {
          "internalType": "address",
          "name": "_reputationOracle",
          "type": "address"
        },
        {
          "internalType": "address",
          "name": "_recordingOracle",
          "type": "address"
        },
        {
          "internalType": "address",
          "name": "_exchangeOracle",
          "type": "address"
        },
        {
          "internalType": "uint8",
          "name": "_reputationOracleFeePercentage",
          "type": "uint8"
        },
        {
          "internalType": "uint8",
          "name": "_recordingOracleFeePercentage",
          "type": "uint8"
        },
        {
          "internalType": "uint8",
          "name": "_exchangeOracleFeePercentage",
          "type": "uint8"
        },
        {
          "internalType": "string",
          "name": "_url",
          "type": "string"
        },
        {
          "internalType": "string",
          "name": "_hash",
          "type": "string"
        }
      ],
      "name": "setup",
      "outputs": [],
      "stateMutability": "nonpayable",
      "type": "function"
    },
    {
      "inputs": [],
      "name": "status",
      "outputs": [
        {
          "internalType": "enum IEscrow.EscrowStatuses",
          "name": "",
          "type": "uint8"
        }
      ],
      "stateMutability": "view",
      "type": "function"
    },
    {
      "inputs": [
        {
          "internalType": "string",
          "name": "_url",
          "type": "string"
        },
        {
          "internalType": "string",
          "name": "_hash",
          "type": "string"
        }
      ],
      "name": "storeResults",
      "outputs": [],
      "stateMutability": "nonpayable",
      "type": "function"
    },
    {
      "inputs": [
        {
          "internalType": "string",
          "name": "_url",
          "type": "string"
        },
        {
          "internalType": "string",
          "name": "_hash",
          "type": "string"
        },
        {
          "internalType": "uint256",
          "name": "_fundsToReserve",
          "type": "uint256"
        }
      ],
      "name": "storeResults",
      "outputs": [],
      "stateMutability": "nonpayable",
      "type": "function"
    },
    {
      "inputs": [],
      "name": "token",
      "outputs": [
        {
          "internalType": "address",
          "name": "",
          "type": "address"
        }
      ],
      "stateMutability": "view",
      "type": "function"
    },
    {
      "inputs": [
        {
          "internalType": "address",
          "name": "_token",
          "type": "address"
        }
      ],
      "name": "withdraw",
      "outputs": [],
      "stateMutability": "nonpayable",
      "type": "function"
    }
  ],
  "bytecode": "0x610100346200022357601f62002dce38819003918201601f19168301916001600160401b03831184841017620002285780849260809460405283398101031262000223576200004e816200023e565b906200005d602082016200023e565b60606200006d604084016200023e565b920151600160005592620000c96001600160a01b036200009b6200009062000253565b82861615156200028c565b620000b4620000a962000253565b82871615156200028c565b620000be62000253565b90831615156200028c565b8315620001ee5760e05260805260a0523360c05260ff1960015416600155428101809111620001d857600a55604051612ad79081620002f782396080518181816108b501528181610bb5015281816111d30152818161153f01528181612169015281816126f601526128f7015260a051818181610201015281816102d901528181610907015281816109c50152818161118901528181611279015281816113820152818161146c015261178f015260c05181818161088a0152610ef1015260e05181818161018a0152818161048c01528181610bd6015281816114a801528181611d0d01528181611d7d01528181611dee01528181611f17015281816121b0015281816126b401526129180152f35b634e487b7160e01b600052601160045260246000fd5b60405162461bcd60e51b815260206004820152600d60248201526c04475726174696f6e206973203609c1b6044820152606490fd5b600080fd5b634e487b7160e01b600052604160045260246000fd5b51906001600160a01b03821682036200022357565b60408051919082016001600160401b038111838210176200022857604052600c82526b5a65726f206164647265737360a01b6020830152565b15620002955750565b6040519062461bcd60e51b82528160208060048301528251908160248401526000935b828510620002dc575050604492506000838284010152601f80199101168101030190fd5b8481018201518686016044015293810193859350620002b856fe608080604052600436101561001357600080fd5b60003560e01c9081630ae9dfad14612280575080630f46c9aa146121f25780630fb5a6b4146121d457806312065fe01461219857806316eebd1e14612153578063200d2ed21461212957806331fc48f0146116cb578063337f3f321461163d5780633aecd0e31461161257806343aba9c214611584578063509c5df61461156657806351cff8d914611426578063522e11771461135757806355bf1d6a146112c8578063697e4b871461121f57806378c62420146111fb57806381972d001461116b5780639753e432146111425780639c48b102146110b4578063a05220ad1461108b578063a5aa542e1461106d578063b8deafd814610fdf578063ba5fed3414610f20578063bdd1daaa14610edb578063c479bbf814610eb7578063cd99f2301461096d578063ea8a1af0146108dc578063f56679cf14610230578063f851a440146101eb578063fad844c1146101be5763fc0c546a1461017457600080fd5b346101b95760003660031901126101b9576040517f00000000000000000000000000000000000000000000000000000000000000006001600160a01b03168152602090f35b600080fd5b346101b95760003660031901126101b95760015460405160089190911c6001600160a01b03168152602090f35b346101b95760003660031901126101b9576040517f00000000000000000000000000000000000000000000000000000000000000006001600160a01b03168152602090f35b346101b9576101003660031901126101b95761024a6123b3565b6024356001600160a01b0380821682036101b9576044359080821682036101b95760ff60643516606435036101b95760ff60843516608435036101b95760ff60a4351660a435036101b95760c4356001600160401b0381116101b9576102b4903690600401612377565b60e4356001600160401b0381116101b9576102d3903690600401612377565b969093807f000000000000000000000000000000000000000000000000000000000000000016331480156108b1575b8015610886575b610312906123c9565b61031f600a544210612404565b80821615610845578087161561080557808616156107c657606460ff61035360a43561034e6084358535612762565b612762565b16116107865760015460ff811660078110156107705761073c57610100600160a81b031916600883901b610100600160a81b031617600155600280546001600160a01b0319168883161790556003805460843560a81b60ff60a81b1660643560a01b60ff60a01b166001600160b81b031990921689851617919091171760a43560b01b60ff60b01b161790556001600160401b038311610659576103f86004546122a1565b601f81116106ed575b50826000601f821160011461067a5760009161066f575b508360011b906000198560031b1c1916176004555b6001600160401b038811610659576104466005546122a1565b601f8111610614575b50876000601f82116001146105895760009161057e575b508860011b906000198a60031b1c1916176005555b600160ff19815416176001556104b07f000000000000000000000000000000000000000000000000000000000000000061252b565b9586600c55861561054a57816020988161052b7ff3bcd83b3ad174382a0f0ee29dcba2eee468d36f13021623af7de1539e268074997f27b2dc149fd3048bc27eadaaf660801a04305c72845da74066a17b72d6c5bb669d61051e6040519b8c9b60a08d5260a08d019161250a565b918a83038f8c015261250a565b951660408701521660608501521660808301520390a1604051908152a1005b60405162461bcd60e51b815260206004820152600c60248201526b5a65726f2062616c616e636560a01b6044820152606490fd5b905085013589610466565b600560009081527f036b6384b5eca791c62761152d0c79bb0604c104a5fb6f4eb0703f3154bb3db092508a90601f1982169060205b8282106105f7575050106105dd575b5050600188811b0160055561047b565b86013560001960038b901b60f8161c1916905588806105cd565b80929350600185968293968d0135815501950193018c92916105be565b60056000526020600020601f8a0160051c810160208b10610652575b601f830160051c8201811061064657505061044f565b60008155600101610630565b5080610630565b634e487b7160e01b600052604160045260246000fd5b905084013589610418565b60046000908152600080516020612a8b83398151915292505b601f19861681106106d5575084601f198116106106bb575b5050600183811b0160045561042d565b850135600019600386901b60f8161c1916905588806106ab565b9091602060018192858a013581550193019101610693565b6004600052600080516020612a8b833981519152601f850160051c810160208610610735575b601f830160051c82018110610729575050610401565b60008155600101610713565b5080610713565b60405162461bcd60e51b815260206004820152600c60248201526b57726f6e672073746174757360a01b6044820152606490fd5b634e487b7160e01b600052602160045260246000fd5b60405162461bcd60e51b815260206004820152601860248201527750657263656e74616765206f7574206f6620626f756e647360401b6044820152606490fd5b60405162461bcd60e51b8152602060048201526017602482015276496e76616c69642065786368616e6765206f7261636c6560481b6044820152606490fd5b60405162461bcd60e51b8152602060048201526018602482015277496e76616c6964207265636f7264696e67206f7261636c6560401b6044820152606490fd5b60405162461bcd60e51b8152602060048201526019602482015278496e76616c69642072657075746174696f6e206f7261636c6560381b6044820152606490fd5b50337f0000000000000000000000000000000000000000000000000000000000000000821614610309565b50807f0000000000000000000000000000000000000000000000000000000000000000163314610302565b346101b95760003660031901126101b9576108fa600a544210612404565b61093760018060a01b03807f000000000000000000000000000000000000000000000000000000000000000016331490811561095c575b506123c9565b60ff60015416600781101561077057600661095291146125bc565b61095a61287b565b005b905060015460081c16331482610931565b346101b95760603660031901126101b9576004356001600160401b0381116101b95761099d903690600401612377565b906024356001600160401b0381116101b9576109bd903690600401612377565b9092909190337f00000000000000000000000000000000000000000000000000000000000000006001600160a01b0316148015610ea3575b6109fe906123c9565b610a0b600a544210612404565b60ff600154166007811015806107705760018214908115610e96575b8115610e83575b50610a3991506125bc565b604435610e15575b610a50600c54600d54906124e9565b60443511610dd0576001600160401b03811161065957610a716006546122a1565b601f8111610d81575b50806000601f8211600114610d0e57600091610d03575b508160011b906000198360031b1c1916176006555b6001600160401b03831161065957610abf6007546122a1565b601f8111610c9e575b50600093601f8411600114610c2157610b4290846000805160206129eb8339815191529596600091610c16575b508660011b906000198860031b1c1916176007555b610b18604435600d5461248c565b9586600d55610b3460405195869560408752604087019161250a565b91848303602086015261250a565b0390a160ff60015416600781101561077057600614610b5d57005b610b6990600c546124e9565b80610b9c575b50600c5415610b7a57005b600560ff196001541617600155600080516020612a0b833981519152600080a1005b600080516020612aab83398151915290602090610c03817f00000000000000000000000000000000000000000000000000000000000000007f00000000000000000000000000000000000000000000000000000000000000006001600160a01b0316612799565b604051908152a1600d54600c5580610b6f565b905081013587610af5565b6007600052602060002060005b601f1986168110610c86575090610b429185966000805160206129eb83398151915296601f19811610610c6c575b5050600186811b01600755610b0a565b820135600019600389901b60f8161c191690558680610c5c565b82870135825560209687019660019092019101610c2e565b60076000527fa66cc928b5edb82af9bd49922954155ab7b0942694bea4ce44661d9a8736c688601f850160051c81019160208610610cf9575b601f0160051c01905b818110610ced5750610ac8565b60008155600101610ce0565b9091508190610cd7565b905082013585610a91565b60066000908152600080516020612a6b83398151915292505b601f1984168110610d69575082601f19811610610d4f575b5050600181811b01600655610aa6565b830135600019600384901b60f8161c191690558480610d3f565b90916020600181928588013581550193019101610d27565b6006600052600080516020612a6b833981519152601f830160051c810160208410610dc9575b601f830160051c82018110610dbd575050610a7a565b60008155600101610da7565b5080610da7565b60405162461bcd60e51b815260206004820152601d60248201527f496e73756666696369656e7420756e72657365727665642066756e64730000006044820152606490fd5b8015610e525782610a415760405162461bcd60e51b815260206004820152600a60248201526908adae0e8f240d0c2e6d60b31b6044820152606490fd5b60405162461bcd60e51b8152602060048201526009602482015268115b5c1d1e4815549360ba1b6044820152606490fd5b9050610770576006610a39911486610a2e565b5050600281146000610a27565b506002546001600160a01b031633146109f5565b346101b95760003660031901126101b957602060ff60035460a01c16604051908152f35b346101b95760003660031901126101b9576040517f00000000000000000000000000000000000000000000000000000000000000006001600160a01b03168152602090f35b346101b95760003660031901126101b957604051600090600654610f43816122a1565b808352602091600190818116908115610fbf5750600114610f7f575b610f7b84610f6f818803826122db565b604051918291826122fe565b0390f35b919350600660005283600020916000925b828410610fac5750505081610f7b93610f6f9282010193610f5f565b8054858501870152928501928101610f90565b60ff1916858501525050151560051b8201019150610f6f81610f7b610f5f565b346101b95760003660031901126101b957604051600090600754611002816122a1565b808352602091600190818116908115610fbf575060011461102d57610f7b84610f6f818803826122db565b919350600760005283600020916000925b82841061105a5750505081610f7b93610f6f9282010193610f5f565b805485850187015292850192810161103e565b346101b95760003660031901126101b9576020600c54604051908152f35b346101b95760003660031901126101b9576003546040516001600160a01b039091168152602090f35b346101b95760003660031901126101b9576040516000906004546110d7816122a1565b808352602091600190818116908115610fbf575060011461110257610f7b84610f6f818803826122db565b919350600460005283600020916000925b82841061112f5750505081610f7b93610f6f9282010193610f5f565b8054858501870152928501928101611113565b346101b95760003660031901126101b9576002546040516001600160a01b039091168152602090f35b346101b95760003660031901126101b9576111b860018060a01b03807f00000000000000000000000000000000000000000000000000000000000000001633149081156111cf57506123c9565b6111c0612776565b6111c8612635565b6001600055005b90507f000000000000000000000000000000000000000000000000000000000000000016331482610931565b346101b95760003660031901126101b957602060ff60035460a81c16604051908152f35b346101b95760403660031901126101b9576001600160401b036004358181116101b957611250903690600401612377565b50506024359081116101b95761126a903690600401612377565b50506112a860018060a01b03807f00000000000000000000000000000000000000000000000000000000000000001633149081156112ba57506123c9565b6112b5600a544210612404565b6125f9565b905060025416331482610931565b346101b95760c03660031901126101b9576001600160401b036004358181116101b9576112f9903690600401612347565b50506024358181116101b957611313903690600401612347565b50506044358181116101b95761132d903690600401612377565b50506064359081116101b957611347903690600401612377565b50506113516123a4565b506125f9565b346101b95760003660031901126101b957611375600a544210612404565b6113b160018060a01b03807f000000000000000000000000000000000000000000000000000000000000000016331490811561095c57506123c9565b60ff600154166007811015806107705760038214908115611419575b81156113dd575b610952826125bc565b90506107705760011480611406575b806113fc575b61095290826113d4565b50600d54156113f2565b506114126006546122a1565b15156113ec565b50506002811460006113cd565b346101b95760203660031901126101b9577f884edad9ce6fa2440d8a54cc123490eb96d2768479d49ff9c7366125a94243646114606123b3565b6001600160a01b0390337f0000000000000000000000000000000000000000000000000000000000000000831614801561153b575b61149e906123c9565b6114a6612776565b7f00000000000000000000000000000000000000000000000000000000000000008282169281168314600014611527576114f96114e561150e9261252b565b600c54906114f4828211612455565b6124e9565b80935b611507821515612455565b3390612799565b61151d604051928392836125a1565b0390a16001600055005b5061150e6115348261252b565b80936114fc565b50337f0000000000000000000000000000000000000000000000000000000000000000831614611495565b346101b95760003660031901126101b9576020600d54604051908152f35b346101b95760003660031901126101b9576040516000906008546115a7816122a1565b808352602091600190818116908115610fbf57506001146115d257610f7b84610f6f818803826122db565b919350600860005283600020916000925b8284106115ff5750505081610f7b93610f6f9282010193610f5f565b80548585018701529285019281016115e3565b346101b95760203660031901126101b95760206116356116306123b3565b61252b565b604051908152f35b346101b95760003660031901126101b957604051600090600554611660816122a1565b808352602091600190818116908115610fbf575060011461168b57610f7b84610f6f818803826122db565b919350600560005283600020916000925b8284106116b85750505081610f7b93610f6f9282010193610f5f565b805485850187015292850192810161169c565b346101b95760c03660031901126101b9576004356001600160401b0381116101b9576116fb903690600401612347565b6024356001600160401b0381116101b95761171a903690600401612347565b9092906044356001600160401b0381116101b95761173c903690600401612377565b90946064356001600160401b0381116101b95761175d903690600401612377565b90939092906084356001600160401b0381116101b957611781903690600401612377565b919061178b6123a4565b92337f00000000000000000000000000000000000000000000000000000000000000006001600160a01b031614801561210f575b6117c8906123c9565b6117d5600a544210612404565b6117dd612776565b6117e68161243a565b916117f460405193846122db565b81835236828201116101b9578160009260209283860137830101526020815191012097611824600c541515612455565b88600052600b60205260ff604060002054166120d05781810361209957811561206457606481116120295783151580612020575b15611fea5760009160005b818110611f905750600d548311611f585781600381018111611f425761188b60038201612499565b9661189960405198896122db565b600382018089526118a990612499565b601f19013660208a01376118bf60038301612499565b9a6118cd6040519c8d6122db565b60038301808d526118dd90612499565b601f19013660208e0137604051936001600160401b036060860190811190861117610659576060850160405260008552600060208601526000604086015260005b848110611e3f57505050509061197693929160ff60035460a01c16611dce575b5060ff60035460a81c16611d5b575b60035460ff8160b01c16611cee575b50505061196b81600c546124e9565b600c55600d546124e9565b600d556001600160401b038211610659576119926008546122a1565b601f8111611c9f575b50816000601f8211600114611c2a57600091611c1f575b508260011b906000198460031b1c1916176008555b6001600160401b038411610659576119e06009546122a1565b601f8111611bd0575b50836000601f8211600114611b5d57600091611b52575b508460011b906000198660031b1c1916176009555b86600052600b6020526040600020600160ff19825416179055600c5415159081611b49575b506040519560a0870160a088528151809152602060c0890192019060005b818110611b2a5750505086810360208801526020808551928381520194019060005b818110611b145750505092611ac8611ad6938796937f1abfcb29bb62c645acec9875fb93011a03ced5c168a43b9ab941e4c7c623d4ef9896159a8b156040890152878303606089015261250a565b91848303608086015261250a565b0390a215611ae6576111c861287b565b60015460ff8116600781101561077057600603611b04575b506111c8565b60ff191660021760015580611afe565b8251865260209586019590920191600101611a7a565b82516001600160a01b0316845260209384019390920191600101611a58565b90501588611a3a565b905085013589611a00565b60096000908152600080516020612a4b83398151915292505b601f1987168110611bb8575085601f19811610611b9e575b5050600184811b01600955611a15565b860135600019600387901b60f8161c191690558880611b8e565b9091602060018192858b013581550193019101611b76565b6009600052600080516020612a4b833981519152601f860160051c810160208710611c18575b601f830160051c82018110611c0c5750506119e9565b60008155600101611bf6565b5080611bf6565b9050880135896119b2565b60086000908152600080516020612a2b83398151915292508490601f198216905b8c828210611c8557505010611c6b575b5050600182811b016008556119c7565b890135600019600385901b60f8161c191690558880611c5b565b840135855560019094019360209384019387935001611c4b565b6008600052600080516020612a2b833981519152601f840160051c810160208510611ce7575b601f830160051c82018110611cdb57505061199b565b60008155600101611cc5565b5080611cc5565b604080830151611d52939192611d3291906001600160a01b03908116907f000000000000000000000000000000000000000000000000000000000000000016612799565b6003546001600160a01b0316611d48858e6124f6565b52015191876124f6565b528a808061195c565b600254602082015191926001929091611da291906001600160a01b03908116907f000000000000000000000000000000000000000000000000000000000000000016612799565b818060a01b0360025416611db6828d6124f6565b526020830151611dc6828a6124f6565b52019061194d565b6001805483519394509092611e139160081c6001600160a01b03908116907f000000000000000000000000000000000000000000000000000000000000000016612799565b818060a01b03825460081c16611e29828d6124f6565b528251611e36828a6124f6565b5201908c61193e565b808b611ed6611ece896114f4611e5686898c6124b0565b356114f4600354916064611e708260ff8660a01c166124d6565b04906064611e958260ff83611e8a83838b60a81c166124d6565b049760b01c166124d6565b0495611ea283825161248c565b8152611eb285602083015161248c565b60208201526040611ec6888284015161248c565b9101526124e9565b9384926124f6565b52611ee28187866124b0565b356001600160a01b03811681036101b9578f92611f3c91600194611f0e85878060a01b038416926124f6565b52848060a01b037f000000000000000000000000000000000000000000000000000000000000000016612799565b0161191e565b634e487b7160e01b600052601160045260246000fd5b60405162461bcd60e51b815260206004820152601060248201526f4e6f7420656e6f7567682066756e647360801b6044820152606490fd5b92611f9c8483896124b0565b35908115611fb757600191611fb09161248c565b9301611863565b60405162461bcd60e51b815260206004820152600b60248201526a16995c9bc8185b5bdd5b9d60aa1b6044820152606490fd5b60405162461bcd60e51b815260206004820152600e60248201526d08adae0e8f240eae4d85ed0c2e6d60931b6044820152606490fd5b50851515611858565b60405162461bcd60e51b8152602060048201526013602482015272546f6f206d616e7920726563697069656e747360681b6044820152606490fd5b60405162461bcd60e51b815260206004820152600d60248201526c456d70747920616d6f756e747360981b6044820152606490fd5b60405162461bcd60e51b815260206004820152600f60248201526e098cadccee8d040dad2e6dac2e8c6d608b1b6044820152606490fd5b60405162461bcd60e51b81526020600482015260176024820152767061796f7574496420616c72656164792065786973747360481b6044820152606490fd5b506001543360089190911c6001600160a01b0316146117bf565b346101b95760003660031901126101b95760ff600154166040516007821015610770576020918152f35b346101b95760003660031901126101b9576040517f00000000000000000000000000000000000000000000000000000000000000006001600160a01b03168152602090f35b346101b95760003660031901126101b95760206116357f000000000000000000000000000000000000000000000000000000000000000061252b565b346101b95760003660031901126101b9576020600a54604051908152f35b346101b95760003660031901126101b957604051600090600954612215816122a1565b808352602091600190818116908115610fbf575060011461224057610f7b84610f6f818803826122db565b919350600960005283600020916000925b82841061226d5750505081610f7b93610f6f9282010193610f5f565b8054858501870152928501928101612251565b346101b95760003660031901126101b95760209060ff60035460b01c168152f35b90600182811c921680156122d1575b60208310146122bb57565b634e487b7160e01b600052602260045260246000fd5b91607f16916122b0565b601f909101601f19168101906001600160401b0382119082101761065957604052565b6020808252825181830181905290939260005b82811061233357505060409293506000838284010152601f8019910116010190565b818101860151848201604001528501612311565b9181601f840112156101b9578235916001600160401b0383116101b9576020808501948460051b0101116101b957565b9181601f840112156101b9578235916001600160401b0383116101b957602083818601950101116101b957565b60a4359081151582036101b957565b600435906001600160a01b03821682036101b957565b156123d057565b60405162461bcd60e51b815260206004820152600c60248201526b155b985d5d1a1bdc9a5cd95960a21b6044820152606490fd5b1561240b57565b60405162461bcd60e51b8152602060048201526007602482015266115e1c1a5c995960ca1b6044820152606490fd5b6001600160401b03811161065957601f01601f191660200190565b1561245c57565b60405162461bcd60e51b81526020600482015260086024820152674e6f2066756e647360c01b6044820152606490fd5b91908201809211611f4257565b6001600160401b0381116106595760051b60200190565b91908110156124c05760051b0190565b634e487b7160e01b600052603260045260246000fd5b81810292918115918404141715611f4257565b91908203918211611f4257565b80518210156124c05760209160051b010190565b908060209392818452848401376000828201840152601f01601f1916010190565b6040516370a0823160e01b815230600482015290602090829060249082906001600160a01b03165afa90811561259557600091612566575090565b90506020813d60201161258d575b81612581602093836122db565b810103126101b9575190565b3d9150612574565b6040513d6000823e3d90fd5b6001600160a01b039091168152602081019190915260400190565b156125c357565b60405162461bcd60e51b815260206004820152600e60248201526d496e76616c69642073746174757360901b6044820152606490fd5b60405162461bcd60e51b8152602060048201526014602482015273444550524543415445445f5349474e415455524560601b6044820152606490fd5b600c541580159061274c575b61264a906125bc565b60015460ff8116600660ff19809316176001556000907f24793289dcb58fa686016edbde5e8ff0e690d448c5e88589a5c80aa9147610948280a1600a5442101561273f57600781101561272b57156126a0575050565b6005600080516020612a0b833981519152927f00000000000000000000000000000000000000000000000000000000000000006126dc8161252b565b806126f0575b5050600154161760015580a1565b612724917f0000000000000000000000000000000000000000000000000000000000000000906001600160a01b0316612799565b38806126e2565b634e487b7160e01b82526021600452602482fd5b50505061274a61287b565b565b5060ff6001541660078110156107705715612641565b9060ff8091169116019060ff8211611f4257565b600260005414612787576002600055565b604051633ee5aeb560e01b8152600490fd5b612814906127d06127c294604051958691602083019663a9059cbb60e01b8852602484016125a1565b03601f1981018652856122db565b60018060a01b031692600080938192519082875af13d15612873573d906127f68261243a565b9161280460405193846122db565b82523d84602084013e5b84612987565b908151918215159283612844575b50505061282c5750565b60249060405190635274afe760e01b82526004820152fd5b81929350906020918101031261286f57602001519081159182150361286c5750388080612822565b80fd5b5080fd5b60609061280e565b60ff60015416600c54806128f1575b506007811015610770576006036128bd57600560ff196001541617600155600080516020612a0b833981519152600080a1565b600460ff1960015416176001557fe06452d00b2b58f14a1fa6d499ea982ff93ea827ae700ea9ba03f4daddc94bc1600080a1565b612945817f00000000000000000000000000000000000000000000000000000000000000007f00000000000000000000000000000000000000000000000000000000000000006001600160a01b0316612799565b60078210156107705760068214612968575b506000600c556000600d553861288a565b6020600080516020612aab83398151915291604051908152a138612957565b906129ae575080511561299c57805190602001fd5b604051630a12f52160e11b8152600490fd5b815115806129e1575b6129bf575090565b604051639996b31560e01b81526001600160a01b039091166004820152602490fd5b50803b156129b756feb20e0717219840fd5684a80bec782e8babb56ea224f677561b791a61192605c163b958841f79ab97cb5456da181454b9932c0e15a3b17f1cbd27e2a8bc610437f3f7a9fe364faab93b216da50a3214154f22a0a2b415b23a84c8169e8b636ee36e1540171b6c0c960b71a7020d9f60077f6af931a8bbf590da0223dacf75c7aff652222313e28459528d920b65115c16c04f3efc82aaedc97be59f3f377c0d3f8a35acfbc15ff81a39ae7d344fd709f28e8600b4aa8c65c6b64bfe7fe36bd19b4b1258c7a3c571dbdb0bf09839743cf12ad7e511407472fe5620a13043e67eb9a164736f6c6343000817000a",
  "linkReferences": {},
  "deployedLinkReferences": {}
}