{
  "_format": "hh-sol-artifact-1",
  "contractName": "HMToken",
  "sourceName": "contracts/HMToken.sol",
  "abi": [
    {
      "inputs": [
        {
          "internalType": "uint256",
          "name": "_totalSupply",
          "type": "uint256"
        },
        {
          "internalType": "string",
          "name": "_name",
          "type": "string"
        },
        {
          "internalType": "uint8",
          "name": "_decimals",
          "type": "uint8"
        },
        {
          "internalType": "string",
          "name": "_symbol",
          "type": "string"
        }
      ],
      "stateMutability": "nonpayable",
      "type": "constructor"
    },
    {
      "inputs": [
        {
          "internalType": "address",
          "name": "owner",
          "type": "address"
        }
      ],
      "name": "OwnableInvalidOwner",
      "type": "error"
    },
    {
      "inputs": [
        {
          "internalType": "address",
          "name": "account",
          "type": "address"
        }
      ],
      "name": "OwnableUnauthorizedAccount",
      "type": "error"
    },
    {
      "anonymous": false,
      "inputs": [
        {
          "indexed": true,
          "internalType": "address",
          "name": "_owner",
          "type": "address"
        },
        {
          "indexed": true,
          "internalType": "address",
          "name": "_spender",
          "type": "address"
        },
        {
          "indexed": false,
          "internalType": "uint256",
          "name": "_value",
          "type": "uint256"
        }
      ],
      "name": "Approval",
      "type": "event"
    },
    {
      "anonymous": false,
      "inputs": [
        {
          "indexed": true,
          "internalType": "uint256",
          "name": "_txId",
          "type": "uint256"
        },
        {
          "indexed": false,
          "internalType": "uint256",
          "name": "_bulkCount",
          "type": "uint256"
        }
      ],
      "name": "BulkApproval",
      "type": "event"
    },
    {
      "anonymous": false,
      "inputs": [
        {
          "indexed": true,
          "internalType": "uint256",
          "name": "_txId",
          "type": "uint256"
        },
        {
          "indexed": false,
          "internalType": "uint256",
          "name": "_bulkCount",
          "type": "uint256"
        }
      ],
      "name": "BulkTransfer",
      "type": "event"
    },
    {
      "anonymous": false,
      "inputs": [
        {
          "indexed": true,
          "internalType": "address",
          "name": "previousOwner",
          "type": "address"
        },
        {
          "indexed": true,
          "internalType": "address",
          "name": "newOwner",
          "type": "address"
        }
      ],
      "name": "OwnershipTransferred",
      "type": "event"
    },
    {
      "anonymous": false,
      "inputs": [
        {
          "indexed": true,
          "internalType": "address",
          "name": "_from",
          "type": "address"
        },
        {
          "indexed": true,
          "internalType": "address",
          "name": "_to",
          "type": "address"
        },
        {
          "indexed": false,
          "internalType": "uint256",
          "name": "_value",
          "type": "uint256"
        }
      ],
      "name": "Transfer",
      "type": "event"
    },
    {
      "inputs": [
        {
          "internalType": "address",
          "name": "_owner",
          "type": "address"
        },
        {
          "internalType": "address",
          "name": "_spender",
          "type": "address"
        }
      ],
      "name": "allowance",
      "outputs": [
        {
          "internalType": "uint256",
          "name": "remaining",
          "type": "uint256"
        }
      ],
      "stateMutability": "view",
      "type": "function"
    },
    {
      "inputs": [
        {
          "internalType": "address",
          "name": "_spender",
          "type": "address"
        },
        {
          "internalType": "uint256",
          "name": "_value",
          "type": "uint256"
        }
      ],
      "name": "approve",
      "outputs": [
        {
          "internalType": "bool",
          "name": "success",
          "type": "bool"
        }
      ],
      "stateMutability": "nonpayable",
      "type": "function"
    },
    {
      "inputs": [
        {
          "internalType": "address",
          "name": "_owner",
          "type": "address"
        }
      ],
      "name": "balanceOf",
      "outputs": [
        {
          "internalType": "uint256",
          "name": "balance",
          "type": "uint256"
        }
      ],
      "stateMutability": "view",
      "type": "function"
    },
    {
      "inputs": [],
      "name": "decimals",
      "outputs": [
        {
          "internalType": "uint8",
          "name": "",
          "type": "uint8"
        }
      ],
      "stateMutability": "view",
      "type": "function"
    },
    {
      "inputs": [
        {
          "internalType": "address",
          "name": "_spender",
          "type": "address"
        },
        {
          "internalType": "uint256",
          "name": "_delta",
          "type": "uint256"
        }
      ],
      "name": "decreaseApproval",
      "outputs": [
        {
          "internalType": "bool",
          "name": "success",
          "type": "bool"
        }
      ],
      "stateMutability": "nonpayable",
      "type": "function"
    },
    {
      "inputs": [
        {
          "internalType": "address",
          "name": "_spender",
          "type": "address"
        },
        {
          "internalType": "uint256",
          "name": "_delta",
          "type": "uint256"
        }
      ],
      "name": "increaseApproval",
      "outputs": [
        {
          "internalType": "bool",
          "name": "success",
          "type": "bool"
        }
      ],
      "stateMutability": "nonpayable",
      "type": "function"
    },
    {
      "inputs": [
        {
          "internalType": "address[]",
          "name": "_spenders",
          "type": "address[]"
        },
        {
          "internalType": "uint256[]",
          "name": "_values",
          "type": "uint256[]"
        },
        {
          "internalType": "uint256",
          "name": "_txId",
          "type": "uint256"
        }
      ],
      "name": "increaseApprovalBulk",
      "outputs": [
        {
          "internalType": "uint256",
          "name": "_bulkCount",
          "type": "uint256"
        }
      ],
      "stateMutability": "nonpayable",
      "type": "function"
    },
    {
      "inputs": [],
      "name": "name",
      "outputs": [
        {
          "internalType": "string",
          "name": "",
          "type": "string"
        }
      ],
      "stateMutability": "view",
      "type": "function"
    },
    {
      "inputs": [],
      "name": "owner",
      "outputs": [
        {
          "internalType": "address",
          "name": "",
          "type": "address"
        }
      ],
      "stateMutability": "view",
      "type": "function"
    },
    {
      "inputs": [],
      "name": "renounceOwnership",
      "outputs": [],
      "stateMutability": "nonpayable",
      "type": "function"
    },
    {
      "inputs": [],
      "name": "symbol",
      "outputs": [
        {
          "internalType": "string",
          "name": "",
          "type": "string"
        }
      ],
      "stateMutability": "view",
      "type": "function"
    },
    {
      "inputs": [],
      "name": "totalSupply",
      "outputs": [
        {
          "internalType": "uint256",
          "name": "",
          "type": "uint256"
        }
      ],
      "stateMutability": "view",
      "type": "function"
    },
    {
      "inputs": [
        {
          "internalType": "address",
          "name": "_to",
          "type": "address"
        },
        {
          "internalType": "uint256",
          "name": "_value",
          "type": "uint256"
        }
      ],
      "name": "transfer",
      "outputs": [
        {
          "internalType": "bool",
          "name": "success",
          "type": "bool"
        }
      ],
      "stateMutability": "nonpayable",
      "type": "function"
    },
    {
      "inputs": [
        {
          "internalType": "address[]",
          "name": "_tos",
          "type": "address[]"
        },
        {
          "internalType": "uint256[]",
          "name": "_values",
          "type": "uint256[]"
        },
        {
          "internalType": "uint256",
          "name": "_txId",
          "type": "uint256"
        }
      ],
      "name": "transferBulk",
      "outputs": [
        {
          "internalType": "uint256",
          "name": "_bulkCount",
          "type": "uint256"
        }
      ],
      "stateMutability": "nonpayable",
      "type": "function"
    },
    {
      "inputs": [
        {
          "internalType": "address",
          "name": "_spender",
          "type": "address"
        },
        {
          "internalType": "address",
          "name": "_to",
          "type": "address"
        },
        {
          "internalType": "uint256",
          "name": "_value",
          "type": "uint256"
        }
      ],
      "name": "transferFrom",
      "outputs": [
        {
          "internalType": "bool",
          "name": "success",
          "type": "bool"
        }
      ],
      "stateMutability": "nonpayable",
      "type": "function"
    },
    {
      "inputs": [
        {
          "internalType": "address",
          "name": "newOwner",
          "type": "address"
        }
      ],
      "name": "transferOwnership",
      "outputs": [],
      "stateMutability": "nonpayable",
      "type": "function"
    }
  ],
  "bytecode": "0x608060405234620003f05762001612803803806200001d81620003f5565b928339810190608081830312620003f0578051602080830151909391906001600160401b0390818111620003f057836200005991860162000431565b9360408101519360ff8516809503620003f0576060820151838111620003f05762000085920162000431565b3315620003d75760008054336001600160a01b0319821681178355919591906001600160a01b03167f8be0079c531659141344cd1fd0a4f28419497f9722a3daafe3b4186f6b6457e08780a3604d8111620003c35780600a0a93848102948186041490151715620003c3576001938455855190838211620003af576004918254978689811c99168015620003a4575b8a8a101462000391578190601f998a81116200033e575b508a908a8311600114620002d9578992620002cd575b5050600019600383901b1c191690861b1782555b60ff1960055416176005558151928311620002ba57600654908482811c92168015620002af575b888310146200029c575085811162000253575b5085948211600114620001e6579080604095600294938692620001da575b5050600019600383901b1c191690821b176006555b549333835252205560405161116e9081620004a48239f35b015190503880620001ad565b600684528584209490601f198316855b888282106200023e575050958493919260029593836040991062000224575b505050811b01600655620001c2565b015160001960f88460031b161c1916905538808062000215565b838501518955978601979384019301620001f6565b600685528685208680850160051c82019289861062000292575b0160051c019084905b828110620002865750506200018f565b86815501849062000276565b925081926200026d565b634e487b7160e01b865260229052602485fd5b91607f16916200017c565b634e487b7160e01b855260419052602484fd5b01519050388062000141565b858a528b8a208994509190601f1984168b8e5b8282106200032657505084116200030c575b505050811b01825562000155565b015160001960f88460031b161c19169055388080620002fe565b8385015186558c979095019493840193018e620002ec565b9091508489528a89208a80850160051c8201928d861062000387575b918a91869594930160051c01915b828110620003785750506200012b565b8b81558594508a910162000368565b925081926200035a565b634e487b7160e01b885260228452602488fd5b98607f169862000114565b634e487b7160e01b86526041600452602486fd5b634e487b7160e01b85526011600452602485fd5b604051631e4fbdf760e01b815260006004820152602490fd5b600080fd5b6040519190601f01601f191682016001600160401b038111838210176200041b57604052565b634e487b7160e01b600052604160045260246000fd5b919080601f84011215620003f05782516001600160401b0381116200041b5760209062000467601f8201601f19168301620003f5565b92818452828287010111620003f05760005b8181106200048f57508260009394955001015290565b85810183015184820184015282016200047956fe6080604081815260048036101561001557600080fd5b600092833560e01c90816306fdde0314610bd657508063095ea7b314610b6d57806318160ddd14610b4e57806323b872dd146109995780632776c64014610737578063313ce56714610715578063661884631461064557806370a082311461060d578063715018a6146105c55780638da5cb5b1461059d57806395d89b41146104b7578063a9059cbb14610442578063d73dd62314610410578063dd62ed3e146103c7578063e816d8d81461014a5763f2fde38b146100d357600080fd5b34610146576020366003190112610146576100ec610d31565b906100f561102f565b6001600160a01b0391821692831561013057505082546001600160a01b0319811683178455166000805160206111028339815191528380a380f35b51631e4fbdf760e01b8152908101849052602490fd5b8280fd5b509190346103c35760603660031901126103c3576001600160401b0392803591908483116103bf57366023840112156103bf57828101359260249161018e85610d76565b9161019b85519384610caf565b858352602095848785019160051b8301019136831161039f5785889101915b8383106103a7575050505082359687116103a357366023880112156103a35786810135966101e788610d76565b976101f48651998a610caf565b80895284878a019160051b8301019136831161039f5785889101915b83831061038f57505050508592825188510361033957606483511015610301575050849385945b825186101561025f57610257600191610250888b610e6d565b519061101a565b950194610237565b879550869061027a90676765c793fa10079d601b1b11610e97565b82518110156102cc576102ab6001600160a01b036102988386610e6d565b51166102a48389610e6d565b519061105b565b6102b8575b60010161027a565b926102c4600191610fc2565b9390506102b0565b50828480518281527f8ed71c3a6fb899bfe96968ade5a4119b380c0d642a775106eb80aa795450777e8460443592a251908152f35b845162461bcd60e51b815291820186905260139082015272546f6f206d616e7920726563697069656e747360681b6044820152606490fd5b845162461bcd60e51b8152918201869052602b908201527f416d6f756e74206f6620726563697069656e747320616e642076616c7565732060448201526a0c8dedc4ee840dac2e8c6d60ab1b6064820152608490fd5b8235815291810191889101610210565b8880fd5b8580fd5b81906103b284610d62565b81520191019087906101ba565b8380fd5b5080fd5b5050346103c357806003193601126103c357806020926103e5610d31565b6103ed610d4c565b6001600160a01b0391821683526003865283832091168252845220549051908152f35b5050346103c357806003193601126103c357602090610439610430610d31565b60243590610ee6565b90519015158152f35b5082346104b457826003193601126104b45750610469610460610d31565b6024359061105b565b15610478576020825160018152f35b6020606492519162461bcd60e51b83528201526017602482015276151c985b9cd9995c88191a591b89dd081cdd58d8d95959604a1b6044820152fd5b80fd5b50903461014657826003193601126101465780519183600654906001908260011c92600181168015610593575b6020958686108214610580575084885290811561055e5750600114610523575b61051f8686610515828b0383610caf565b5191829182610ce8565b0390f35b929550600683528583205b82841061054b575050508261051f94610515928201019438610504565b805486850188015292860192810161052e565b60ff191687860152505050151560051b83010192506105158261051f38610504565b634e487b7160e01b845260229052602483fd5b93607f16936104e4565b5050346103c357816003193601126103c357905490516001600160a01b039091168152602090f35b83346104b457806003193601126104b4576105de61102f565b80546001600160a01b03198116825581906001600160a01b03166000805160206111028339815191528280a380f35b5050346103c35760203660031901126103c35760209181906001600160a01b03610635610d31565b1681526002845220549051908152f35b5050346103c357806003193601126103c35761065f610d31565b602435926001600160a01b0390911690829061067c831515610d8d565b3381526020946003865282822084835286528282205481116000146106e1575033815260038552818120838252855280828120555b33815260038552818120838252855220548251908152600080516020611142833981519152843392a35160018152f35b6106fd9033835260038752838320858452875283832054610e4a565b338252600386528282208483528652828220556106b1565b5050346103c357816003193601126103c35760209060ff600554169051908152f35b509190346103c35760603660031901126103c3576001600160401b0392803591908483116103bf57366023840112156103bf57828101359260249161077b85610d76565b9161078885519384610caf565b858352602095848785019160051b8301019136831161039f5785889101915b838310610981575050505082359687116103a357366023880112156103a35786810135966107d488610d76565b976107e18651998a610caf565b80895284878a019160051b8301019136831161039f5785889101915b83831061097157505050508592825188510361091d576064835110156108e7575050849385945b82518610156108455761083d600191610250888b610e6d565b950194610824565b879550869061086090676765c793fa10079d601b1b11610e97565b82518110156108b2576108916001600160a01b0361087e8386610e6d565b511661088a8389610e6d565b5190610ee6565b61089e575b600101610860565b926108aa600191610fc2565b939050610896565b50828480518281527fca78741c6b48402cfa7be577db6559c46abb0f8ba9ce1468cf71297349370d9c8460443592a251908152f35b845162461bcd60e51b815291820186905260119082015270546f6f206d616e79207370656e6465727360781b6044820152606490fd5b845162461bcd60e51b81529182018690526029908201527f416d6f756e74206f66207370656e6465727320616e642076616c75657320646f6044820152680dc4ee840dac2e8c6d60bb1b6064820152608490fd5b82358152918101918891016107fd565b819061098c84610d62565b81520191019087906107a7565b5034610146576060366003190112610146576109b3610d31565b926109bc610d4c565b6001600160a01b0394851691604435916109d7841515610deb565b8382526020966003885286832033845288528683205491848310610b0f571694610a02861515610deb565b8483526002885286832054875190918189016001600160401b03811183821017610afc57895260178252765370656e6465722062616c616e636520746f6f206c6f7760481b8a830152828611610ae0575050918391610a71600080516020611122833981519152958a95610e4a565b8683526002855288832055868252610a8c838984205461101a565b878352600285528883205519610aab575b508551908152a35160018152f35b84815260038352868120338252835286610ac88382842054610e4a565b91868152600385528181203382528552205538610a9d565b610af8895192839262461bcd60e51b84528301610ce8565b0390fd5b634e487b7160e01b865260418252602486fd5b875162461bcd60e51b81528088018a905260196024820152785370656e64657220616c6c6f77616e636520746f6f206c6f7760381b6044820152606490fd5b5050346103c357816003193601126103c3576020906001549051908152f35b5050346103c357806003193601126103c35760209181610b8b610d31565b6001600160a01b031691602435918291610ba6851515610d8d565b33815260038752818120858252875220558251908152600080516020611142833981519152843392a35160018152f35b90508284346104b457806003193601126104b45780938054916001908360011c9260018516948515610ca5575b6020958686108114610c9257858952908115610c6e5750600114610c33575b61051f8787610515828c0383610caf565b9080949750528583205b828410610c5b575050508261051f9461051592820101948680610c22565b8054868501880152928601928101610c3d565b60ff19168887015250505050151560051b83010192506105158261051f8680610c22565b634e487b7160e01b845260228352602484fd5b93607f1693610c03565b601f909101601f19168101906001600160401b03821190821017610cd257604052565b634e487b7160e01b600052604160045260246000fd5b6020808252825181830181905290939260005b828110610d1d57505060409293506000838284010152601f8019910116010190565b818101860151848201604001528501610cfb565b600435906001600160a01b0382168203610d4757565b600080fd5b602435906001600160a01b0382168203610d4757565b35906001600160a01b0382168203610d4757565b6001600160401b038111610cd25760051b60200190565b15610d9457565b60405162461bcd60e51b815260206004820152602960248201527f546f6b656e207370656e64657220697320616e20756e696e697469616c697a6560448201526864206164647265737360b81b6064820152608490fd5b15610df257565b60405162461bcd60e51b815260206004820152602a60248201527f43616e27742073656e6420746f6b656e7320746f20756e696e697469616c697a6044820152696564206164647265737360b01b6064820152608490fd5b91908203918211610e5757565b634e487b7160e01b600052601160045260246000fd5b8051821015610e815760209160051b010190565b634e487b7160e01b600052603260045260246000fd5b15610e9e57565b60405162461bcd60e51b8152602060048201526013602482015272084ead8d640ecc2d8eaca40e8dede40d0d2ced606b1b6044820152606490fd5b91908201809211610e5757565b6001600160a01b031690610efb821515610d8d565b60008051602061114283398151915260009133835260209060038252604093849182822087835284528282205480610f338382610ed9565b10908115610fac575b5015610f785750338152600383528181208682528352600119828220555b338152600383528181208682528352205492519283523392a3600190565b610f949033835260038552838320888452855283832054610ed9565b33825260038452828220878352845282822055610f5a565b9050610fbb8260001992610ed9565b1438610f3c565b6001810190818111610e57578110610fd75790565b60405162461bcd60e51b815260206004820152601b60248201527a536166654d6174683a206164646974696f6e206f766572666c6f7760281b6044820152606490fd5b906110259082610ed9565b908110610fd75790565b6000546001600160a01b0316330361104357565b60405163118cdaa760e01b8152336004820152602490fd5b6001600160a01b031690811580156110f8575b80156110e1575b6110da5760003381526002602052611091826040832054610e4a565b3382526002602052604082205582815260406110b0838284205461101a565b918481526002602052205560405190815260008051602061112283398151915260203392a3600190565b5050600090565b503360005260026020528060406000205410611075565b5030821461106e56fe8be0079c531659141344cd1fd0a4f28419497f9722a3daafe3b4186f6b6457e0ddf252ad1be2c89b69c2b068fc378daa952ba7f163c4a11628f55a4df523b3ef8c5be1e5ebec7d5bd14f71427d1e84f3dd0314c0f7b2291e5b200ac8c7c3b925a164736f6c6343000817000a",
  "linkReferences": {},
  "deployedLinkReferences": {}
}